{
	"contracts/Halal_Supply_Chain.sol": {
		"HalalSupplyChain": {
			"abi": [
				{
					"inputs": [
						{
							"internalType": "uint256",
							"name": "_batchID",
							"type": "uint256"
						},
						{
							"internalType": "string",
							"name": "_location",
							"type": "string"
						},
						{
							"internalType": "string",
							"name": "_content",
							"type": "string"
						}
					],
					"name": "addFlow",
					"outputs": [],
					"stateMutability": "nonpayable",
					"type": "function"
				},
				{
					"inputs": [],
					"name": "batchID",
					"outputs": [
						{
							"internalType": "uint256",
							"name": "",
							"type": "uint256"
						}
					],
					"stateMutability": "view",
					"type": "function"
				},
				{
					"inputs": [
						{
							"internalType": "address",
							"name": "userAddress",
							"type": "address"
						}
					],
					"name": "checkLoginStatus",
					"outputs": [
						{
							"internalType": "bool",
							"name": "",
							"type": "bool"
						}
					],
					"stateMutability": "view",
					"type": "function"
				},
				{
					"inputs": [
						{
							"internalType": "uint256",
							"name": "",
							"type": "uint256"
						},
						{
							"internalType": "uint256",
							"name": "",
							"type": "uint256"
						}
					],
					"name": "flows",
					"outputs": [
						{
							"internalType": "address",
							"name": "updatedBy",
							"type": "address"
						},
						{
							"internalType": "uint256",
							"name": "timestamp",
							"type": "uint256"
						},
						{
							"internalType": "string",
							"name": "location",
							"type": "string"
						},
						{
							"internalType": "string",
							"name": "content",
							"type": "string"
						}
					],
					"stateMutability": "view",
					"type": "function"
				},
				{
					"inputs": [
						{
							"internalType": "uint256",
							"name": "_batchID",
							"type": "uint256"
						}
					],
					"name": "getAllFlows",
					"outputs": [
						{
							"components": [
								{
									"internalType": "address",
									"name": "updatedBy",
									"type": "address"
								},
								{
									"internalType": "uint256",
									"name": "timestamp",
									"type": "uint256"
								},
								{
									"internalType": "string",
									"name": "location",
									"type": "string"
								},
								{
									"internalType": "string",
									"name": "content",
									"type": "string"
								}
							],
							"internalType": "struct HalalSupplyChain.Flow[]",
							"name": "",
							"type": "tuple[]"
						}
					],
					"stateMutability": "view",
					"type": "function"
				},
				{
					"inputs": [
						{
							"internalType": "string",
							"name": "_location",
							"type": "string"
						},
						{
							"internalType": "string",
							"name": "_content",
							"type": "string"
						}
					],
					"name": "initialiseBatch",
					"outputs": [],
					"stateMutability": "nonpayable",
					"type": "function"
				},
				{
					"inputs": [],
					"name": "login",
					"outputs": [],
					"stateMutability": "nonpayable",
					"type": "function"
				},
				{
					"inputs": [],
					"name": "logout",
					"outputs": [],
					"stateMutability": "nonpayable",
					"type": "function"
				},
				{
					"inputs": [
						{
							"internalType": "enum HalalSupplyChain.Role",
							"name": "_role",
							"type": "uint8"
						}
					],
					"name": "registerUser",
					"outputs": [],
					"stateMutability": "nonpayable",
					"type": "function"
				},
				{
					"inputs": [
						{
							"internalType": "address",
							"name": "",
							"type": "address"
						}
					],
					"name": "users",
					"outputs": [
						{
							"internalType": "bool",
							"name": "isRegistered",
							"type": "bool"
						},
						{
							"internalType": "bool",
							"name": "isLoggedIn",
							"type": "bool"
						},
						{
							"internalType": "enum HalalSupplyChain.Role",
							"name": "role",
							"type": "uint8"
						}
					],
					"stateMutability": "view",
					"type": "function"
				}
			],
			"devdoc": {
				"kind": "dev",
				"methods": {},
				"version": 1
			},
			"evm": {
				"assembly": "    /* \"contracts/Halal_Supply_Chain.sol\":62:2555  contract HalalSupplyChain {... */\n  mstore(0x40, 0x80)\n  callvalue\n  dup1\n  iszero\n  tag_1\n  jumpi\n  revert(0x00, 0x00)\ntag_1:\n  pop\n  dataSize(sub_0)\n  dup1\n  dataOffset(sub_0)\n  0x00\n  codecopy\n  0x00\n  return\nstop\n\nsub_0: assembly {\n        /* \"contracts/Halal_Supply_Chain.sol\":62:2555  contract HalalSupplyChain {... */\n      mstore(0x40, 0x80)\n      callvalue\n      dup1\n      iszero\n      tag_1\n      jumpi\n      revert(0x00, 0x00)\n    tag_1:\n      pop\n      jumpi(tag_2, lt(calldatasize, 0x04))\n      shr(0xe0, calldataload(0x00))\n      dup1\n      0xa87430ba\n      gt\n      tag_13\n      jumpi\n      dup1\n      0xa87430ba\n      eq\n      tag_8\n      jumpi\n      dup1\n      0xada00f3b\n      eq\n      tag_9\n      jumpi\n      dup1\n      0xb34e97e8\n      eq\n      tag_10\n      jumpi\n      dup1\n      0xb9cee7d8\n      eq\n      tag_11\n      jumpi\n      dup1\n      0xc293aca7\n      eq\n      tag_12\n      jumpi\n      jump(tag_2)\n    tag_13:\n      dup1\n      0x02b8c8cd\n      eq\n      tag_3\n      jumpi\n      dup1\n      0x04aabb5a\n      eq\n      tag_4\n      jumpi\n      dup1\n      0x1f3c99c3\n      eq\n      tag_5\n      jumpi\n      dup1\n      0xa18d8122\n      eq\n      tag_6\n      jumpi\n      dup1\n      0xa78c928b\n      eq\n      tag_7\n      jumpi\n    tag_2:\n      revert(0x00, 0x00)\n        /* \"contracts/Halal_Supply_Chain.sol\":329:596  function registerUser(Role _role) public {... */\n    tag_3:\n      tag_14\n      0x04\n      dup1\n      calldatasize\n      sub\n      dup2\n      add\n      swap1\n      tag_15\n      swap2\n      swap1\n      tag_16\n      jump\t// in\n    tag_15:\n      tag_17\n      jump\t// in\n    tag_14:\n      stop\n        /* \"contracts/Halal_Supply_Chain.sol\":2432:2550  function getAllFlows(uint256 _batchID) external view returns (Flow[] memory) {... */\n    tag_4:\n      tag_18\n      0x04\n      dup1\n      calldatasize\n      sub\n      dup2\n      add\n      swap1\n      tag_19\n      swap2\n      swap1\n      tag_20\n      jump\t// in\n    tag_19:\n      tag_21\n      jump\t// in\n    tag_18:\n      mload(0x40)\n      tag_22\n      swap2\n      swap1\n      tag_23\n      jump\t// in\n    tag_22:\n      mload(0x40)\n      dup1\n      swap2\n      sub\n      swap1\n      return\n        /* \"contracts/Halal_Supply_Chain.sol\":842:1069  function logout() public {... */\n    tag_5:\n      tag_24\n      tag_25\n      jump\t// in\n    tag_24:\n      stop\n        /* \"contracts/Halal_Supply_Chain.sol\":1424:1446  uint256 public batchID */\n    tag_6:\n      tag_26\n      tag_27\n      jump\t// in\n    tag_26:\n      mload(0x40)\n      tag_28\n      swap2\n      swap1\n      tag_29\n      jump\t// in\n    tag_28:\n      mload(0x40)\n      dup1\n      swap2\n      sub\n      swap1\n      return\n        /* \"contracts/Halal_Supply_Chain.sol\":1077:1206  function checkLoginStatus(address userAddress) public view returns (bool) {... */\n    tag_7:\n      tag_30\n      0x04\n      dup1\n      calldatasize\n      sub\n      dup2\n      add\n      swap1\n      tag_31\n      swap2\n      swap1\n      tag_32\n      jump\t// in\n    tag_31:\n      tag_33\n      jump\t// in\n    tag_30:\n      mload(0x40)\n      tag_34\n      swap2\n      swap1\n      tag_35\n      jump\t// in\n    tag_34:\n      mload(0x40)\n      dup1\n      swap2\n      sub\n      swap1\n      return\n        /* \"contracts/Halal_Supply_Chain.sol\":273:316  mapping(address => UserDetail) public users */\n    tag_8:\n      tag_36\n      0x04\n      dup1\n      calldatasize\n      sub\n      dup2\n      add\n      swap1\n      tag_37\n      swap2\n      swap1\n      tag_32\n      jump\t// in\n    tag_37:\n      tag_38\n      jump\t// in\n    tag_36:\n      mload(0x40)\n      tag_39\n      swap4\n      swap3\n      swap2\n      swap1\n      tag_40\n      jump\t// in\n    tag_39:\n      mload(0x40)\n      dup1\n      swap2\n      sub\n      swap1\n      return\n        /* \"contracts/Halal_Supply_Chain.sol\":1984:2424  function addFlow(... */\n    tag_9:\n      tag_41\n      0x04\n      dup1\n      calldatasize\n      sub\n      dup2\n      add\n      swap1\n      tag_42\n      swap2\n      swap1\n      tag_43\n      jump\t// in\n    tag_42:\n      tag_44\n      jump\t// in\n    tag_41:\n      stop\n        /* \"contracts/Halal_Supply_Chain.sol\":604:834  function login() public {... */\n    tag_10:\n      tag_45\n      tag_46\n      jump\t// in\n    tag_45:\n      stop\n        /* \"contracts/Halal_Supply_Chain.sol\":1378:1417  mapping(uint256 => Flow[]) public flows */\n    tag_11:\n      tag_47\n      0x04\n      dup1\n      calldatasize\n      sub\n      dup2\n      add\n      swap1\n      tag_48\n      swap2\n      swap1\n      tag_49\n      jump\t// in\n    tag_48:\n      tag_50\n      jump\t// in\n    tag_47:\n      mload(0x40)\n      tag_51\n      swap5\n      swap4\n      swap3\n      swap2\n      swap1\n      tag_52\n      jump\t// in\n    tag_51:\n      mload(0x40)\n      dup1\n      swap2\n      sub\n      swap1\n      return\n        /* \"contracts/Halal_Supply_Chain.sol\":1584:1976  function initialiseBatch(... */\n    tag_12:\n      tag_53\n      0x04\n      dup1\n      calldatasize\n      sub\n      dup2\n      add\n      swap1\n      tag_54\n      swap2\n      swap1\n      tag_55\n      jump\t// in\n    tag_54:\n      tag_56\n      jump\t// in\n    tag_53:\n      stop\n        /* \"contracts/Halal_Supply_Chain.sol\":329:596  function registerUser(Role _role) public {... */\n    tag_17:\n        /* \"contracts/Halal_Supply_Chain.sol\":390:395  users */\n      0x00\n        /* \"contracts/Halal_Supply_Chain.sol\":390:407  users[msg.sender] */\n      0x00\n        /* \"contracts/Halal_Supply_Chain.sol\":396:406  msg.sender */\n      caller\n        /* \"contracts/Halal_Supply_Chain.sol\":390:407  users[msg.sender] */\n      0xffffffffffffffffffffffffffffffffffffffff\n      and\n      0xffffffffffffffffffffffffffffffffffffffff\n      and\n      dup2\n      mstore\n      0x20\n      add\n      swap1\n      dup2\n      mstore\n      0x20\n      add\n      0x00\n      keccak256\n        /* \"contracts/Halal_Supply_Chain.sol\":390:420  users[msg.sender].isRegistered */\n      0x00\n      add\n      0x00\n      swap1\n      sload\n      swap1\n      0x0100\n      exp\n      swap1\n      div\n      0xff\n      and\n        /* \"contracts/Halal_Supply_Chain.sol\":389:420  !users[msg.sender].isRegistered */\n      iszero\n        /* \"contracts/Halal_Supply_Chain.sol\":381:448  require(!users[msg.sender].isRegistered, \"User already registered\") */\n      tag_58\n      jumpi\n      mload(0x40)\n      0x08c379a000000000000000000000000000000000000000000000000000000000\n      dup2\n      mstore\n      0x04\n      add\n      tag_59\n      swap1\n      tag_60\n      jump\t// in\n    tag_59:\n      mload(0x40)\n      dup1\n      swap2\n      sub\n      swap1\n      revert\n    tag_58:\n        /* \"contracts/Halal_Supply_Chain.sol\":494:498  true */\n      0x01\n        /* \"contracts/Halal_Supply_Chain.sol\":461:466  users */\n      0x00\n        /* \"contracts/Halal_Supply_Chain.sol\":461:478  users[msg.sender] */\n      0x00\n        /* \"contracts/Halal_Supply_Chain.sol\":467:477  msg.sender */\n      caller\n        /* \"contracts/Halal_Supply_Chain.sol\":461:478  users[msg.sender] */\n      0xffffffffffffffffffffffffffffffffffffffff\n      and\n      0xffffffffffffffffffffffffffffffffffffffff\n      and\n      dup2\n      mstore\n      0x20\n      add\n      swap1\n      dup2\n      mstore\n      0x20\n      add\n      0x00\n      keccak256\n        /* \"contracts/Halal_Supply_Chain.sol\":461:491  users[msg.sender].isRegistered */\n      0x00\n      add\n      0x00\n        /* \"contracts/Halal_Supply_Chain.sol\":461:498  users[msg.sender].isRegistered = true */\n      0x0100\n      exp\n      dup2\n      sload\n      dup2\n      0xff\n      mul\n      not\n      and\n      swap1\n      dup4\n      iszero\n      iszero\n      mul\n      or\n      swap1\n      sstore\n      pop\n        /* \"contracts/Halal_Supply_Chain.sol\":540:545  false */\n      0x00\n        /* \"contracts/Halal_Supply_Chain.sol\":509:514  users */\n      0x00\n        /* \"contracts/Halal_Supply_Chain.sol\":509:526  users[msg.sender] */\n      0x00\n        /* \"contracts/Halal_Supply_Chain.sol\":515:525  msg.sender */\n      caller\n        /* \"contracts/Halal_Supply_Chain.sol\":509:526  users[msg.sender] */\n      0xffffffffffffffffffffffffffffffffffffffff\n      and\n      0xffffffffffffffffffffffffffffffffffffffff\n      and\n      dup2\n      mstore\n      0x20\n      add\n      swap1\n      dup2\n      mstore\n      0x20\n      add\n      0x00\n      keccak256\n        /* \"contracts/Halal_Supply_Chain.sol\":509:537  users[msg.sender].isLoggedIn */\n      0x00\n      add\n      0x01\n        /* \"contracts/Halal_Supply_Chain.sol\":509:545  users[msg.sender].isLoggedIn = false */\n      0x0100\n      exp\n      dup2\n      sload\n      dup2\n      0xff\n      mul\n      not\n      and\n      swap1\n      dup4\n      iszero\n      iszero\n      mul\n      or\n      swap1\n      sstore\n      pop\n        /* \"contracts/Halal_Supply_Chain.sol\":581:586  _role */\n      dup1\n        /* \"contracts/Halal_Supply_Chain.sol\":556:561  users */\n      0x00\n        /* \"contracts/Halal_Supply_Chain.sol\":556:573  users[msg.sender] */\n      0x00\n        /* \"contracts/Halal_Supply_Chain.sol\":562:572  msg.sender */\n      caller\n        /* \"contracts/Halal_Supply_Chain.sol\":556:573  users[msg.sender] */\n      0xffffffffffffffffffffffffffffffffffffffff\n      and\n      0xffffffffffffffffffffffffffffffffffffffff\n      and\n      dup2\n      mstore\n      0x20\n      add\n      swap1\n      dup2\n      mstore\n      0x20\n      add\n      0x00\n      keccak256\n        /* \"contracts/Halal_Supply_Chain.sol\":556:578  users[msg.sender].role */\n      0x00\n      add\n      0x02\n        /* \"contracts/Halal_Supply_Chain.sol\":556:586  users[msg.sender].role = _role */\n      0x0100\n      exp\n      dup2\n      sload\n      dup2\n      0xff\n      mul\n      not\n      and\n      swap1\n      dup4\n      0x04\n      dup2\n      gt\n      iszero\n      tag_61\n      jumpi\n      tag_62\n      tag_63\n      jump\t// in\n    tag_62:\n    tag_61:\n      mul\n      or\n      swap1\n      sstore\n      pop\n        /* \"contracts/Halal_Supply_Chain.sol\":329:596  function registerUser(Role _role) public {... */\n      pop\n      jump\t// out\n        /* \"contracts/Halal_Supply_Chain.sol\":2432:2550  function getAllFlows(uint256 _batchID) external view returns (Flow[] memory) {... */\n    tag_21:\n        /* \"contracts/Halal_Supply_Chain.sol\":2494:2507  Flow[] memory */\n      0x60\n        /* \"contracts/Halal_Supply_Chain.sol\":2527:2532  flows */\n      0x01\n        /* \"contracts/Halal_Supply_Chain.sol\":2527:2542  flows[_batchID] */\n      0x00\n        /* \"contracts/Halal_Supply_Chain.sol\":2533:2541  _batchID */\n      dup4\n        /* \"contracts/Halal_Supply_Chain.sol\":2527:2542  flows[_batchID] */\n      dup2\n      mstore\n      0x20\n      add\n      swap1\n      dup2\n      mstore\n      0x20\n      add\n      0x00\n      keccak256\n        /* \"contracts/Halal_Supply_Chain.sol\":2520:2542  return flows[_batchID] */\n      dup1\n      sload\n      dup1\n      0x20\n      mul\n      0x20\n      add\n      mload(0x40)\n      swap1\n      dup2\n      add\n      0x40\n      mstore\n      dup1\n      swap3\n      swap2\n      swap1\n      dup2\n      dup2\n      mstore\n      0x20\n      add\n      0x00\n      swap1\n    tag_65:\n      dup3\n      dup3\n      lt\n      iszero\n      tag_66\n      jumpi\n      dup4\n      dup3\n      swap1\n      0x00\n      mstore\n      keccak256(0x00, 0x20)\n      swap1\n      0x04\n      mul\n      add\n      mload(0x40)\n      dup1\n      0x80\n      add\n      0x40\n      mstore\n      swap1\n      dup2\n      0x00\n      dup3\n      add\n      0x00\n      swap1\n      sload\n      swap1\n      0x0100\n      exp\n      swap1\n      div\n      0xffffffffffffffffffffffffffffffffffffffff\n      and\n      0xffffffffffffffffffffffffffffffffffffffff\n      and\n      0xffffffffffffffffffffffffffffffffffffffff\n      and\n      dup2\n      mstore\n      0x20\n      add\n      0x01\n      dup3\n      add\n      sload\n      dup2\n      mstore\n      0x20\n      add\n      0x02\n      dup3\n      add\n      dup1\n      sload\n      tag_68\n      swap1\n      tag_69\n      jump\t// in\n    tag_68:\n      dup1\n      0x1f\n      add\n      0x20\n      dup1\n      swap2\n      div\n      mul\n      0x20\n      add\n      mload(0x40)\n      swap1\n      dup2\n      add\n      0x40\n      mstore\n      dup1\n      swap3\n      swap2\n      swap1\n      dup2\n      dup2\n      mstore\n      0x20\n      add\n      dup3\n      dup1\n      sload\n      tag_70\n      swap1\n      tag_69\n      jump\t// in\n    tag_70:\n      dup1\n      iszero\n      tag_71\n      jumpi\n      dup1\n      0x1f\n      lt\n      tag_72\n      jumpi\n      0x0100\n      dup1\n      dup4\n      sload\n      div\n      mul\n      dup4\n      mstore\n      swap2\n      0x20\n      add\n      swap2\n      jump(tag_71)\n    tag_72:\n      dup3\n      add\n      swap2\n      swap1\n      0x00\n      mstore\n      keccak256(0x00, 0x20)\n      swap1\n    tag_73:\n      dup2\n      sload\n      dup2\n      mstore\n      swap1\n      0x01\n      add\n      swap1\n      0x20\n      add\n      dup1\n      dup4\n      gt\n      tag_73\n      jumpi\n      dup3\n      swap1\n      sub\n      0x1f\n      and\n      dup3\n      add\n      swap2\n    tag_71:\n      pop\n      pop\n      pop\n      pop\n      pop\n      dup2\n      mstore\n      0x20\n      add\n      0x03\n      dup3\n      add\n      dup1\n      sload\n      tag_74\n      swap1\n      tag_69\n      jump\t// in\n    tag_74:\n      dup1\n      0x1f\n      add\n      0x20\n      dup1\n      swap2\n      div\n      mul\n      0x20\n      add\n      mload(0x40)\n      swap1\n      dup2\n      add\n      0x40\n      mstore\n      dup1\n      swap3\n      swap2\n      swap1\n      dup2\n      dup2\n      mstore\n      0x20\n      add\n      dup3\n      dup1\n      sload\n      tag_75\n      swap1\n      tag_69\n      jump\t// in\n    tag_75:\n      dup1\n      iszero\n      tag_76\n      jumpi\n      dup1\n      0x1f\n      lt\n      tag_77\n      jumpi\n      0x0100\n      dup1\n      dup4\n      sload\n      div\n      mul\n      dup4\n      mstore\n      swap2\n      0x20\n      add\n      swap2\n      jump(tag_76)\n    tag_77:\n      dup3\n      add\n      swap2\n      swap1\n      0x00\n      mstore\n      keccak256(0x00, 0x20)\n      swap1\n    tag_78:\n      dup2\n      sload\n      dup2\n      mstore\n      swap1\n      0x01\n      add\n      swap1\n      0x20\n      add\n      dup1\n      dup4\n      gt\n      tag_78\n      jumpi\n      dup3\n      swap1\n      sub\n      0x1f\n      and\n      dup3\n      add\n      swap2\n    tag_76:\n      pop\n      pop\n      pop\n      pop\n      pop\n      dup2\n      mstore\n      pop\n      pop\n      dup2\n      mstore\n      0x20\n      add\n      swap1\n      0x01\n      add\n      swap1\n      jump(tag_65)\n    tag_66:\n      pop\n      pop\n      pop\n      pop\n      swap1\n      pop\n        /* \"contracts/Halal_Supply_Chain.sol\":2432:2550  function getAllFlows(uint256 _batchID) external view returns (Flow[] memory) {... */\n      swap2\n      swap1\n      pop\n      jump\t// out\n        /* \"contracts/Halal_Supply_Chain.sol\":842:1069  function logout() public {... */\n    tag_25:\n        /* \"contracts/Halal_Supply_Chain.sol\":886:891  users */\n      0x00\n        /* \"contracts/Halal_Supply_Chain.sol\":886:903  users[msg.sender] */\n      0x00\n        /* \"contracts/Halal_Supply_Chain.sol\":892:902  msg.sender */\n      caller\n        /* \"contracts/Halal_Supply_Chain.sol\":886:903  users[msg.sender] */\n      0xffffffffffffffffffffffffffffffffffffffff\n      and\n      0xffffffffffffffffffffffffffffffffffffffff\n      and\n      dup2\n      mstore\n      0x20\n      add\n      swap1\n      dup2\n      mstore\n      0x20\n      add\n      0x00\n      keccak256\n        /* \"contracts/Halal_Supply_Chain.sol\":886:916  users[msg.sender].isRegistered */\n      0x00\n      add\n      0x00\n      swap1\n      sload\n      swap1\n      0x0100\n      exp\n      swap1\n      div\n      0xff\n      and\n        /* \"contracts/Halal_Supply_Chain.sol\":878:940  require(users[msg.sender].isRegistered, \"User not registered\") */\n      tag_80\n      jumpi\n      mload(0x40)\n      0x08c379a000000000000000000000000000000000000000000000000000000000\n      dup2\n      mstore\n      0x04\n      add\n      tag_81\n      swap1\n      tag_82\n      jump\t// in\n    tag_81:\n      mload(0x40)\n      dup1\n      swap2\n      sub\n      swap1\n      revert\n    tag_80:\n        /* \"contracts/Halal_Supply_Chain.sol\":959:964  users */\n      0x00\n        /* \"contracts/Halal_Supply_Chain.sol\":959:976  users[msg.sender] */\n      0x00\n        /* \"contracts/Halal_Supply_Chain.sol\":965:975  msg.sender */\n      caller\n        /* \"contracts/Halal_Supply_Chain.sol\":959:976  users[msg.sender] */\n      0xffffffffffffffffffffffffffffffffffffffff\n      and\n      0xffffffffffffffffffffffffffffffffffffffff\n      and\n      dup2\n      mstore\n      0x20\n      add\n      swap1\n      dup2\n      mstore\n      0x20\n      add\n      0x00\n      keccak256\n        /* \"contracts/Halal_Supply_Chain.sol\":959:987  users[msg.sender].isLoggedIn */\n      0x00\n      add\n      0x01\n      swap1\n      sload\n      swap1\n      0x0100\n      exp\n      swap1\n      div\n      0xff\n      and\n        /* \"contracts/Halal_Supply_Chain.sol\":951:1010  require(users[msg.sender].isLoggedIn, \"User not logged in\") */\n      tag_83\n      jumpi\n      mload(0x40)\n      0x08c379a000000000000000000000000000000000000000000000000000000000\n      dup2\n      mstore\n      0x04\n      add\n      tag_84\n      swap1\n      tag_85\n      jump\t// in\n    tag_84:\n      mload(0x40)\n      dup1\n      swap2\n      sub\n      swap1\n      revert\n    tag_83:\n        /* \"contracts/Halal_Supply_Chain.sol\":1054:1059  false */\n      0x00\n        /* \"contracts/Halal_Supply_Chain.sol\":1023:1028  users */\n      0x00\n        /* \"contracts/Halal_Supply_Chain.sol\":1023:1040  users[msg.sender] */\n      0x00\n        /* \"contracts/Halal_Supply_Chain.sol\":1029:1039  msg.sender */\n      caller\n        /* \"contracts/Halal_Supply_Chain.sol\":1023:1040  users[msg.sender] */\n      0xffffffffffffffffffffffffffffffffffffffff\n      and\n      0xffffffffffffffffffffffffffffffffffffffff\n      and\n      dup2\n      mstore\n      0x20\n      add\n      swap1\n      dup2\n      mstore\n      0x20\n      add\n      0x00\n      keccak256\n        /* \"contracts/Halal_Supply_Chain.sol\":1023:1051  users[msg.sender].isLoggedIn */\n      0x00\n      add\n      0x01\n        /* \"contracts/Halal_Supply_Chain.sol\":1023:1059  users[msg.sender].isLoggedIn = false */\n      0x0100\n      exp\n      dup2\n      sload\n      dup2\n      0xff\n      mul\n      not\n      and\n      swap1\n      dup4\n      iszero\n      iszero\n      mul\n      or\n      swap1\n      sstore\n      pop\n        /* \"contracts/Halal_Supply_Chain.sol\":842:1069  function logout() public {... */\n      jump\t// out\n        /* \"contracts/Halal_Supply_Chain.sol\":1424:1446  uint256 public batchID */\n    tag_27:\n      sload(0x02)\n      dup2\n      jump\t// out\n        /* \"contracts/Halal_Supply_Chain.sol\":1077:1206  function checkLoginStatus(address userAddress) public view returns (bool) {... */\n    tag_33:\n        /* \"contracts/Halal_Supply_Chain.sol\":1145:1149  bool */\n      0x00\n        /* \"contracts/Halal_Supply_Chain.sol\":1169:1174  users */\n      0x00\n        /* \"contracts/Halal_Supply_Chain.sol\":1169:1187  users[userAddress] */\n      0x00\n        /* \"contracts/Halal_Supply_Chain.sol\":1175:1186  userAddress */\n      dup4\n        /* \"contracts/Halal_Supply_Chain.sol\":1169:1187  users[userAddress] */\n      0xffffffffffffffffffffffffffffffffffffffff\n      and\n      0xffffffffffffffffffffffffffffffffffffffff\n      and\n      dup2\n      mstore\n      0x20\n      add\n      swap1\n      dup2\n      mstore\n      0x20\n      add\n      0x00\n      keccak256\n        /* \"contracts/Halal_Supply_Chain.sol\":1169:1198  users[userAddress].isLoggedIn */\n      0x00\n      add\n      0x01\n      swap1\n      sload\n      swap1\n      0x0100\n      exp\n      swap1\n      div\n      0xff\n      and\n        /* \"contracts/Halal_Supply_Chain.sol\":1162:1198  return users[userAddress].isLoggedIn */\n      swap1\n      pop\n        /* \"contracts/Halal_Supply_Chain.sol\":1077:1206  function checkLoginStatus(address userAddress) public view returns (bool) {... */\n      swap2\n      swap1\n      pop\n      jump\t// out\n        /* \"contracts/Halal_Supply_Chain.sol\":273:316  mapping(address => UserDetail) public users */\n    tag_38:\n      mstore(0x20, 0x00)\n      dup1\n      0x00\n      mstore\n      keccak256(0x00, 0x40)\n      0x00\n      swap2\n      pop\n      swap1\n      pop\n      dup1\n      0x00\n      add\n      0x00\n      swap1\n      sload\n      swap1\n      0x0100\n      exp\n      swap1\n      div\n      0xff\n      and\n      swap1\n      dup1\n      0x00\n      add\n      0x01\n      swap1\n      sload\n      swap1\n      0x0100\n      exp\n      swap1\n      div\n      0xff\n      and\n      swap1\n      dup1\n      0x00\n      add\n      0x02\n      swap1\n      sload\n      swap1\n      0x0100\n      exp\n      swap1\n      div\n      0xff\n      and\n      swap1\n      pop\n      dup4\n      jump\t// out\n        /* \"contracts/Halal_Supply_Chain.sol\":1984:2424  function addFlow(... */\n    tag_44:\n        /* \"contracts/Halal_Supply_Chain.sol\":2151:2152  0 */\n      0x00\n        /* \"contracts/Halal_Supply_Chain.sol\":2126:2131  flows */\n      0x01\n        /* \"contracts/Halal_Supply_Chain.sol\":2126:2141  flows[_batchID] */\n      0x00\n        /* \"contracts/Halal_Supply_Chain.sol\":2132:2140  _batchID */\n      dup6\n        /* \"contracts/Halal_Supply_Chain.sol\":2126:2141  flows[_batchID] */\n      dup2\n      mstore\n      0x20\n      add\n      swap1\n      dup2\n      mstore\n      0x20\n      add\n      0x00\n      keccak256\n        /* \"contracts/Halal_Supply_Chain.sol\":2126:2148  flows[_batchID].length */\n      dup1\n      sload\n      swap1\n      pop\n        /* \"contracts/Halal_Supply_Chain.sol\":2126:2152  flows[_batchID].length > 0 */\n      gt\n        /* \"contracts/Halal_Supply_Chain.sol\":2118:2177  require(flows[_batchID].length > 0, \"Batch does not exist\") */\n      tag_88\n      jumpi\n      mload(0x40)\n      0x08c379a000000000000000000000000000000000000000000000000000000000\n      dup2\n      mstore\n      0x04\n      add\n      tag_89\n      swap1\n      tag_90\n      jump\t// in\n    tag_89:\n      mload(0x40)\n      dup1\n      swap2\n      sub\n      swap1\n      revert\n    tag_88:\n        /* \"contracts/Halal_Supply_Chain.sol\":2190:2195  flows */\n      0x01\n        /* \"contracts/Halal_Supply_Chain.sol\":2190:2205  flows[_batchID] */\n      0x00\n        /* \"contracts/Halal_Supply_Chain.sol\":2196:2204  _batchID */\n      dup5\n        /* \"contracts/Halal_Supply_Chain.sol\":2190:2205  flows[_batchID] */\n      dup2\n      mstore\n      0x20\n      add\n      swap1\n      dup2\n      mstore\n      0x20\n      add\n      0x00\n      keccak256\n        /* \"contracts/Halal_Supply_Chain.sol\":2225:2405  Flow({... */\n      mload(0x40)\n      dup1\n      0x80\n      add\n      0x40\n      mstore\n      dup1\n        /* \"contracts/Halal_Supply_Chain.sol\":2379:2389  msg.sender */\n      caller\n        /* \"contracts/Halal_Supply_Chain.sol\":2225:2405  Flow({... */\n      0xffffffffffffffffffffffffffffffffffffffff\n      and\n      dup2\n      mstore\n      0x20\n      add\n        /* \"contracts/Halal_Supply_Chain.sol\":2260:2275  block.timestamp */\n      timestamp\n        /* \"contracts/Halal_Supply_Chain.sol\":2225:2405  Flow({... */\n      dup2\n      mstore\n      0x20\n      add\n        /* \"contracts/Halal_Supply_Chain.sol\":2304:2313  _location */\n      dup5\n        /* \"contracts/Halal_Supply_Chain.sol\":2225:2405  Flow({... */\n      dup2\n      mstore\n      0x20\n      add\n        /* \"contracts/Halal_Supply_Chain.sol\":2341:2349  _content */\n      dup4\n        /* \"contracts/Halal_Supply_Chain.sol\":2225:2405  Flow({... */\n      dup2\n      mstore\n      pop\n        /* \"contracts/Halal_Supply_Chain.sol\":2190:2416  flows[_batchID].push(... */\n      swap1\n      dup1\n      0x01\n      dup2\n      sload\n      add\n      dup1\n      dup3\n      sstore\n      dup1\n      swap2\n      pop\n      pop\n      0x01\n      swap1\n      sub\n      swap1\n      0x00\n      mstore\n      keccak256(0x00, 0x20)\n      swap1\n      0x04\n      mul\n      add\n      0x00\n      swap1\n      swap2\n      swap1\n      swap2\n      swap1\n      swap2\n      pop\n      0x00\n      dup3\n      add\n      mload\n      dup2\n      0x00\n      add\n      exp(0x0100, 0x00)\n      dup2\n      sload\n      dup2\n      0xffffffffffffffffffffffffffffffffffffffff\n      mul\n      not\n      and\n      swap1\n      dup4\n      0xffffffffffffffffffffffffffffffffffffffff\n      and\n      mul\n      or\n      swap1\n      sstore\n      pop\n      0x20\n      dup3\n      add\n      mload\n      dup2\n      0x01\n      add\n      sstore\n      0x40\n      dup3\n      add\n      mload\n      dup2\n      0x02\n      add\n      swap1\n      dup2\n      tag_92\n      swap2\n      swap1\n      tag_93\n      jump\t// in\n    tag_92:\n      pop\n      0x60\n      dup3\n      add\n      mload\n      dup2\n      0x03\n      add\n      swap1\n      dup2\n      tag_94\n      swap2\n      swap1\n      tag_93\n      jump\t// in\n    tag_94:\n      pop\n      pop\n      pop\n        /* \"contracts/Halal_Supply_Chain.sol\":1984:2424  function addFlow(... */\n      pop\n      pop\n      pop\n      jump\t// out\n        /* \"contracts/Halal_Supply_Chain.sol\":604:834  function login() public {... */\n    tag_46:\n        /* \"contracts/Halal_Supply_Chain.sol\":647:652  users */\n      0x00\n        /* \"contracts/Halal_Supply_Chain.sol\":647:664  users[msg.sender] */\n      0x00\n        /* \"contracts/Halal_Supply_Chain.sol\":653:663  msg.sender */\n      caller\n        /* \"contracts/Halal_Supply_Chain.sol\":647:664  users[msg.sender] */\n      0xffffffffffffffffffffffffffffffffffffffff\n      and\n      0xffffffffffffffffffffffffffffffffffffffff\n      and\n      dup2\n      mstore\n      0x20\n      add\n      swap1\n      dup2\n      mstore\n      0x20\n      add\n      0x00\n      keccak256\n        /* \"contracts/Halal_Supply_Chain.sol\":647:677  users[msg.sender].isRegistered */\n      0x00\n      add\n      0x00\n      swap1\n      sload\n      swap1\n      0x0100\n      exp\n      swap1\n      div\n      0xff\n      and\n        /* \"contracts/Halal_Supply_Chain.sol\":639:701  require(users[msg.sender].isRegistered, \"User not registered\") */\n      tag_96\n      jumpi\n      mload(0x40)\n      0x08c379a000000000000000000000000000000000000000000000000000000000\n      dup2\n      mstore\n      0x04\n      add\n      tag_97\n      swap1\n      tag_82\n      jump\t// in\n    tag_97:\n      mload(0x40)\n      dup1\n      swap2\n      sub\n      swap1\n      revert\n    tag_96:\n        /* \"contracts/Halal_Supply_Chain.sol\":721:726  users */\n      0x00\n        /* \"contracts/Halal_Supply_Chain.sol\":721:738  users[msg.sender] */\n      0x00\n        /* \"contracts/Halal_Supply_Chain.sol\":727:737  msg.sender */\n      caller\n        /* \"contracts/Halal_Supply_Chain.sol\":721:738  users[msg.sender] */\n      0xffffffffffffffffffffffffffffffffffffffff\n      and\n      0xffffffffffffffffffffffffffffffffffffffff\n      and\n      dup2\n      mstore\n      0x20\n      add\n      swap1\n      dup2\n      mstore\n      0x20\n      add\n      0x00\n      keccak256\n        /* \"contracts/Halal_Supply_Chain.sol\":721:749  users[msg.sender].isLoggedIn */\n      0x00\n      add\n      0x01\n      swap1\n      sload\n      swap1\n      0x0100\n      exp\n      swap1\n      div\n      0xff\n      and\n        /* \"contracts/Halal_Supply_Chain.sol\":720:749  !users[msg.sender].isLoggedIn */\n      iszero\n        /* \"contracts/Halal_Supply_Chain.sol\":712:776  require(!users[msg.sender].isLoggedIn, \"User already logged in\") */\n      tag_98\n      jumpi\n      mload(0x40)\n      0x08c379a000000000000000000000000000000000000000000000000000000000\n      dup2\n      mstore\n      0x04\n      add\n      tag_99\n      swap1\n      tag_100\n      jump\t// in\n    tag_99:\n      mload(0x40)\n      dup1\n      swap2\n      sub\n      swap1\n      revert\n    tag_98:\n        /* \"contracts/Halal_Supply_Chain.sol\":820:824  true */\n      0x01\n        /* \"contracts/Halal_Supply_Chain.sol\":789:794  users */\n      0x00\n        /* \"contracts/Halal_Supply_Chain.sol\":789:806  users[msg.sender] */\n      0x00\n        /* \"contracts/Halal_Supply_Chain.sol\":795:805  msg.sender */\n      caller\n        /* \"contracts/Halal_Supply_Chain.sol\":789:806  users[msg.sender] */\n      0xffffffffffffffffffffffffffffffffffffffff\n      and\n      0xffffffffffffffffffffffffffffffffffffffff\n      and\n      dup2\n      mstore\n      0x20\n      add\n      swap1\n      dup2\n      mstore\n      0x20\n      add\n      0x00\n      keccak256\n        /* \"contracts/Halal_Supply_Chain.sol\":789:817  users[msg.sender].isLoggedIn */\n      0x00\n      add\n      0x01\n        /* \"contracts/Halal_Supply_Chain.sol\":789:824  users[msg.sender].isLoggedIn = true */\n      0x0100\n      exp\n      dup2\n      sload\n      dup2\n      0xff\n      mul\n      not\n      and\n      swap1\n      dup4\n      iszero\n      iszero\n      mul\n      or\n      swap1\n      sstore\n      pop\n        /* \"contracts/Halal_Supply_Chain.sol\":604:834  function login() public {... */\n      jump\t// out\n        /* \"contracts/Halal_Supply_Chain.sol\":1378:1417  mapping(uint256 => Flow[]) public flows */\n    tag_50:\n      mstore(0x20, 0x01)\n      dup2\n      0x00\n      mstore\n      keccak256(0x00, 0x40)\n      dup2\n      dup2\n      sload\n      dup2\n      lt\n      tag_101\n      jumpi\n      0x00\n      dup1\n      revert\n    tag_101:\n      swap1\n      0x00\n      mstore\n      keccak256(0x00, 0x20)\n      swap1\n      0x04\n      mul\n      add\n      0x00\n      swap2\n      pop\n      swap2\n      pop\n      pop\n      dup1\n      0x00\n      add\n      0x00\n      swap1\n      sload\n      swap1\n      0x0100\n      exp\n      swap1\n      div\n      0xffffffffffffffffffffffffffffffffffffffff\n      and\n      swap1\n      dup1\n      0x01\n      add\n      sload\n      swap1\n      dup1\n      0x02\n      add\n      dup1\n      sload\n      tag_103\n      swap1\n      tag_69\n      jump\t// in\n    tag_103:\n      dup1\n      0x1f\n      add\n      0x20\n      dup1\n      swap2\n      div\n      mul\n      0x20\n      add\n      mload(0x40)\n      swap1\n      dup2\n      add\n      0x40\n      mstore\n      dup1\n      swap3\n      swap2\n      swap1\n      dup2\n      dup2\n      mstore\n      0x20\n      add\n      dup3\n      dup1\n      sload\n      tag_104\n      swap1\n      tag_69\n      jump\t// in\n    tag_104:\n      dup1\n      iszero\n      tag_105\n      jumpi\n      dup1\n      0x1f\n      lt\n      tag_106\n      jumpi\n      0x0100\n      dup1\n      dup4\n      sload\n      div\n      mul\n      dup4\n      mstore\n      swap2\n      0x20\n      add\n      swap2\n      jump(tag_105)\n    tag_106:\n      dup3\n      add\n      swap2\n      swap1\n      0x00\n      mstore\n      keccak256(0x00, 0x20)\n      swap1\n    tag_107:\n      dup2\n      sload\n      dup2\n      mstore\n      swap1\n      0x01\n      add\n      swap1\n      0x20\n      add\n      dup1\n      dup4\n      gt\n      tag_107\n      jumpi\n      dup3\n      swap1\n      sub\n      0x1f\n      and\n      dup3\n      add\n      swap2\n    tag_105:\n      pop\n      pop\n      pop\n      pop\n      pop\n      swap1\n      dup1\n      0x03\n      add\n      dup1\n      sload\n      tag_108\n      swap1\n      tag_69\n      jump\t// in\n    tag_108:\n      dup1\n      0x1f\n      add\n      0x20\n      dup1\n      swap2\n      div\n      mul\n      0x20\n      add\n      mload(0x40)\n      swap1\n      dup2\n      add\n      0x40\n      mstore\n      dup1\n      swap3\n      swap2\n      swap1\n      dup2\n      dup2\n      mstore\n      0x20\n      add\n      dup3\n      dup1\n      sload\n      tag_109\n      swap1\n      tag_69\n      jump\t// in\n    tag_109:\n      dup1\n      iszero\n      tag_110\n      jumpi\n      dup1\n      0x1f\n      lt\n      tag_111\n      jumpi\n      0x0100\n      dup1\n      dup4\n      sload\n      div\n      mul\n      dup4\n      mstore\n      swap2\n      0x20\n      add\n      swap2\n      jump(tag_110)\n    tag_111:\n      dup3\n      add\n      swap2\n      swap1\n      0x00\n      mstore\n      keccak256(0x00, 0x20)\n      swap1\n    tag_112:\n      dup2\n      sload\n      dup2\n      mstore\n      swap1\n      0x01\n      add\n      swap1\n      0x20\n      add\n      dup1\n      dup4\n      gt\n      tag_112\n      jumpi\n      dup3\n      swap1\n      sub\n      0x1f\n      and\n      dup3\n      add\n      swap2\n    tag_110:\n      pop\n      pop\n      pop\n      pop\n      pop\n      swap1\n      pop\n      dup5\n      jump\t// out\n        /* \"contracts/Halal_Supply_Chain.sol\":1584:1976  function initialiseBatch(... */\n    tag_56:\n        /* \"contracts/Halal_Supply_Chain.sol\":1521:1532  Role.Farmer */\n      0x01\n        /* \"contracts/Halal_Supply_Chain.sol\":1495:1532  users[msg.sender].role == Role.Farmer */\n      0x04\n      dup2\n      gt\n      iszero\n      tag_114\n      jumpi\n      tag_115\n      tag_63\n      jump\t// in\n    tag_115:\n    tag_114:\n        /* \"contracts/Halal_Supply_Chain.sol\":1495:1500  users */\n      0x00\n        /* \"contracts/Halal_Supply_Chain.sol\":1495:1512  users[msg.sender] */\n      0x00\n        /* \"contracts/Halal_Supply_Chain.sol\":1501:1511  msg.sender */\n      caller\n        /* \"contracts/Halal_Supply_Chain.sol\":1495:1512  users[msg.sender] */\n      0xffffffffffffffffffffffffffffffffffffffff\n      and\n      0xffffffffffffffffffffffffffffffffffffffff\n      and\n      dup2\n      mstore\n      0x20\n      add\n      swap1\n      dup2\n      mstore\n      0x20\n      add\n      0x00\n      keccak256\n        /* \"contracts/Halal_Supply_Chain.sol\":1495:1517  users[msg.sender].role */\n      0x00\n      add\n      0x02\n      swap1\n      sload\n      swap1\n      0x0100\n      exp\n      swap1\n      div\n      0xff\n      and\n        /* \"contracts/Halal_Supply_Chain.sol\":1495:1532  users[msg.sender].role == Role.Farmer */\n      0x04\n      dup2\n      gt\n      iszero\n      tag_116\n      jumpi\n      tag_117\n      tag_63\n      jump\t// in\n    tag_117:\n    tag_116:\n      eq\n        /* \"contracts/Halal_Supply_Chain.sol\":1487:1556  require(users[msg.sender].role == Role.Farmer, \"Only farmer allowed\") */\n      tag_118\n      jumpi\n      mload(0x40)\n      0x08c379a000000000000000000000000000000000000000000000000000000000\n      dup2\n      mstore\n      0x04\n      add\n      tag_119\n      swap1\n      tag_120\n      jump\t// in\n    tag_119:\n      mload(0x40)\n      dup1\n      swap2\n      sub\n      swap1\n      revert\n    tag_118:\n        /* \"contracts/Halal_Supply_Chain.sol\":1719:1724  flows */\n      0x01\n        /* \"contracts/Halal_Supply_Chain.sol\":1719:1733  flows[batchID] */\n      0x00\n        /* \"contracts/Halal_Supply_Chain.sol\":1725:1732  batchID */\n      sload(0x02)\n        /* \"contracts/Halal_Supply_Chain.sol\":1719:1733  flows[batchID] */\n      dup2\n      mstore\n      0x20\n      add\n      swap1\n      dup2\n      mstore\n      0x20\n      add\n      0x00\n      keccak256\n        /* \"contracts/Halal_Supply_Chain.sol\":1753:1933  Flow({... */\n      mload(0x40)\n      dup1\n      0x80\n      add\n      0x40\n      mstore\n      dup1\n        /* \"contracts/Halal_Supply_Chain.sol\":1907:1917  msg.sender */\n      caller\n        /* \"contracts/Halal_Supply_Chain.sol\":1753:1933  Flow({... */\n      0xffffffffffffffffffffffffffffffffffffffff\n      and\n      dup2\n      mstore\n      0x20\n      add\n        /* \"contracts/Halal_Supply_Chain.sol\":1788:1803  block.timestamp */\n      timestamp\n        /* \"contracts/Halal_Supply_Chain.sol\":1753:1933  Flow({... */\n      dup2\n      mstore\n      0x20\n      add\n        /* \"contracts/Halal_Supply_Chain.sol\":1832:1841  _location */\n      dup5\n        /* \"contracts/Halal_Supply_Chain.sol\":1753:1933  Flow({... */\n      dup2\n      mstore\n      0x20\n      add\n        /* \"contracts/Halal_Supply_Chain.sol\":1869:1877  _content */\n      dup4\n        /* \"contracts/Halal_Supply_Chain.sol\":1753:1933  Flow({... */\n      dup2\n      mstore\n      pop\n        /* \"contracts/Halal_Supply_Chain.sol\":1719:1944  flows[batchID].push(... */\n      swap1\n      dup1\n      0x01\n      dup2\n      sload\n      add\n      dup1\n      dup3\n      sstore\n      dup1\n      swap2\n      pop\n      pop\n      0x01\n      swap1\n      sub\n      swap1\n      0x00\n      mstore\n      keccak256(0x00, 0x20)\n      swap1\n      0x04\n      mul\n      add\n      0x00\n      swap1\n      swap2\n      swap1\n      swap2\n      swap1\n      swap2\n      pop\n      0x00\n      dup3\n      add\n      mload\n      dup2\n      0x00\n      add\n      exp(0x0100, 0x00)\n      dup2\n      sload\n      dup2\n      0xffffffffffffffffffffffffffffffffffffffff\n      mul\n      not\n      and\n      swap1\n      dup4\n      0xffffffffffffffffffffffffffffffffffffffff\n      and\n      mul\n      or\n      swap1\n      sstore\n      pop\n      0x20\n      dup3\n      add\n      mload\n      dup2\n      0x01\n      add\n      sstore\n      0x40\n      dup3\n      add\n      mload\n      dup2\n      0x02\n      add\n      swap1\n      dup2\n      tag_123\n      swap2\n      swap1\n      tag_93\n      jump\t// in\n    tag_123:\n      pop\n      0x60\n      dup3\n      add\n      mload\n      dup2\n      0x03\n      add\n      swap1\n      dup2\n      tag_124\n      swap2\n      swap1\n      tag_93\n      jump\t// in\n    tag_124:\n      pop\n      pop\n      pop\n        /* \"contracts/Halal_Supply_Chain.sol\":1955:1962  batchID */\n      0x02\n      0x00\n        /* \"contracts/Halal_Supply_Chain.sol\":1955:1964  batchID++ */\n      dup2\n      sload\n      dup1\n      swap3\n      swap2\n      swap1\n      tag_125\n      swap1\n      tag_126\n      jump\t// in\n    tag_125:\n      swap2\n      swap1\n      pop\n      sstore\n      pop\n        /* \"contracts/Halal_Supply_Chain.sol\":1584:1976  function initialiseBatch(... */\n      pop\n      pop\n      jump\t// out\n        /* \"#utility.yul\":7:82   */\n    tag_127:\n        /* \"#utility.yul\":40:46   */\n      0x00\n        /* \"#utility.yul\":73:75   */\n      0x40\n        /* \"#utility.yul\":67:76   */\n      mload\n        /* \"#utility.yul\":57:76   */\n      swap1\n      pop\n        /* \"#utility.yul\":7:82   */\n      swap1\n      jump\t// out\n        /* \"#utility.yul\":88:205   */\n    tag_128:\n        /* \"#utility.yul\":197:198   */\n      0x00\n        /* \"#utility.yul\":194:195   */\n      0x00\n        /* \"#utility.yul\":187:199   */\n      revert\n        /* \"#utility.yul\":211:328   */\n    tag_129:\n        /* \"#utility.yul\":320:321   */\n      0x00\n        /* \"#utility.yul\":317:318   */\n      0x00\n        /* \"#utility.yul\":310:322   */\n      revert\n        /* \"#utility.yul\":334:439   */\n    tag_130:\n        /* \"#utility.yul\":413:414   */\n      0x05\n        /* \"#utility.yul\":406:411   */\n      dup2\n        /* \"#utility.yul\":403:415   */\n      lt\n        /* \"#utility.yul\":393:433   */\n      tag_206\n      jumpi\n        /* \"#utility.yul\":429:430   */\n      0x00\n        /* \"#utility.yul\":426:427   */\n      0x00\n        /* \"#utility.yul\":419:431   */\n      revert\n        /* \"#utility.yul\":393:433   */\n    tag_206:\n        /* \"#utility.yul\":334:439   */\n      pop\n      jump\t// out\n        /* \"#utility.yul\":445:596   */\n    tag_131:\n        /* \"#utility.yul\":497:502   */\n      0x00\n        /* \"#utility.yul\":535:541   */\n      dup2\n        /* \"#utility.yul\":522:542   */\n      calldataload\n        /* \"#utility.yul\":513:542   */\n      swap1\n      pop\n        /* \"#utility.yul\":551:590   */\n      tag_208\n        /* \"#utility.yul\":584:589   */\n      dup2\n        /* \"#utility.yul\":551:590   */\n      tag_130\n      jump\t// in\n    tag_208:\n        /* \"#utility.yul\":445:596   */\n      swap3\n      swap2\n      pop\n      pop\n      jump\t// out\n        /* \"#utility.yul\":602:943   */\n    tag_16:\n        /* \"#utility.yul\":667:673   */\n      0x00\n        /* \"#utility.yul\":716:718   */\n      0x20\n        /* \"#utility.yul\":704:713   */\n      dup3\n        /* \"#utility.yul\":695:702   */\n      dup5\n        /* \"#utility.yul\":691:714   */\n      sub\n        /* \"#utility.yul\":687:719   */\n      slt\n        /* \"#utility.yul\":684:803   */\n      iszero\n      tag_210\n      jumpi\n        /* \"#utility.yul\":722:801   */\n      tag_211\n      tag_128\n      jump\t// in\n    tag_211:\n        /* \"#utility.yul\":684:803   */\n    tag_210:\n        /* \"#utility.yul\":842:843   */\n      0x00\n        /* \"#utility.yul\":867:926   */\n      tag_212\n        /* \"#utility.yul\":918:925   */\n      dup5\n        /* \"#utility.yul\":909:915   */\n      dup3\n        /* \"#utility.yul\":898:907   */\n      dup6\n        /* \"#utility.yul\":894:916   */\n      add\n        /* \"#utility.yul\":867:926   */\n      tag_131\n      jump\t// in\n    tag_212:\n        /* \"#utility.yul\":857:926   */\n      swap2\n      pop\n        /* \"#utility.yul\":813:936   */\n      pop\n        /* \"#utility.yul\":602:943   */\n      swap3\n      swap2\n      pop\n      pop\n      jump\t// out\n        /* \"#utility.yul\":949:1026   */\n    tag_132:\n        /* \"#utility.yul\":986:993   */\n      0x00\n        /* \"#utility.yul\":1015:1020   */\n      dup2\n        /* \"#utility.yul\":1004:1020   */\n      swap1\n      pop\n        /* \"#utility.yul\":949:1026   */\n      swap2\n      swap1\n      pop\n      jump\t// out\n        /* \"#utility.yul\":1032:1154   */\n    tag_133:\n        /* \"#utility.yul\":1105:1129   */\n      tag_215\n        /* \"#utility.yul\":1123:1128   */\n      dup2\n        /* \"#utility.yul\":1105:1129   */\n      tag_132\n      jump\t// in\n    tag_215:\n        /* \"#utility.yul\":1098:1103   */\n      dup2\n        /* \"#utility.yul\":1095:1130   */\n      eq\n        /* \"#utility.yul\":1085:1148   */\n      tag_216\n      jumpi\n        /* \"#utility.yul\":1144:1145   */\n      0x00\n        /* \"#utility.yul\":1141:1142   */\n      0x00\n        /* \"#utility.yul\":1134:1146   */\n      revert\n        /* \"#utility.yul\":1085:1148   */\n    tag_216:\n        /* \"#utility.yul\":1032:1154   */\n      pop\n      jump\t// out\n        /* \"#utility.yul\":1160:1299   */\n    tag_134:\n        /* \"#utility.yul\":1206:1211   */\n      0x00\n        /* \"#utility.yul\":1244:1250   */\n      dup2\n        /* \"#utility.yul\":1231:1251   */\n      calldataload\n        /* \"#utility.yul\":1222:1251   */\n      swap1\n      pop\n        /* \"#utility.yul\":1260:1293   */\n      tag_218\n        /* \"#utility.yul\":1287:1292   */\n      dup2\n        /* \"#utility.yul\":1260:1293   */\n      tag_133\n      jump\t// in\n    tag_218:\n        /* \"#utility.yul\":1160:1299   */\n      swap3\n      swap2\n      pop\n      pop\n      jump\t// out\n        /* \"#utility.yul\":1305:1634   */\n    tag_20:\n        /* \"#utility.yul\":1364:1370   */\n      0x00\n        /* \"#utility.yul\":1413:1415   */\n      0x20\n        /* \"#utility.yul\":1401:1410   */\n      dup3\n        /* \"#utility.yul\":1392:1399   */\n      dup5\n        /* \"#utility.yul\":1388:1411   */\n      sub\n        /* \"#utility.yul\":1384:1416   */\n      slt\n        /* \"#utility.yul\":1381:1500   */\n      iszero\n      tag_220\n      jumpi\n        /* \"#utility.yul\":1419:1498   */\n      tag_221\n      tag_128\n      jump\t// in\n    tag_221:\n        /* \"#utility.yul\":1381:1500   */\n    tag_220:\n        /* \"#utility.yul\":1539:1540   */\n      0x00\n        /* \"#utility.yul\":1564:1617   */\n      tag_222\n        /* \"#utility.yul\":1609:1616   */\n      dup5\n        /* \"#utility.yul\":1600:1606   */\n      dup3\n        /* \"#utility.yul\":1589:1598   */\n      dup6\n        /* \"#utility.yul\":1585:1607   */\n      add\n        /* \"#utility.yul\":1564:1617   */\n      tag_134\n      jump\t// in\n    tag_222:\n        /* \"#utility.yul\":1554:1617   */\n      swap2\n      pop\n        /* \"#utility.yul\":1510:1627   */\n      pop\n        /* \"#utility.yul\":1305:1634   */\n      swap3\n      swap2\n      pop\n      pop\n      jump\t// out\n        /* \"#utility.yul\":1640:1775   */\n    tag_135:\n        /* \"#utility.yul\":1728:1734   */\n      0x00\n        /* \"#utility.yul\":1762:1767   */\n      dup2\n        /* \"#utility.yul\":1756:1768   */\n      mload\n        /* \"#utility.yul\":1746:1768   */\n      swap1\n      pop\n        /* \"#utility.yul\":1640:1775   */\n      swap2\n      swap1\n      pop\n      jump\t// out\n        /* \"#utility.yul\":1781:1986   */\n    tag_136:\n        /* \"#utility.yul\":1901:1912   */\n      0x00\n        /* \"#utility.yul\":1935:1941   */\n      dup3\n        /* \"#utility.yul\":1930:1933   */\n      dup3\n        /* \"#utility.yul\":1923:1942   */\n      mstore\n        /* \"#utility.yul\":1975:1979   */\n      0x20\n        /* \"#utility.yul\":1970:1973   */\n      dup3\n        /* \"#utility.yul\":1966:1980   */\n      add\n        /* \"#utility.yul\":1951:1980   */\n      swap1\n      pop\n        /* \"#utility.yul\":1781:1986   */\n      swap3\n      swap2\n      pop\n      pop\n      jump\t// out\n        /* \"#utility.yul\":1992:2145   */\n    tag_137:\n        /* \"#utility.yul\":2080:2084   */\n      0x00\n        /* \"#utility.yul\":2103:2106   */\n      dup2\n        /* \"#utility.yul\":2095:2106   */\n      swap1\n      pop\n        /* \"#utility.yul\":2133:2137   */\n      0x20\n        /* \"#utility.yul\":2128:2131   */\n      dup3\n        /* \"#utility.yul\":2124:2138   */\n      add\n        /* \"#utility.yul\":2116:2138   */\n      swap1\n      pop\n        /* \"#utility.yul\":1992:2145   */\n      swap2\n      swap1\n      pop\n      jump\t// out\n        /* \"#utility.yul\":2151:2277   */\n    tag_138:\n        /* \"#utility.yul\":2188:2195   */\n      0x00\n        /* \"#utility.yul\":2228:2270   */\n      0xffffffffffffffffffffffffffffffffffffffff\n        /* \"#utility.yul\":2221:2226   */\n      dup3\n        /* \"#utility.yul\":2217:2271   */\n      and\n        /* \"#utility.yul\":2206:2271   */\n      swap1\n      pop\n        /* \"#utility.yul\":2151:2277   */\n      swap2\n      swap1\n      pop\n      jump\t// out\n        /* \"#utility.yul\":2283:2379   */\n    tag_139:\n        /* \"#utility.yul\":2320:2327   */\n      0x00\n        /* \"#utility.yul\":2349:2373   */\n      tag_228\n        /* \"#utility.yul\":2367:2372   */\n      dup3\n        /* \"#utility.yul\":2349:2373   */\n      tag_138\n      jump\t// in\n    tag_228:\n        /* \"#utility.yul\":2338:2373   */\n      swap1\n      pop\n        /* \"#utility.yul\":2283:2379   */\n      swap2\n      swap1\n      pop\n      jump\t// out\n        /* \"#utility.yul\":2385:2493   */\n    tag_140:\n        /* \"#utility.yul\":2462:2486   */\n      tag_230\n        /* \"#utility.yul\":2480:2485   */\n      dup2\n        /* \"#utility.yul\":2462:2486   */\n      tag_139\n      jump\t// in\n    tag_230:\n        /* \"#utility.yul\":2457:2460   */\n      dup3\n        /* \"#utility.yul\":2450:2487   */\n      mstore\n        /* \"#utility.yul\":2385:2493   */\n      pop\n      pop\n      jump\t// out\n        /* \"#utility.yul\":2499:2607   */\n    tag_141:\n        /* \"#utility.yul\":2576:2600   */\n      tag_232\n        /* \"#utility.yul\":2594:2599   */\n      dup2\n        /* \"#utility.yul\":2576:2600   */\n      tag_132\n      jump\t// in\n    tag_232:\n        /* \"#utility.yul\":2571:2574   */\n      dup3\n        /* \"#utility.yul\":2564:2601   */\n      mstore\n        /* \"#utility.yul\":2499:2607   */\n      pop\n      pop\n      jump\t// out\n        /* \"#utility.yul\":2613:2712   */\n    tag_142:\n        /* \"#utility.yul\":2665:2671   */\n      0x00\n        /* \"#utility.yul\":2699:2704   */\n      dup2\n        /* \"#utility.yul\":2693:2705   */\n      mload\n        /* \"#utility.yul\":2683:2705   */\n      swap1\n      pop\n        /* \"#utility.yul\":2613:2712   */\n      swap2\n      swap1\n      pop\n      jump\t// out\n        /* \"#utility.yul\":2718:2877   */\n    tag_143:\n        /* \"#utility.yul\":2792:2803   */\n      0x00\n        /* \"#utility.yul\":2826:2832   */\n      dup3\n        /* \"#utility.yul\":2821:2824   */\n      dup3\n        /* \"#utility.yul\":2814:2833   */\n      mstore\n        /* \"#utility.yul\":2866:2870   */\n      0x20\n        /* \"#utility.yul\":2861:2864   */\n      dup3\n        /* \"#utility.yul\":2857:2871   */\n      add\n        /* \"#utility.yul\":2842:2871   */\n      swap1\n      pop\n        /* \"#utility.yul\":2718:2877   */\n      swap3\n      swap2\n      pop\n      pop\n      jump\t// out\n        /* \"#utility.yul\":2883:3022   */\n    tag_144:\n        /* \"#utility.yul\":2972:2978   */\n      dup3\n        /* \"#utility.yul\":2967:2970   */\n      dup2\n        /* \"#utility.yul\":2962:2965   */\n      dup4\n        /* \"#utility.yul\":2956:2979   */\n      mcopy\n        /* \"#utility.yul\":3013:3014   */\n      0x00\n        /* \"#utility.yul\":3004:3010   */\n      dup4\n        /* \"#utility.yul\":2999:3002   */\n      dup4\n        /* \"#utility.yul\":2995:3011   */\n      add\n        /* \"#utility.yul\":2988:3015   */\n      mstore\n        /* \"#utility.yul\":2883:3022   */\n      pop\n      pop\n      pop\n      jump\t// out\n        /* \"#utility.yul\":3028:3130   */\n    tag_145:\n        /* \"#utility.yul\":3069:3075   */\n      0x00\n        /* \"#utility.yul\":3120:3122   */\n      0x1f\n        /* \"#utility.yul\":3116:3123   */\n      not\n        /* \"#utility.yul\":3111:3113   */\n      0x1f\n        /* \"#utility.yul\":3104:3109   */\n      dup4\n        /* \"#utility.yul\":3100:3114   */\n      add\n        /* \"#utility.yul\":3096:3124   */\n      and\n        /* \"#utility.yul\":3086:3124   */\n      swap1\n      pop\n        /* \"#utility.yul\":3028:3130   */\n      swap2\n      swap1\n      pop\n      jump\t// out\n        /* \"#utility.yul\":3136:3493   */\n    tag_146:\n        /* \"#utility.yul\":3214:3217   */\n      0x00\n        /* \"#utility.yul\":3242:3281   */\n      tag_238\n        /* \"#utility.yul\":3275:3280   */\n      dup3\n        /* \"#utility.yul\":3242:3281   */\n      tag_142\n      jump\t// in\n    tag_238:\n        /* \"#utility.yul\":3297:3358   */\n      tag_239\n        /* \"#utility.yul\":3351:3357   */\n      dup2\n        /* \"#utility.yul\":3346:3349   */\n      dup6\n        /* \"#utility.yul\":3297:3358   */\n      tag_143\n      jump\t// in\n    tag_239:\n        /* \"#utility.yul\":3290:3358   */\n      swap4\n      pop\n        /* \"#utility.yul\":3367:3432   */\n      tag_240\n        /* \"#utility.yul\":3425:3431   */\n      dup2\n        /* \"#utility.yul\":3420:3423   */\n      dup6\n        /* \"#utility.yul\":3413:3417   */\n      0x20\n        /* \"#utility.yul\":3406:3411   */\n      dup7\n        /* \"#utility.yul\":3402:3418   */\n      add\n        /* \"#utility.yul\":3367:3432   */\n      tag_144\n      jump\t// in\n    tag_240:\n        /* \"#utility.yul\":3457:3486   */\n      tag_241\n        /* \"#utility.yul\":3479:3485   */\n      dup2\n        /* \"#utility.yul\":3457:3486   */\n      tag_145\n      jump\t// in\n    tag_241:\n        /* \"#utility.yul\":3452:3455   */\n      dup5\n        /* \"#utility.yul\":3448:3487   */\n      add\n        /* \"#utility.yul\":3441:3487   */\n      swap2\n      pop\n        /* \"#utility.yul\":3218:3493   */\n      pop\n        /* \"#utility.yul\":3136:3493   */\n      swap3\n      swap2\n      pop\n      pop\n      jump\t// out\n        /* \"#utility.yul\":3567:4591   */\n    tag_147:\n        /* \"#utility.yul\":3668:3671   */\n      0x00\n        /* \"#utility.yul\":3704:3708   */\n      0x80\n        /* \"#utility.yul\":3699:3702   */\n      dup4\n        /* \"#utility.yul\":3695:3709   */\n      add\n        /* \"#utility.yul\":3796:3800   */\n      0x00\n        /* \"#utility.yul\":3789:3794   */\n      dup4\n        /* \"#utility.yul\":3785:3801   */\n      add\n        /* \"#utility.yul\":3779:3802   */\n      mload\n        /* \"#utility.yul\":3815:3878   */\n      tag_243\n        /* \"#utility.yul\":3872:3876   */\n      0x00\n        /* \"#utility.yul\":3867:3870   */\n      dup7\n        /* \"#utility.yul\":3863:3877   */\n      add\n        /* \"#utility.yul\":3849:3861   */\n      dup3\n        /* \"#utility.yul\":3815:3878   */\n      tag_140\n      jump\t// in\n    tag_243:\n        /* \"#utility.yul\":3719:3888   */\n      pop\n        /* \"#utility.yul\":3975:3979   */\n      0x20\n        /* \"#utility.yul\":3968:3973   */\n      dup4\n        /* \"#utility.yul\":3964:3980   */\n      add\n        /* \"#utility.yul\":3958:3981   */\n      mload\n        /* \"#utility.yul\":3994:4057   */\n      tag_244\n        /* \"#utility.yul\":4051:4055   */\n      0x20\n        /* \"#utility.yul\":4046:4049   */\n      dup7\n        /* \"#utility.yul\":4042:4056   */\n      add\n        /* \"#utility.yul\":4028:4040   */\n      dup3\n        /* \"#utility.yul\":3994:4057   */\n      tag_141\n      jump\t// in\n    tag_244:\n        /* \"#utility.yul\":3898:4067   */\n      pop\n        /* \"#utility.yul\":4153:4157   */\n      0x40\n        /* \"#utility.yul\":4146:4151   */\n      dup4\n        /* \"#utility.yul\":4142:4158   */\n      add\n        /* \"#utility.yul\":4136:4159   */\n      mload\n        /* \"#utility.yul\":4206:4209   */\n      dup5\n        /* \"#utility.yul\":4200:4204   */\n      dup3\n        /* \"#utility.yul\":4196:4210   */\n      sub\n        /* \"#utility.yul\":4189:4193   */\n      0x40\n        /* \"#utility.yul\":4184:4187   */\n      dup7\n        /* \"#utility.yul\":4180:4194   */\n      add\n        /* \"#utility.yul\":4173:4211   */\n      mstore\n        /* \"#utility.yul\":4232:4305   */\n      tag_245\n        /* \"#utility.yul\":4300:4304   */\n      dup3\n        /* \"#utility.yul\":4286:4298   */\n      dup3\n        /* \"#utility.yul\":4232:4305   */\n      tag_146\n      jump\t// in\n    tag_245:\n        /* \"#utility.yul\":4224:4305   */\n      swap2\n      pop\n        /* \"#utility.yul\":4077:4316   */\n      pop\n        /* \"#utility.yul\":4401:4405   */\n      0x60\n        /* \"#utility.yul\":4394:4399   */\n      dup4\n        /* \"#utility.yul\":4390:4406   */\n      add\n        /* \"#utility.yul\":4384:4407   */\n      mload\n        /* \"#utility.yul\":4454:4457   */\n      dup5\n        /* \"#utility.yul\":4448:4452   */\n      dup3\n        /* \"#utility.yul\":4444:4458   */\n      sub\n        /* \"#utility.yul\":4437:4441   */\n      0x60\n        /* \"#utility.yul\":4432:4435   */\n      dup7\n        /* \"#utility.yul\":4428:4442   */\n      add\n        /* \"#utility.yul\":4421:4459   */\n      mstore\n        /* \"#utility.yul\":4480:4553   */\n      tag_246\n        /* \"#utility.yul\":4548:4552   */\n      dup3\n        /* \"#utility.yul\":4534:4546   */\n      dup3\n        /* \"#utility.yul\":4480:4553   */\n      tag_146\n      jump\t// in\n    tag_246:\n        /* \"#utility.yul\":4472:4553   */\n      swap2\n      pop\n        /* \"#utility.yul\":4326:4564   */\n      pop\n        /* \"#utility.yul\":4581:4585   */\n      dup1\n        /* \"#utility.yul\":4574:4585   */\n      swap2\n      pop\n        /* \"#utility.yul\":3673:4591   */\n      pop\n        /* \"#utility.yul\":3567:4591   */\n      swap3\n      swap2\n      pop\n      pop\n      jump\t// out\n        /* \"#utility.yul\":4597:4837   */\n    tag_148:\n        /* \"#utility.yul\":4708:4718   */\n      0x00\n        /* \"#utility.yul\":4743:4831   */\n      tag_248\n        /* \"#utility.yul\":4827:4830   */\n      dup4\n        /* \"#utility.yul\":4819:4825   */\n      dup4\n        /* \"#utility.yul\":4743:4831   */\n      tag_147\n      jump\t// in\n    tag_248:\n        /* \"#utility.yul\":4729:4831   */\n      swap1\n      pop\n        /* \"#utility.yul\":4597:4837   */\n      swap3\n      swap2\n      pop\n      pop\n      jump\t// out\n        /* \"#utility.yul\":4843:4977   */\n    tag_149:\n        /* \"#utility.yul\":4934:4938   */\n      0x00\n        /* \"#utility.yul\":4966:4970   */\n      0x20\n        /* \"#utility.yul\":4961:4964   */\n      dup3\n        /* \"#utility.yul\":4957:4971   */\n      add\n        /* \"#utility.yul\":4949:4971   */\n      swap1\n      pop\n        /* \"#utility.yul\":4843:4977   */\n      swap2\n      swap1\n      pop\n      jump\t// out\n        /* \"#utility.yul\":5055:6134   */\n    tag_150:\n        /* \"#utility.yul\":5216:5219   */\n      0x00\n        /* \"#utility.yul\":5245:5320   */\n      tag_251\n        /* \"#utility.yul\":5314:5319   */\n      dup3\n        /* \"#utility.yul\":5245:5320   */\n      tag_135\n      jump\t// in\n    tag_251:\n        /* \"#utility.yul\":5336:5443   */\n      tag_252\n        /* \"#utility.yul\":5436:5442   */\n      dup2\n        /* \"#utility.yul\":5431:5434   */\n      dup6\n        /* \"#utility.yul\":5336:5443   */\n      tag_136\n      jump\t// in\n    tag_252:\n        /* \"#utility.yul\":5329:5443   */\n      swap4\n      pop\n        /* \"#utility.yul\":5469:5472   */\n      dup4\n        /* \"#utility.yul\":5514:5518   */\n      0x20\n        /* \"#utility.yul\":5506:5512   */\n      dup3\n        /* \"#utility.yul\":5502:5519   */\n      mul\n        /* \"#utility.yul\":5497:5500   */\n      dup6\n        /* \"#utility.yul\":5493:5520   */\n      add\n        /* \"#utility.yul\":5544:5621   */\n      tag_253\n        /* \"#utility.yul\":5615:5620   */\n      dup6\n        /* \"#utility.yul\":5544:5621   */\n      tag_137\n      jump\t// in\n    tag_253:\n        /* \"#utility.yul\":5644:5651   */\n      dup1\n        /* \"#utility.yul\":5675:5676   */\n      0x00\n        /* \"#utility.yul\":5660:6089   */\n    tag_254:\n        /* \"#utility.yul\":5685:5691   */\n      dup6\n        /* \"#utility.yul\":5682:5683   */\n      dup2\n        /* \"#utility.yul\":5679:5692   */\n      lt\n        /* \"#utility.yul\":5660:6089   */\n      iszero\n      tag_256\n      jumpi\n        /* \"#utility.yul\":5756:5765   */\n      dup5\n        /* \"#utility.yul\":5750:5754   */\n      dup5\n        /* \"#utility.yul\":5746:5766   */\n      sub\n        /* \"#utility.yul\":5741:5744   */\n      dup10\n        /* \"#utility.yul\":5734:5767   */\n      mstore\n        /* \"#utility.yul\":5807:5813   */\n      dup2\n        /* \"#utility.yul\":5801:5814   */\n      mload\n        /* \"#utility.yul\":5835:5941   */\n      tag_257\n        /* \"#utility.yul\":5936:5940   */\n      dup6\n        /* \"#utility.yul\":5921:5934   */\n      dup3\n        /* \"#utility.yul\":5835:5941   */\n      tag_148\n      jump\t// in\n    tag_257:\n        /* \"#utility.yul\":5827:5941   */\n      swap5\n      pop\n        /* \"#utility.yul\":5964:6045   */\n      tag_258\n        /* \"#utility.yul\":6038:6044   */\n      dup4\n        /* \"#utility.yul\":5964:6045   */\n      tag_149\n      jump\t// in\n    tag_258:\n        /* \"#utility.yul\":5954:6045   */\n      swap3\n      pop\n        /* \"#utility.yul\":6074:6078   */\n      0x20\n        /* \"#utility.yul\":6069:6072   */\n      dup11\n        /* \"#utility.yul\":6065:6079   */\n      add\n        /* \"#utility.yul\":6058:6079   */\n      swap10\n      pop\n        /* \"#utility.yul\":5720:6089   */\n      pop\n        /* \"#utility.yul\":5707:5708   */\n      0x01\n        /* \"#utility.yul\":5704:5705   */\n      dup2\n        /* \"#utility.yul\":5700:5709   */\n      add\n        /* \"#utility.yul\":5695:5709   */\n      swap1\n      pop\n        /* \"#utility.yul\":5660:6089   */\n      jump(tag_254)\n    tag_256:\n        /* \"#utility.yul\":5664:5678   */\n      pop\n        /* \"#utility.yul\":6105:6109   */\n      dup3\n        /* \"#utility.yul\":6098:6109   */\n      swap8\n      pop\n        /* \"#utility.yul\":6125:6128   */\n      dup8\n        /* \"#utility.yul\":6118:6128   */\n      swap6\n      pop\n        /* \"#utility.yul\":5221:6134   */\n      pop\n      pop\n      pop\n      pop\n      pop\n        /* \"#utility.yul\":5055:6134   */\n      swap3\n      swap2\n      pop\n      pop\n      jump\t// out\n        /* \"#utility.yul\":6140:6597   */\n    tag_23:\n        /* \"#utility.yul\":6325:6329   */\n      0x00\n        /* \"#utility.yul\":6363:6365   */\n      0x20\n        /* \"#utility.yul\":6352:6361   */\n      dup3\n        /* \"#utility.yul\":6348:6366   */\n      add\n        /* \"#utility.yul\":6340:6366   */\n      swap1\n      pop\n        /* \"#utility.yul\":6412:6421   */\n      dup2\n        /* \"#utility.yul\":6406:6410   */\n      dup2\n        /* \"#utility.yul\":6402:6422   */\n      sub\n        /* \"#utility.yul\":6398:6399   */\n      0x00\n        /* \"#utility.yul\":6387:6396   */\n      dup4\n        /* \"#utility.yul\":6383:6400   */\n      add\n        /* \"#utility.yul\":6376:6423   */\n      mstore\n        /* \"#utility.yul\":6440:6590   */\n      tag_260\n        /* \"#utility.yul\":6585:6589   */\n      dup2\n        /* \"#utility.yul\":6576:6582   */\n      dup5\n        /* \"#utility.yul\":6440:6590   */\n      tag_150\n      jump\t// in\n    tag_260:\n        /* \"#utility.yul\":6432:6590   */\n      swap1\n      pop\n        /* \"#utility.yul\":6140:6597   */\n      swap3\n      swap2\n      pop\n      pop\n      jump\t// out\n        /* \"#utility.yul\":6603:6721   */\n    tag_151:\n        /* \"#utility.yul\":6690:6714   */\n      tag_262\n        /* \"#utility.yul\":6708:6713   */\n      dup2\n        /* \"#utility.yul\":6690:6714   */\n      tag_132\n      jump\t// in\n    tag_262:\n        /* \"#utility.yul\":6685:6688   */\n      dup3\n        /* \"#utility.yul\":6678:6715   */\n      mstore\n        /* \"#utility.yul\":6603:6721   */\n      pop\n      pop\n      jump\t// out\n        /* \"#utility.yul\":6727:6949   */\n    tag_29:\n        /* \"#utility.yul\":6820:6824   */\n      0x00\n        /* \"#utility.yul\":6858:6860   */\n      0x20\n        /* \"#utility.yul\":6847:6856   */\n      dup3\n        /* \"#utility.yul\":6843:6861   */\n      add\n        /* \"#utility.yul\":6835:6861   */\n      swap1\n      pop\n        /* \"#utility.yul\":6871:6942   */\n      tag_264\n        /* \"#utility.yul\":6939:6940   */\n      0x00\n        /* \"#utility.yul\":6928:6937   */\n      dup4\n        /* \"#utility.yul\":6924:6941   */\n      add\n        /* \"#utility.yul\":6915:6921   */\n      dup5\n        /* \"#utility.yul\":6871:6942   */\n      tag_151\n      jump\t// in\n    tag_264:\n        /* \"#utility.yul\":6727:6949   */\n      swap3\n      swap2\n      pop\n      pop\n      jump\t// out\n        /* \"#utility.yul\":6955:7077   */\n    tag_152:\n        /* \"#utility.yul\":7028:7052   */\n      tag_266\n        /* \"#utility.yul\":7046:7051   */\n      dup2\n        /* \"#utility.yul\":7028:7052   */\n      tag_139\n      jump\t// in\n    tag_266:\n        /* \"#utility.yul\":7021:7026   */\n      dup2\n        /* \"#utility.yul\":7018:7053   */\n      eq\n        /* \"#utility.yul\":7008:7071   */\n      tag_267\n      jumpi\n        /* \"#utility.yul\":7067:7068   */\n      0x00\n        /* \"#utility.yul\":7064:7065   */\n      0x00\n        /* \"#utility.yul\":7057:7069   */\n      revert\n        /* \"#utility.yul\":7008:7071   */\n    tag_267:\n        /* \"#utility.yul\":6955:7077   */\n      pop\n      jump\t// out\n        /* \"#utility.yul\":7083:7222   */\n    tag_153:\n        /* \"#utility.yul\":7129:7134   */\n      0x00\n        /* \"#utility.yul\":7167:7173   */\n      dup2\n        /* \"#utility.yul\":7154:7174   */\n      calldataload\n        /* \"#utility.yul\":7145:7174   */\n      swap1\n      pop\n        /* \"#utility.yul\":7183:7216   */\n      tag_269\n        /* \"#utility.yul\":7210:7215   */\n      dup2\n        /* \"#utility.yul\":7183:7216   */\n      tag_152\n      jump\t// in\n    tag_269:\n        /* \"#utility.yul\":7083:7222   */\n      swap3\n      swap2\n      pop\n      pop\n      jump\t// out\n        /* \"#utility.yul\":7228:7557   */\n    tag_32:\n        /* \"#utility.yul\":7287:7293   */\n      0x00\n        /* \"#utility.yul\":7336:7338   */\n      0x20\n        /* \"#utility.yul\":7324:7333   */\n      dup3\n        /* \"#utility.yul\":7315:7322   */\n      dup5\n        /* \"#utility.yul\":7311:7334   */\n      sub\n        /* \"#utility.yul\":7307:7339   */\n      slt\n        /* \"#utility.yul\":7304:7423   */\n      iszero\n      tag_271\n      jumpi\n        /* \"#utility.yul\":7342:7421   */\n      tag_272\n      tag_128\n      jump\t// in\n    tag_272:\n        /* \"#utility.yul\":7304:7423   */\n    tag_271:\n        /* \"#utility.yul\":7462:7463   */\n      0x00\n        /* \"#utility.yul\":7487:7540   */\n      tag_273\n        /* \"#utility.yul\":7532:7539   */\n      dup5\n        /* \"#utility.yul\":7523:7529   */\n      dup3\n        /* \"#utility.yul\":7512:7521   */\n      dup6\n        /* \"#utility.yul\":7508:7530   */\n      add\n        /* \"#utility.yul\":7487:7540   */\n      tag_153\n      jump\t// in\n    tag_273:\n        /* \"#utility.yul\":7477:7540   */\n      swap2\n      pop\n        /* \"#utility.yul\":7433:7550   */\n      pop\n        /* \"#utility.yul\":7228:7557   */\n      swap3\n      swap2\n      pop\n      pop\n      jump\t// out\n        /* \"#utility.yul\":7563:7653   */\n    tag_154:\n        /* \"#utility.yul\":7597:7604   */\n      0x00\n        /* \"#utility.yul\":7640:7645   */\n      dup2\n        /* \"#utility.yul\":7633:7646   */\n      iszero\n        /* \"#utility.yul\":7626:7647   */\n      iszero\n        /* \"#utility.yul\":7615:7647   */\n      swap1\n      pop\n        /* \"#utility.yul\":7563:7653   */\n      swap2\n      swap1\n      pop\n      jump\t// out\n        /* \"#utility.yul\":7659:7768   */\n    tag_155:\n        /* \"#utility.yul\":7740:7761   */\n      tag_276\n        /* \"#utility.yul\":7755:7760   */\n      dup2\n        /* \"#utility.yul\":7740:7761   */\n      tag_154\n      jump\t// in\n    tag_276:\n        /* \"#utility.yul\":7735:7738   */\n      dup3\n        /* \"#utility.yul\":7728:7762   */\n      mstore\n        /* \"#utility.yul\":7659:7768   */\n      pop\n      pop\n      jump\t// out\n        /* \"#utility.yul\":7774:7984   */\n    tag_35:\n        /* \"#utility.yul\":7861:7865   */\n      0x00\n        /* \"#utility.yul\":7899:7901   */\n      0x20\n        /* \"#utility.yul\":7888:7897   */\n      dup3\n        /* \"#utility.yul\":7884:7902   */\n      add\n        /* \"#utility.yul\":7876:7902   */\n      swap1\n      pop\n        /* \"#utility.yul\":7912:7977   */\n      tag_278\n        /* \"#utility.yul\":7974:7975   */\n      0x00\n        /* \"#utility.yul\":7963:7972   */\n      dup4\n        /* \"#utility.yul\":7959:7976   */\n      add\n        /* \"#utility.yul\":7950:7956   */\n      dup5\n        /* \"#utility.yul\":7912:7977   */\n      tag_155\n      jump\t// in\n    tag_278:\n        /* \"#utility.yul\":7774:7984   */\n      swap3\n      swap2\n      pop\n      pop\n      jump\t// out\n        /* \"#utility.yul\":7990:8170   */\n    tag_63:\n        /* \"#utility.yul\":8038:8115   */\n      0x4e487b7100000000000000000000000000000000000000000000000000000000\n        /* \"#utility.yul\":8035:8036   */\n      0x00\n        /* \"#utility.yul\":8028:8116   */\n      mstore\n        /* \"#utility.yul\":8135:8139   */\n      0x21\n        /* \"#utility.yul\":8132:8133   */\n      0x04\n        /* \"#utility.yul\":8125:8140   */\n      mstore\n        /* \"#utility.yul\":8159:8163   */\n      0x24\n        /* \"#utility.yul\":8156:8157   */\n      0x00\n        /* \"#utility.yul\":8149:8164   */\n      revert\n        /* \"#utility.yul\":8176:8287   */\n    tag_156:\n        /* \"#utility.yul\":8255:8256   */\n      0x05\n        /* \"#utility.yul\":8248:8253   */\n      dup2\n        /* \"#utility.yul\":8245:8257   */\n      lt\n        /* \"#utility.yul\":8235:8281   */\n      tag_281\n      jumpi\n        /* \"#utility.yul\":8261:8279   */\n      tag_282\n      tag_63\n      jump\t// in\n    tag_282:\n        /* \"#utility.yul\":8235:8281   */\n    tag_281:\n        /* \"#utility.yul\":8176:8287   */\n      pop\n      jump\t// out\n        /* \"#utility.yul\":8293:8416   */\n    tag_157:\n        /* \"#utility.yul\":8336:8343   */\n      0x00\n        /* \"#utility.yul\":8365:8370   */\n      dup2\n        /* \"#utility.yul\":8354:8370   */\n      swap1\n      pop\n        /* \"#utility.yul\":8371:8410   */\n      tag_284\n        /* \"#utility.yul\":8404:8409   */\n      dup3\n        /* \"#utility.yul\":8371:8410   */\n      tag_156\n      jump\t// in\n    tag_284:\n        /* \"#utility.yul\":8293:8416   */\n      swap2\n      swap1\n      pop\n      jump\t// out\n        /* \"#utility.yul\":8422:8545   */\n    tag_158:\n        /* \"#utility.yul\":8476:8485   */\n      0x00\n        /* \"#utility.yul\":8509:8539   */\n      tag_286\n        /* \"#utility.yul\":8533:8538   */\n      dup3\n        /* \"#utility.yul\":8509:8539   */\n      tag_157\n      jump\t// in\n    tag_286:\n        /* \"#utility.yul\":8496:8539   */\n      swap1\n      pop\n        /* \"#utility.yul\":8422:8545   */\n      swap2\n      swap1\n      pop\n      jump\t// out\n        /* \"#utility.yul\":8551:8690   */\n    tag_159:\n        /* \"#utility.yul\":8642:8683   */\n      tag_288\n        /* \"#utility.yul\":8677:8682   */\n      dup2\n        /* \"#utility.yul\":8642:8683   */\n      tag_158\n      jump\t// in\n    tag_288:\n        /* \"#utility.yul\":8637:8640   */\n      dup3\n        /* \"#utility.yul\":8630:8684   */\n      mstore\n        /* \"#utility.yul\":8551:8690   */\n      pop\n      pop\n      jump\t// out\n        /* \"#utility.yul\":8696:9122   */\n    tag_40:\n        /* \"#utility.yul\":8837:8841   */\n      0x00\n        /* \"#utility.yul\":8875:8877   */\n      0x60\n        /* \"#utility.yul\":8864:8873   */\n      dup3\n        /* \"#utility.yul\":8860:8878   */\n      add\n        /* \"#utility.yul\":8852:8878   */\n      swap1\n      pop\n        /* \"#utility.yul\":8888:8953   */\n      tag_290\n        /* \"#utility.yul\":8950:8951   */\n      0x00\n        /* \"#utility.yul\":8939:8948   */\n      dup4\n        /* \"#utility.yul\":8935:8952   */\n      add\n        /* \"#utility.yul\":8926:8932   */\n      dup7\n        /* \"#utility.yul\":8888:8953   */\n      tag_155\n      jump\t// in\n    tag_290:\n        /* \"#utility.yul\":8963:9029   */\n      tag_291\n        /* \"#utility.yul\":9025:9027   */\n      0x20\n        /* \"#utility.yul\":9014:9023   */\n      dup4\n        /* \"#utility.yul\":9010:9028   */\n      add\n        /* \"#utility.yul\":9001:9007   */\n      dup6\n        /* \"#utility.yul\":8963:9029   */\n      tag_155\n      jump\t// in\n    tag_291:\n        /* \"#utility.yul\":9039:9115   */\n      tag_292\n        /* \"#utility.yul\":9111:9113   */\n      0x40\n        /* \"#utility.yul\":9100:9109   */\n      dup4\n        /* \"#utility.yul\":9096:9114   */\n      add\n        /* \"#utility.yul\":9087:9093   */\n      dup5\n        /* \"#utility.yul\":9039:9115   */\n      tag_159\n      jump\t// in\n    tag_292:\n        /* \"#utility.yul\":8696:9122   */\n      swap5\n      swap4\n      pop\n      pop\n      pop\n      pop\n      jump\t// out\n        /* \"#utility.yul\":9128:9245   */\n    tag_160:\n        /* \"#utility.yul\":9237:9238   */\n      0x00\n        /* \"#utility.yul\":9234:9235   */\n      0x00\n        /* \"#utility.yul\":9227:9239   */\n      revert\n        /* \"#utility.yul\":9251:9368   */\n    tag_161:\n        /* \"#utility.yul\":9360:9361   */\n      0x00\n        /* \"#utility.yul\":9357:9358   */\n      0x00\n        /* \"#utility.yul\":9350:9362   */\n      revert\n        /* \"#utility.yul\":9374:9554   */\n    tag_162:\n        /* \"#utility.yul\":9422:9499   */\n      0x4e487b7100000000000000000000000000000000000000000000000000000000\n        /* \"#utility.yul\":9419:9420   */\n      0x00\n        /* \"#utility.yul\":9412:9500   */\n      mstore\n        /* \"#utility.yul\":9519:9523   */\n      0x41\n        /* \"#utility.yul\":9516:9517   */\n      0x04\n        /* \"#utility.yul\":9509:9524   */\n      mstore\n        /* \"#utility.yul\":9543:9547   */\n      0x24\n        /* \"#utility.yul\":9540:9541   */\n      0x00\n        /* \"#utility.yul\":9533:9548   */\n      revert\n        /* \"#utility.yul\":9560:9841   */\n    tag_163:\n        /* \"#utility.yul\":9643:9670   */\n      tag_297\n        /* \"#utility.yul\":9665:9669   */\n      dup3\n        /* \"#utility.yul\":9643:9670   */\n      tag_145\n      jump\t// in\n    tag_297:\n        /* \"#utility.yul\":9635:9641   */\n      dup2\n        /* \"#utility.yul\":9631:9671   */\n      add\n        /* \"#utility.yul\":9773:9779   */\n      dup2\n        /* \"#utility.yul\":9761:9771   */\n      dup2\n        /* \"#utility.yul\":9758:9780   */\n      lt\n        /* \"#utility.yul\":9737:9755   */\n      0xffffffffffffffff\n        /* \"#utility.yul\":9725:9735   */\n      dup3\n        /* \"#utility.yul\":9722:9756   */\n      gt\n        /* \"#utility.yul\":9719:9781   */\n      or\n        /* \"#utility.yul\":9716:9804   */\n      iszero\n      tag_298\n      jumpi\n        /* \"#utility.yul\":9784:9802   */\n      tag_299\n      tag_162\n      jump\t// in\n    tag_299:\n        /* \"#utility.yul\":9716:9804   */\n    tag_298:\n        /* \"#utility.yul\":9824:9834   */\n      dup1\n        /* \"#utility.yul\":9820:9822   */\n      0x40\n        /* \"#utility.yul\":9813:9835   */\n      mstore\n        /* \"#utility.yul\":9603:9841   */\n      pop\n        /* \"#utility.yul\":9560:9841   */\n      pop\n      pop\n      jump\t// out\n        /* \"#utility.yul\":9847:9976   */\n    tag_164:\n        /* \"#utility.yul\":9881:9887   */\n      0x00\n        /* \"#utility.yul\":9908:9928   */\n      tag_301\n      tag_127\n      jump\t// in\n    tag_301:\n        /* \"#utility.yul\":9898:9928   */\n      swap1\n      pop\n        /* \"#utility.yul\":9937:9970   */\n      tag_302\n        /* \"#utility.yul\":9965:9969   */\n      dup3\n        /* \"#utility.yul\":9957:9963   */\n      dup3\n        /* \"#utility.yul\":9937:9970   */\n      tag_163\n      jump\t// in\n    tag_302:\n        /* \"#utility.yul\":9847:9976   */\n      swap2\n      swap1\n      pop\n      jump\t// out\n        /* \"#utility.yul\":9982:10290   */\n    tag_165:\n        /* \"#utility.yul\":10044:10048   */\n      0x00\n        /* \"#utility.yul\":10134:10152   */\n      0xffffffffffffffff\n        /* \"#utility.yul\":10126:10132   */\n      dup3\n        /* \"#utility.yul\":10123:10153   */\n      gt\n        /* \"#utility.yul\":10120:10176   */\n      iszero\n      tag_304\n      jumpi\n        /* \"#utility.yul\":10156:10174   */\n      tag_305\n      tag_162\n      jump\t// in\n    tag_305:\n        /* \"#utility.yul\":10120:10176   */\n    tag_304:\n        /* \"#utility.yul\":10194:10223   */\n      tag_306\n        /* \"#utility.yul\":10216:10222   */\n      dup3\n        /* \"#utility.yul\":10194:10223   */\n      tag_145\n      jump\t// in\n    tag_306:\n        /* \"#utility.yul\":10186:10223   */\n      swap1\n      pop\n        /* \"#utility.yul\":10278:10282   */\n      0x20\n        /* \"#utility.yul\":10272:10276   */\n      dup2\n        /* \"#utility.yul\":10268:10283   */\n      add\n        /* \"#utility.yul\":10260:10283   */\n      swap1\n      pop\n        /* \"#utility.yul\":9982:10290   */\n      swap2\n      swap1\n      pop\n      jump\t// out\n        /* \"#utility.yul\":10296:10444   */\n    tag_166:\n        /* \"#utility.yul\":10394:10400   */\n      dup3\n        /* \"#utility.yul\":10389:10392   */\n      dup2\n        /* \"#utility.yul\":10384:10387   */\n      dup4\n        /* \"#utility.yul\":10371:10401   */\n      calldatacopy\n        /* \"#utility.yul\":10435:10436   */\n      0x00\n        /* \"#utility.yul\":10426:10432   */\n      dup4\n        /* \"#utility.yul\":10421:10424   */\n      dup4\n        /* \"#utility.yul\":10417:10433   */\n      add\n        /* \"#utility.yul\":10410:10437   */\n      mstore\n        /* \"#utility.yul\":10296:10444   */\n      pop\n      pop\n      pop\n      jump\t// out\n        /* \"#utility.yul\":10450:10875   */\n    tag_167:\n        /* \"#utility.yul\":10528:10533   */\n      0x00\n        /* \"#utility.yul\":10553:10619   */\n      tag_309\n        /* \"#utility.yul\":10569:10618   */\n      tag_310\n        /* \"#utility.yul\":10611:10617   */\n      dup5\n        /* \"#utility.yul\":10569:10618   */\n      tag_165\n      jump\t// in\n    tag_310:\n        /* \"#utility.yul\":10553:10619   */\n      tag_164\n      jump\t// in\n    tag_309:\n        /* \"#utility.yul\":10544:10619   */\n      swap1\n      pop\n        /* \"#utility.yul\":10642:10648   */\n      dup3\n        /* \"#utility.yul\":10635:10640   */\n      dup2\n        /* \"#utility.yul\":10628:10649   */\n      mstore\n        /* \"#utility.yul\":10680:10684   */\n      0x20\n        /* \"#utility.yul\":10673:10678   */\n      dup2\n        /* \"#utility.yul\":10669:10685   */\n      add\n        /* \"#utility.yul\":10718:10721   */\n      dup5\n        /* \"#utility.yul\":10709:10715   */\n      dup5\n        /* \"#utility.yul\":10704:10707   */\n      dup5\n        /* \"#utility.yul\":10700:10716   */\n      add\n        /* \"#utility.yul\":10697:10722   */\n      gt\n        /* \"#utility.yul\":10694:10806   */\n      iszero\n      tag_311\n      jumpi\n        /* \"#utility.yul\":10725:10804   */\n      tag_312\n      tag_161\n      jump\t// in\n    tag_312:\n        /* \"#utility.yul\":10694:10806   */\n    tag_311:\n        /* \"#utility.yul\":10815:10869   */\n      tag_313\n        /* \"#utility.yul\":10862:10868   */\n      dup5\n        /* \"#utility.yul\":10857:10860   */\n      dup3\n        /* \"#utility.yul\":10852:10855   */\n      dup6\n        /* \"#utility.yul\":10815:10869   */\n      tag_166\n      jump\t// in\n    tag_313:\n        /* \"#utility.yul\":10534:10875   */\n      pop\n        /* \"#utility.yul\":10450:10875   */\n      swap4\n      swap3\n      pop\n      pop\n      pop\n      jump\t// out\n        /* \"#utility.yul\":10895:11235   */\n    tag_168:\n        /* \"#utility.yul\":10951:10956   */\n      0x00\n        /* \"#utility.yul\":11000:11003   */\n      dup3\n        /* \"#utility.yul\":10993:10997   */\n      0x1f\n        /* \"#utility.yul\":10985:10991   */\n      dup4\n        /* \"#utility.yul\":10981:10998   */\n      add\n        /* \"#utility.yul\":10977:11004   */\n      slt\n        /* \"#utility.yul\":10967:11089   */\n      tag_315\n      jumpi\n        /* \"#utility.yul\":11008:11087   */\n      tag_316\n      tag_160\n      jump\t// in\n    tag_316:\n        /* \"#utility.yul\":10967:11089   */\n    tag_315:\n        /* \"#utility.yul\":11125:11131   */\n      dup2\n        /* \"#utility.yul\":11112:11132   */\n      calldataload\n        /* \"#utility.yul\":11150:11229   */\n      tag_317\n        /* \"#utility.yul\":11225:11228   */\n      dup5\n        /* \"#utility.yul\":11217:11223   */\n      dup3\n        /* \"#utility.yul\":11210:11214   */\n      0x20\n        /* \"#utility.yul\":11202:11208   */\n      dup7\n        /* \"#utility.yul\":11198:11215   */\n      add\n        /* \"#utility.yul\":11150:11229   */\n      tag_167\n      jump\t// in\n    tag_317:\n        /* \"#utility.yul\":11141:11229   */\n      swap2\n      pop\n        /* \"#utility.yul\":10957:11235   */\n      pop\n        /* \"#utility.yul\":10895:11235   */\n      swap3\n      swap2\n      pop\n      pop\n      jump\t// out\n        /* \"#utility.yul\":11241:12220   */\n    tag_43:\n        /* \"#utility.yul\":11338:11344   */\n      0x00\n        /* \"#utility.yul\":11346:11352   */\n      0x00\n        /* \"#utility.yul\":11354:11360   */\n      0x00\n        /* \"#utility.yul\":11403:11405   */\n      0x60\n        /* \"#utility.yul\":11391:11400   */\n      dup5\n        /* \"#utility.yul\":11382:11389   */\n      dup7\n        /* \"#utility.yul\":11378:11401   */\n      sub\n        /* \"#utility.yul\":11374:11406   */\n      slt\n        /* \"#utility.yul\":11371:11490   */\n      iszero\n      tag_319\n      jumpi\n        /* \"#utility.yul\":11409:11488   */\n      tag_320\n      tag_128\n      jump\t// in\n    tag_320:\n        /* \"#utility.yul\":11371:11490   */\n    tag_319:\n        /* \"#utility.yul\":11529:11530   */\n      0x00\n        /* \"#utility.yul\":11554:11607   */\n      tag_321\n        /* \"#utility.yul\":11599:11606   */\n      dup7\n        /* \"#utility.yul\":11590:11596   */\n      dup3\n        /* \"#utility.yul\":11579:11588   */\n      dup8\n        /* \"#utility.yul\":11575:11597   */\n      add\n        /* \"#utility.yul\":11554:11607   */\n      tag_134\n      jump\t// in\n    tag_321:\n        /* \"#utility.yul\":11544:11607   */\n      swap4\n      pop\n        /* \"#utility.yul\":11500:11617   */\n      pop\n        /* \"#utility.yul\":11684:11686   */\n      0x20\n        /* \"#utility.yul\":11673:11682   */\n      dup5\n        /* \"#utility.yul\":11669:11687   */\n      add\n        /* \"#utility.yul\":11656:11688   */\n      calldataload\n        /* \"#utility.yul\":11715:11733   */\n      0xffffffffffffffff\n        /* \"#utility.yul\":11707:11713   */\n      dup2\n        /* \"#utility.yul\":11704:11734   */\n      gt\n        /* \"#utility.yul\":11701:11818   */\n      iszero\n      tag_322\n      jumpi\n        /* \"#utility.yul\":11737:11816   */\n      tag_323\n      tag_129\n      jump\t// in\n    tag_323:\n        /* \"#utility.yul\":11701:11818   */\n    tag_322:\n        /* \"#utility.yul\":11842:11905   */\n      tag_324\n        /* \"#utility.yul\":11897:11904   */\n      dup7\n        /* \"#utility.yul\":11888:11894   */\n      dup3\n        /* \"#utility.yul\":11877:11886   */\n      dup8\n        /* \"#utility.yul\":11873:11895   */\n      add\n        /* \"#utility.yul\":11842:11905   */\n      tag_168\n      jump\t// in\n    tag_324:\n        /* \"#utility.yul\":11832:11905   */\n      swap3\n      pop\n        /* \"#utility.yul\":11627:11915   */\n      pop\n        /* \"#utility.yul\":11982:11984   */\n      0x40\n        /* \"#utility.yul\":11971:11980   */\n      dup5\n        /* \"#utility.yul\":11967:11985   */\n      add\n        /* \"#utility.yul\":11954:11986   */\n      calldataload\n        /* \"#utility.yul\":12013:12031   */\n      0xffffffffffffffff\n        /* \"#utility.yul\":12005:12011   */\n      dup2\n        /* \"#utility.yul\":12002:12032   */\n      gt\n        /* \"#utility.yul\":11999:12116   */\n      iszero\n      tag_325\n      jumpi\n        /* \"#utility.yul\":12035:12114   */\n      tag_326\n      tag_129\n      jump\t// in\n    tag_326:\n        /* \"#utility.yul\":11999:12116   */\n    tag_325:\n        /* \"#utility.yul\":12140:12203   */\n      tag_327\n        /* \"#utility.yul\":12195:12202   */\n      dup7\n        /* \"#utility.yul\":12186:12192   */\n      dup3\n        /* \"#utility.yul\":12175:12184   */\n      dup8\n        /* \"#utility.yul\":12171:12193   */\n      add\n        /* \"#utility.yul\":12140:12203   */\n      tag_168\n      jump\t// in\n    tag_327:\n        /* \"#utility.yul\":12130:12203   */\n      swap2\n      pop\n        /* \"#utility.yul\":11925:12213   */\n      pop\n        /* \"#utility.yul\":11241:12220   */\n      swap3\n      pop\n      swap3\n      pop\n      swap3\n      jump\t// out\n        /* \"#utility.yul\":12226:12700   */\n    tag_49:\n        /* \"#utility.yul\":12294:12300   */\n      0x00\n        /* \"#utility.yul\":12302:12308   */\n      0x00\n        /* \"#utility.yul\":12351:12353   */\n      0x40\n        /* \"#utility.yul\":12339:12348   */\n      dup4\n        /* \"#utility.yul\":12330:12337   */\n      dup6\n        /* \"#utility.yul\":12326:12349   */\n      sub\n        /* \"#utility.yul\":12322:12354   */\n      slt\n        /* \"#utility.yul\":12319:12438   */\n      iszero\n      tag_329\n      jumpi\n        /* \"#utility.yul\":12357:12436   */\n      tag_330\n      tag_128\n      jump\t// in\n    tag_330:\n        /* \"#utility.yul\":12319:12438   */\n    tag_329:\n        /* \"#utility.yul\":12477:12478   */\n      0x00\n        /* \"#utility.yul\":12502:12555   */\n      tag_331\n        /* \"#utility.yul\":12547:12554   */\n      dup6\n        /* \"#utility.yul\":12538:12544   */\n      dup3\n        /* \"#utility.yul\":12527:12536   */\n      dup7\n        /* \"#utility.yul\":12523:12545   */\n      add\n        /* \"#utility.yul\":12502:12555   */\n      tag_134\n      jump\t// in\n    tag_331:\n        /* \"#utility.yul\":12492:12555   */\n      swap3\n      pop\n        /* \"#utility.yul\":12448:12565   */\n      pop\n        /* \"#utility.yul\":12604:12606   */\n      0x20\n        /* \"#utility.yul\":12630:12683   */\n      tag_332\n        /* \"#utility.yul\":12675:12682   */\n      dup6\n        /* \"#utility.yul\":12666:12672   */\n      dup3\n        /* \"#utility.yul\":12655:12664   */\n      dup7\n        /* \"#utility.yul\":12651:12673   */\n      add\n        /* \"#utility.yul\":12630:12683   */\n      tag_134\n      jump\t// in\n    tag_332:\n        /* \"#utility.yul\":12620:12683   */\n      swap2\n      pop\n        /* \"#utility.yul\":12575:12693   */\n      pop\n        /* \"#utility.yul\":12226:12700   */\n      swap3\n      pop\n      swap3\n      swap1\n      pop\n      jump\t// out\n        /* \"#utility.yul\":12706:12824   */\n    tag_169:\n        /* \"#utility.yul\":12793:12817   */\n      tag_334\n        /* \"#utility.yul\":12811:12816   */\n      dup2\n        /* \"#utility.yul\":12793:12817   */\n      tag_139\n      jump\t// in\n    tag_334:\n        /* \"#utility.yul\":12788:12791   */\n      dup3\n        /* \"#utility.yul\":12781:12818   */\n      mstore\n        /* \"#utility.yul\":12706:12824   */\n      pop\n      pop\n      jump\t// out\n        /* \"#utility.yul\":12830:12999   */\n    tag_170:\n        /* \"#utility.yul\":12914:12925   */\n      0x00\n        /* \"#utility.yul\":12948:12954   */\n      dup3\n        /* \"#utility.yul\":12943:12946   */\n      dup3\n        /* \"#utility.yul\":12936:12955   */\n      mstore\n        /* \"#utility.yul\":12988:12992   */\n      0x20\n        /* \"#utility.yul\":12983:12986   */\n      dup3\n        /* \"#utility.yul\":12979:12993   */\n      add\n        /* \"#utility.yul\":12964:12993   */\n      swap1\n      pop\n        /* \"#utility.yul\":12830:12999   */\n      swap3\n      swap2\n      pop\n      pop\n      jump\t// out\n        /* \"#utility.yul\":13005:13382   */\n    tag_171:\n        /* \"#utility.yul\":13093:13096   */\n      0x00\n        /* \"#utility.yul\":13121:13160   */\n      tag_337\n        /* \"#utility.yul\":13154:13159   */\n      dup3\n        /* \"#utility.yul\":13121:13160   */\n      tag_142\n      jump\t// in\n    tag_337:\n        /* \"#utility.yul\":13176:13247   */\n      tag_338\n        /* \"#utility.yul\":13240:13246   */\n      dup2\n        /* \"#utility.yul\":13235:13238   */\n      dup6\n        /* \"#utility.yul\":13176:13247   */\n      tag_170\n      jump\t// in\n    tag_338:\n        /* \"#utility.yul\":13169:13247   */\n      swap4\n      pop\n        /* \"#utility.yul\":13256:13321   */\n      tag_339\n        /* \"#utility.yul\":13314:13320   */\n      dup2\n        /* \"#utility.yul\":13309:13312   */\n      dup6\n        /* \"#utility.yul\":13302:13306   */\n      0x20\n        /* \"#utility.yul\":13295:13300   */\n      dup7\n        /* \"#utility.yul\":13291:13307   */\n      add\n        /* \"#utility.yul\":13256:13321   */\n      tag_144\n      jump\t// in\n    tag_339:\n        /* \"#utility.yul\":13346:13375   */\n      tag_340\n        /* \"#utility.yul\":13368:13374   */\n      dup2\n        /* \"#utility.yul\":13346:13375   */\n      tag_145\n      jump\t// in\n    tag_340:\n        /* \"#utility.yul\":13341:13344   */\n      dup5\n        /* \"#utility.yul\":13337:13376   */\n      add\n        /* \"#utility.yul\":13330:13376   */\n      swap2\n      pop\n        /* \"#utility.yul\":13097:13382   */\n      pop\n        /* \"#utility.yul\":13005:13382   */\n      swap3\n      swap2\n      pop\n      pop\n      jump\t// out\n        /* \"#utility.yul\":13388:14123   */\n    tag_52:\n        /* \"#utility.yul\":13605:13609   */\n      0x00\n        /* \"#utility.yul\":13643:13646   */\n      0x80\n        /* \"#utility.yul\":13632:13641   */\n      dup3\n        /* \"#utility.yul\":13628:13647   */\n      add\n        /* \"#utility.yul\":13620:13647   */\n      swap1\n      pop\n        /* \"#utility.yul\":13657:13728   */\n      tag_342\n        /* \"#utility.yul\":13725:13726   */\n      0x00\n        /* \"#utility.yul\":13714:13723   */\n      dup4\n        /* \"#utility.yul\":13710:13727   */\n      add\n        /* \"#utility.yul\":13701:13707   */\n      dup8\n        /* \"#utility.yul\":13657:13728   */\n      tag_169\n      jump\t// in\n    tag_342:\n        /* \"#utility.yul\":13738:13810   */\n      tag_343\n        /* \"#utility.yul\":13806:13808   */\n      0x20\n        /* \"#utility.yul\":13795:13804   */\n      dup4\n        /* \"#utility.yul\":13791:13809   */\n      add\n        /* \"#utility.yul\":13782:13788   */\n      dup7\n        /* \"#utility.yul\":13738:13810   */\n      tag_151\n      jump\t// in\n    tag_343:\n        /* \"#utility.yul\":13857:13866   */\n      dup2\n        /* \"#utility.yul\":13851:13855   */\n      dup2\n        /* \"#utility.yul\":13847:13867   */\n      sub\n        /* \"#utility.yul\":13842:13844   */\n      0x40\n        /* \"#utility.yul\":13831:13840   */\n      dup4\n        /* \"#utility.yul\":13827:13845   */\n      add\n        /* \"#utility.yul\":13820:13868   */\n      mstore\n        /* \"#utility.yul\":13885:13963   */\n      tag_344\n        /* \"#utility.yul\":13958:13962   */\n      dup2\n        /* \"#utility.yul\":13949:13955   */\n      dup6\n        /* \"#utility.yul\":13885:13963   */\n      tag_171\n      jump\t// in\n    tag_344:\n        /* \"#utility.yul\":13877:13963   */\n      swap1\n      pop\n        /* \"#utility.yul\":14010:14019   */\n      dup2\n        /* \"#utility.yul\":14004:14008   */\n      dup2\n        /* \"#utility.yul\":14000:14020   */\n      sub\n        /* \"#utility.yul\":13995:13997   */\n      0x60\n        /* \"#utility.yul\":13984:13993   */\n      dup4\n        /* \"#utility.yul\":13980:13998   */\n      add\n        /* \"#utility.yul\":13973:14021   */\n      mstore\n        /* \"#utility.yul\":14038:14116   */\n      tag_345\n        /* \"#utility.yul\":14111:14115   */\n      dup2\n        /* \"#utility.yul\":14102:14108   */\n      dup5\n        /* \"#utility.yul\":14038:14116   */\n      tag_171\n      jump\t// in\n    tag_345:\n        /* \"#utility.yul\":14030:14116   */\n      swap1\n      pop\n        /* \"#utility.yul\":13388:14123   */\n      swap6\n      swap5\n      pop\n      pop\n      pop\n      pop\n      pop\n      jump\t// out\n        /* \"#utility.yul\":14129:14963   */\n    tag_55:\n        /* \"#utility.yul\":14217:14223   */\n      0x00\n        /* \"#utility.yul\":14225:14231   */\n      0x00\n        /* \"#utility.yul\":14274:14276   */\n      0x40\n        /* \"#utility.yul\":14262:14271   */\n      dup4\n        /* \"#utility.yul\":14253:14260   */\n      dup6\n        /* \"#utility.yul\":14249:14272   */\n      sub\n        /* \"#utility.yul\":14245:14277   */\n      slt\n        /* \"#utility.yul\":14242:14361   */\n      iszero\n      tag_347\n      jumpi\n        /* \"#utility.yul\":14280:14359   */\n      tag_348\n      tag_128\n      jump\t// in\n    tag_348:\n        /* \"#utility.yul\":14242:14361   */\n    tag_347:\n        /* \"#utility.yul\":14428:14429   */\n      0x00\n        /* \"#utility.yul\":14417:14426   */\n      dup4\n        /* \"#utility.yul\":14413:14430   */\n      add\n        /* \"#utility.yul\":14400:14431   */\n      calldataload\n        /* \"#utility.yul\":14458:14476   */\n      0xffffffffffffffff\n        /* \"#utility.yul\":14450:14456   */\n      dup2\n        /* \"#utility.yul\":14447:14477   */\n      gt\n        /* \"#utility.yul\":14444:14561   */\n      iszero\n      tag_349\n      jumpi\n        /* \"#utility.yul\":14480:14559   */\n      tag_350\n      tag_129\n      jump\t// in\n    tag_350:\n        /* \"#utility.yul\":14444:14561   */\n    tag_349:\n        /* \"#utility.yul\":14585:14648   */\n      tag_351\n        /* \"#utility.yul\":14640:14647   */\n      dup6\n        /* \"#utility.yul\":14631:14637   */\n      dup3\n        /* \"#utility.yul\":14620:14629   */\n      dup7\n        /* \"#utility.yul\":14616:14638   */\n      add\n        /* \"#utility.yul\":14585:14648   */\n      tag_168\n      jump\t// in\n    tag_351:\n        /* \"#utility.yul\":14575:14648   */\n      swap3\n      pop\n        /* \"#utility.yul\":14371:14658   */\n      pop\n        /* \"#utility.yul\":14725:14727   */\n      0x20\n        /* \"#utility.yul\":14714:14723   */\n      dup4\n        /* \"#utility.yul\":14710:14728   */\n      add\n        /* \"#utility.yul\":14697:14729   */\n      calldataload\n        /* \"#utility.yul\":14756:14774   */\n      0xffffffffffffffff\n        /* \"#utility.yul\":14748:14754   */\n      dup2\n        /* \"#utility.yul\":14745:14775   */\n      gt\n        /* \"#utility.yul\":14742:14859   */\n      iszero\n      tag_352\n      jumpi\n        /* \"#utility.yul\":14778:14857   */\n      tag_353\n      tag_129\n      jump\t// in\n    tag_353:\n        /* \"#utility.yul\":14742:14859   */\n    tag_352:\n        /* \"#utility.yul\":14883:14946   */\n      tag_354\n        /* \"#utility.yul\":14938:14945   */\n      dup6\n        /* \"#utility.yul\":14929:14935   */\n      dup3\n        /* \"#utility.yul\":14918:14927   */\n      dup7\n        /* \"#utility.yul\":14914:14936   */\n      add\n        /* \"#utility.yul\":14883:14946   */\n      tag_168\n      jump\t// in\n    tag_354:\n        /* \"#utility.yul\":14873:14946   */\n      swap2\n      pop\n        /* \"#utility.yul\":14668:14956   */\n      pop\n        /* \"#utility.yul\":14129:14963   */\n      swap3\n      pop\n      swap3\n      swap1\n      pop\n      jump\t// out\n        /* \"#utility.yul\":14969:15142   */\n    tag_172:\n        /* \"#utility.yul\":15109:15134   */\n      0x5573657220616c72656164792072656769737465726564000000000000000000\n        /* \"#utility.yul\":15105:15106   */\n      0x00\n        /* \"#utility.yul\":15097:15103   */\n      dup3\n        /* \"#utility.yul\":15093:15107   */\n      add\n        /* \"#utility.yul\":15086:15135   */\n      mstore\n        /* \"#utility.yul\":14969:15142   */\n      pop\n      jump\t// out\n        /* \"#utility.yul\":15148:15514   */\n    tag_173:\n        /* \"#utility.yul\":15290:15293   */\n      0x00\n        /* \"#utility.yul\":15311:15378   */\n      tag_357\n        /* \"#utility.yul\":15375:15377   */\n      0x17\n        /* \"#utility.yul\":15370:15373   */\n      dup4\n        /* \"#utility.yul\":15311:15378   */\n      tag_170\n      jump\t// in\n    tag_357:\n        /* \"#utility.yul\":15304:15378   */\n      swap2\n      pop\n        /* \"#utility.yul\":15387:15480   */\n      tag_358\n        /* \"#utility.yul\":15476:15479   */\n      dup3\n        /* \"#utility.yul\":15387:15480   */\n      tag_172\n      jump\t// in\n    tag_358:\n        /* \"#utility.yul\":15505:15507   */\n      0x20\n        /* \"#utility.yul\":15500:15503   */\n      dup3\n        /* \"#utility.yul\":15496:15508   */\n      add\n        /* \"#utility.yul\":15489:15508   */\n      swap1\n      pop\n        /* \"#utility.yul\":15148:15514   */\n      swap2\n      swap1\n      pop\n      jump\t// out\n        /* \"#utility.yul\":15520:15939   */\n    tag_60:\n        /* \"#utility.yul\":15686:15690   */\n      0x00\n        /* \"#utility.yul\":15724:15726   */\n      0x20\n        /* \"#utility.yul\":15713:15722   */\n      dup3\n        /* \"#utility.yul\":15709:15727   */\n      add\n        /* \"#utility.yul\":15701:15727   */\n      swap1\n      pop\n        /* \"#utility.yul\":15773:15782   */\n      dup2\n        /* \"#utility.yul\":15767:15771   */\n      dup2\n        /* \"#utility.yul\":15763:15783   */\n      sub\n        /* \"#utility.yul\":15759:15760   */\n      0x00\n        /* \"#utility.yul\":15748:15757   */\n      dup4\n        /* \"#utility.yul\":15744:15761   */\n      add\n        /* \"#utility.yul\":15737:15784   */\n      mstore\n        /* \"#utility.yul\":15801:15932   */\n      tag_360\n        /* \"#utility.yul\":15927:15931   */\n      dup2\n        /* \"#utility.yul\":15801:15932   */\n      tag_173\n      jump\t// in\n    tag_360:\n        /* \"#utility.yul\":15793:15932   */\n      swap1\n      pop\n        /* \"#utility.yul\":15520:15939   */\n      swap2\n      swap1\n      pop\n      jump\t// out\n        /* \"#utility.yul\":15945:16125   */\n    tag_174:\n        /* \"#utility.yul\":15993:16070   */\n      0x4e487b7100000000000000000000000000000000000000000000000000000000\n        /* \"#utility.yul\":15990:15991   */\n      0x00\n        /* \"#utility.yul\":15983:16071   */\n      mstore\n        /* \"#utility.yul\":16090:16094   */\n      0x22\n        /* \"#utility.yul\":16087:16088   */\n      0x04\n        /* \"#utility.yul\":16080:16095   */\n      mstore\n        /* \"#utility.yul\":16114:16118   */\n      0x24\n        /* \"#utility.yul\":16111:16112   */\n      0x00\n        /* \"#utility.yul\":16104:16119   */\n      revert\n        /* \"#utility.yul\":16131:16451   */\n    tag_69:\n        /* \"#utility.yul\":16175:16181   */\n      0x00\n        /* \"#utility.yul\":16212:16213   */\n      0x02\n        /* \"#utility.yul\":16206:16210   */\n      dup3\n        /* \"#utility.yul\":16202:16214   */\n      div\n        /* \"#utility.yul\":16192:16214   */\n      swap1\n      pop\n        /* \"#utility.yul\":16259:16260   */\n      0x01\n        /* \"#utility.yul\":16253:16257   */\n      dup3\n        /* \"#utility.yul\":16249:16261   */\n      and\n        /* \"#utility.yul\":16280:16298   */\n      dup1\n        /* \"#utility.yul\":16270:16351   */\n      tag_363\n      jumpi\n        /* \"#utility.yul\":16336:16340   */\n      0x7f\n        /* \"#utility.yul\":16328:16334   */\n      dup3\n        /* \"#utility.yul\":16324:16341   */\n      and\n        /* \"#utility.yul\":16314:16341   */\n      swap2\n      pop\n        /* \"#utility.yul\":16270:16351   */\n    tag_363:\n        /* \"#utility.yul\":16398:16400   */\n      0x20\n        /* \"#utility.yul\":16390:16396   */\n      dup3\n        /* \"#utility.yul\":16387:16401   */\n      lt\n        /* \"#utility.yul\":16367:16385   */\n      dup2\n        /* \"#utility.yul\":16364:16402   */\n      sub\n        /* \"#utility.yul\":16361:16445   */\n      tag_364\n      jumpi\n        /* \"#utility.yul\":16417:16435   */\n      tag_365\n      tag_174\n      jump\t// in\n    tag_365:\n        /* \"#utility.yul\":16361:16445   */\n    tag_364:\n        /* \"#utility.yul\":16182:16451   */\n      pop\n        /* \"#utility.yul\":16131:16451   */\n      swap2\n      swap1\n      pop\n      jump\t// out\n        /* \"#utility.yul\":16457:16626   */\n    tag_175:\n        /* \"#utility.yul\":16597:16618   */\n      0x55736572206e6f74207265676973746572656400000000000000000000000000\n        /* \"#utility.yul\":16593:16594   */\n      0x00\n        /* \"#utility.yul\":16585:16591   */\n      dup3\n        /* \"#utility.yul\":16581:16595   */\n      add\n        /* \"#utility.yul\":16574:16619   */\n      mstore\n        /* \"#utility.yul\":16457:16626   */\n      pop\n      jump\t// out\n        /* \"#utility.yul\":16632:16998   */\n    tag_176:\n        /* \"#utility.yul\":16774:16777   */\n      0x00\n        /* \"#utility.yul\":16795:16862   */\n      tag_368\n        /* \"#utility.yul\":16859:16861   */\n      0x13\n        /* \"#utility.yul\":16854:16857   */\n      dup4\n        /* \"#utility.yul\":16795:16862   */\n      tag_170\n      jump\t// in\n    tag_368:\n        /* \"#utility.yul\":16788:16862   */\n      swap2\n      pop\n        /* \"#utility.yul\":16871:16964   */\n      tag_369\n        /* \"#utility.yul\":16960:16963   */\n      dup3\n        /* \"#utility.yul\":16871:16964   */\n      tag_175\n      jump\t// in\n    tag_369:\n        /* \"#utility.yul\":16989:16991   */\n      0x20\n        /* \"#utility.yul\":16984:16987   */\n      dup3\n        /* \"#utility.yul\":16980:16992   */\n      add\n        /* \"#utility.yul\":16973:16992   */\n      swap1\n      pop\n        /* \"#utility.yul\":16632:16998   */\n      swap2\n      swap1\n      pop\n      jump\t// out\n        /* \"#utility.yul\":17004:17423   */\n    tag_82:\n        /* \"#utility.yul\":17170:17174   */\n      0x00\n        /* \"#utility.yul\":17208:17210   */\n      0x20\n        /* \"#utility.yul\":17197:17206   */\n      dup3\n        /* \"#utility.yul\":17193:17211   */\n      add\n        /* \"#utility.yul\":17185:17211   */\n      swap1\n      pop\n        /* \"#utility.yul\":17257:17266   */\n      dup2\n        /* \"#utility.yul\":17251:17255   */\n      dup2\n        /* \"#utility.yul\":17247:17267   */\n      sub\n        /* \"#utility.yul\":17243:17244   */\n      0x00\n        /* \"#utility.yul\":17232:17241   */\n      dup4\n        /* \"#utility.yul\":17228:17245   */\n      add\n        /* \"#utility.yul\":17221:17268   */\n      mstore\n        /* \"#utility.yul\":17285:17416   */\n      tag_371\n        /* \"#utility.yul\":17411:17415   */\n      dup2\n        /* \"#utility.yul\":17285:17416   */\n      tag_176\n      jump\t// in\n    tag_371:\n        /* \"#utility.yul\":17277:17416   */\n      swap1\n      pop\n        /* \"#utility.yul\":17004:17423   */\n      swap2\n      swap1\n      pop\n      jump\t// out\n        /* \"#utility.yul\":17429:17597   */\n    tag_177:\n        /* \"#utility.yul\":17569:17589   */\n      0x55736572206e6f74206c6f6767656420696e0000000000000000000000000000\n        /* \"#utility.yul\":17565:17566   */\n      0x00\n        /* \"#utility.yul\":17557:17563   */\n      dup3\n        /* \"#utility.yul\":17553:17567   */\n      add\n        /* \"#utility.yul\":17546:17590   */\n      mstore\n        /* \"#utility.yul\":17429:17597   */\n      pop\n      jump\t// out\n        /* \"#utility.yul\":17603:17969   */\n    tag_178:\n        /* \"#utility.yul\":17745:17748   */\n      0x00\n        /* \"#utility.yul\":17766:17833   */\n      tag_374\n        /* \"#utility.yul\":17830:17832   */\n      0x12\n        /* \"#utility.yul\":17825:17828   */\n      dup4\n        /* \"#utility.yul\":17766:17833   */\n      tag_170\n      jump\t// in\n    tag_374:\n        /* \"#utility.yul\":17759:17833   */\n      swap2\n      pop\n        /* \"#utility.yul\":17842:17935   */\n      tag_375\n        /* \"#utility.yul\":17931:17934   */\n      dup3\n        /* \"#utility.yul\":17842:17935   */\n      tag_177\n      jump\t// in\n    tag_375:\n        /* \"#utility.yul\":17960:17962   */\n      0x20\n        /* \"#utility.yul\":17955:17958   */\n      dup3\n        /* \"#utility.yul\":17951:17963   */\n      add\n        /* \"#utility.yul\":17944:17963   */\n      swap1\n      pop\n        /* \"#utility.yul\":17603:17969   */\n      swap2\n      swap1\n      pop\n      jump\t// out\n        /* \"#utility.yul\":17975:18394   */\n    tag_85:\n        /* \"#utility.yul\":18141:18145   */\n      0x00\n        /* \"#utility.yul\":18179:18181   */\n      0x20\n        /* \"#utility.yul\":18168:18177   */\n      dup3\n        /* \"#utility.yul\":18164:18182   */\n      add\n        /* \"#utility.yul\":18156:18182   */\n      swap1\n      pop\n        /* \"#utility.yul\":18228:18237   */\n      dup2\n        /* \"#utility.yul\":18222:18226   */\n      dup2\n        /* \"#utility.yul\":18218:18238   */\n      sub\n        /* \"#utility.yul\":18214:18215   */\n      0x00\n        /* \"#utility.yul\":18203:18212   */\n      dup4\n        /* \"#utility.yul\":18199:18216   */\n      add\n        /* \"#utility.yul\":18192:18239   */\n      mstore\n        /* \"#utility.yul\":18256:18387   */\n      tag_377\n        /* \"#utility.yul\":18382:18386   */\n      dup2\n        /* \"#utility.yul\":18256:18387   */\n      tag_178\n      jump\t// in\n    tag_377:\n        /* \"#utility.yul\":18248:18387   */\n      swap1\n      pop\n        /* \"#utility.yul\":17975:18394   */\n      swap2\n      swap1\n      pop\n      jump\t// out\n        /* \"#utility.yul\":18400:18570   */\n    tag_179:\n        /* \"#utility.yul\":18540:18562   */\n      0x426174636820646f6573206e6f74206578697374000000000000000000000000\n        /* \"#utility.yul\":18536:18537   */\n      0x00\n        /* \"#utility.yul\":18528:18534   */\n      dup3\n        /* \"#utility.yul\":18524:18538   */\n      add\n        /* \"#utility.yul\":18517:18563   */\n      mstore\n        /* \"#utility.yul\":18400:18570   */\n      pop\n      jump\t// out\n        /* \"#utility.yul\":18576:18942   */\n    tag_180:\n        /* \"#utility.yul\":18718:18721   */\n      0x00\n        /* \"#utility.yul\":18739:18806   */\n      tag_380\n        /* \"#utility.yul\":18803:18805   */\n      0x14\n        /* \"#utility.yul\":18798:18801   */\n      dup4\n        /* \"#utility.yul\":18739:18806   */\n      tag_170\n      jump\t// in\n    tag_380:\n        /* \"#utility.yul\":18732:18806   */\n      swap2\n      pop\n        /* \"#utility.yul\":18815:18908   */\n      tag_381\n        /* \"#utility.yul\":18904:18907   */\n      dup3\n        /* \"#utility.yul\":18815:18908   */\n      tag_179\n      jump\t// in\n    tag_381:\n        /* \"#utility.yul\":18933:18935   */\n      0x20\n        /* \"#utility.yul\":18928:18931   */\n      dup3\n        /* \"#utility.yul\":18924:18936   */\n      add\n        /* \"#utility.yul\":18917:18936   */\n      swap1\n      pop\n        /* \"#utility.yul\":18576:18942   */\n      swap2\n      swap1\n      pop\n      jump\t// out\n        /* \"#utility.yul\":18948:19367   */\n    tag_90:\n        /* \"#utility.yul\":19114:19118   */\n      0x00\n        /* \"#utility.yul\":19152:19154   */\n      0x20\n        /* \"#utility.yul\":19141:19150   */\n      dup3\n        /* \"#utility.yul\":19137:19155   */\n      add\n        /* \"#utility.yul\":19129:19155   */\n      swap1\n      pop\n        /* \"#utility.yul\":19201:19210   */\n      dup2\n        /* \"#utility.yul\":19195:19199   */\n      dup2\n        /* \"#utility.yul\":19191:19211   */\n      sub\n        /* \"#utility.yul\":19187:19188   */\n      0x00\n        /* \"#utility.yul\":19176:19185   */\n      dup4\n        /* \"#utility.yul\":19172:19189   */\n      add\n        /* \"#utility.yul\":19165:19212   */\n      mstore\n        /* \"#utility.yul\":19229:19360   */\n      tag_383\n        /* \"#utility.yul\":19355:19359   */\n      dup2\n        /* \"#utility.yul\":19229:19360   */\n      tag_180\n      jump\t// in\n    tag_383:\n        /* \"#utility.yul\":19221:19360   */\n      swap1\n      pop\n        /* \"#utility.yul\":18948:19367   */\n      swap2\n      swap1\n      pop\n      jump\t// out\n        /* \"#utility.yul\":19373:19514   */\n    tag_181:\n        /* \"#utility.yul\":19422:19426   */\n      0x00\n        /* \"#utility.yul\":19445:19448   */\n      dup2\n        /* \"#utility.yul\":19437:19448   */\n      swap1\n      pop\n        /* \"#utility.yul\":19468:19471   */\n      dup2\n        /* \"#utility.yul\":19465:19466   */\n      0x00\n        /* \"#utility.yul\":19458:19472   */\n      mstore\n        /* \"#utility.yul\":19502:19506   */\n      0x20\n        /* \"#utility.yul\":19499:19500   */\n      0x00\n        /* \"#utility.yul\":19489:19507   */\n      keccak256\n        /* \"#utility.yul\":19481:19507   */\n      swap1\n      pop\n        /* \"#utility.yul\":19373:19514   */\n      swap2\n      swap1\n      pop\n      jump\t// out\n        /* \"#utility.yul\":19520:19613   */\n    tag_182:\n        /* \"#utility.yul\":19557:19563   */\n      0x00\n        /* \"#utility.yul\":19604:19606   */\n      0x20\n        /* \"#utility.yul\":19599:19601   */\n      0x1f\n        /* \"#utility.yul\":19592:19597   */\n      dup4\n        /* \"#utility.yul\":19588:19602   */\n      add\n        /* \"#utility.yul\":19584:19607   */\n      div\n        /* \"#utility.yul\":19574:19607   */\n      swap1\n      pop\n        /* \"#utility.yul\":19520:19613   */\n      swap2\n      swap1\n      pop\n      jump\t// out\n        /* \"#utility.yul\":19619:19726   */\n    tag_183:\n        /* \"#utility.yul\":19663:19671   */\n      0x00\n        /* \"#utility.yul\":19713:19718   */\n      dup3\n        /* \"#utility.yul\":19707:19711   */\n      dup3\n        /* \"#utility.yul\":19703:19719   */\n      shl\n        /* \"#utility.yul\":19682:19719   */\n      swap1\n      pop\n        /* \"#utility.yul\":19619:19726   */\n      swap3\n      swap2\n      pop\n      pop\n      jump\t// out\n        /* \"#utility.yul\":19732:20125   */\n    tag_184:\n        /* \"#utility.yul\":19801:19807   */\n      0x00\n        /* \"#utility.yul\":19851:19852   */\n      0x08\n        /* \"#utility.yul\":19839:19849   */\n      dup4\n        /* \"#utility.yul\":19835:19853   */\n      mul\n        /* \"#utility.yul\":19874:19971   */\n      tag_388\n        /* \"#utility.yul\":19904:19970   */\n      0xffffffffffffffffffffffffffffffffffffffffffffffffffffffffffffffff\n        /* \"#utility.yul\":19893:19902   */\n      dup3\n        /* \"#utility.yul\":19874:19971   */\n      tag_183\n      jump\t// in\n    tag_388:\n        /* \"#utility.yul\":19992:20031   */\n      tag_389\n        /* \"#utility.yul\":20022:20030   */\n      dup7\n        /* \"#utility.yul\":20011:20020   */\n      dup4\n        /* \"#utility.yul\":19992:20031   */\n      tag_183\n      jump\t// in\n    tag_389:\n        /* \"#utility.yul\":19980:20031   */\n      swap6\n      pop\n        /* \"#utility.yul\":20064:20068   */\n      dup1\n        /* \"#utility.yul\":20060:20069   */\n      not\n        /* \"#utility.yul\":20053:20058   */\n      dup5\n        /* \"#utility.yul\":20049:20070   */\n      and\n        /* \"#utility.yul\":20040:20070   */\n      swap4\n      pop\n        /* \"#utility.yul\":20113:20117   */\n      dup1\n        /* \"#utility.yul\":20103:20111   */\n      dup7\n        /* \"#utility.yul\":20099:20118   */\n      and\n        /* \"#utility.yul\":20092:20097   */\n      dup5\n        /* \"#utility.yul\":20089:20119   */\n      or\n        /* \"#utility.yul\":20079:20119   */\n      swap3\n      pop\n        /* \"#utility.yul\":19808:20125   */\n      pop\n      pop\n        /* \"#utility.yul\":19732:20125   */\n      swap4\n      swap3\n      pop\n      pop\n      pop\n      jump\t// out\n        /* \"#utility.yul\":20131:20191   */\n    tag_185:\n        /* \"#utility.yul\":20159:20162   */\n      0x00\n        /* \"#utility.yul\":20180:20185   */\n      dup2\n        /* \"#utility.yul\":20173:20185   */\n      swap1\n      pop\n        /* \"#utility.yul\":20131:20191   */\n      swap2\n      swap1\n      pop\n      jump\t// out\n        /* \"#utility.yul\":20197:20339   */\n    tag_186:\n        /* \"#utility.yul\":20247:20256   */\n      0x00\n        /* \"#utility.yul\":20280:20333   */\n      tag_392\n        /* \"#utility.yul\":20298:20332   */\n      tag_393\n        /* \"#utility.yul\":20307:20331   */\n      tag_394\n        /* \"#utility.yul\":20325:20330   */\n      dup5\n        /* \"#utility.yul\":20307:20331   */\n      tag_132\n      jump\t// in\n    tag_394:\n        /* \"#utility.yul\":20298:20332   */\n      tag_185\n      jump\t// in\n    tag_393:\n        /* \"#utility.yul\":20280:20333   */\n      tag_132\n      jump\t// in\n    tag_392:\n        /* \"#utility.yul\":20267:20333   */\n      swap1\n      pop\n        /* \"#utility.yul\":20197:20339   */\n      swap2\n      swap1\n      pop\n      jump\t// out\n        /* \"#utility.yul\":20345:20420   */\n    tag_187:\n        /* \"#utility.yul\":20388:20391   */\n      0x00\n        /* \"#utility.yul\":20409:20414   */\n      dup2\n        /* \"#utility.yul\":20402:20414   */\n      swap1\n      pop\n        /* \"#utility.yul\":20345:20420   */\n      swap2\n      swap1\n      pop\n      jump\t// out\n        /* \"#utility.yul\":20426:20695   */\n    tag_188:\n        /* \"#utility.yul\":20536:20575   */\n      tag_397\n        /* \"#utility.yul\":20567:20574   */\n      dup4\n        /* \"#utility.yul\":20536:20575   */\n      tag_186\n      jump\t// in\n    tag_397:\n        /* \"#utility.yul\":20597:20688   */\n      tag_398\n        /* \"#utility.yul\":20646:20687   */\n      tag_399\n        /* \"#utility.yul\":20670:20686   */\n      dup3\n        /* \"#utility.yul\":20646:20687   */\n      tag_187\n      jump\t// in\n    tag_399:\n        /* \"#utility.yul\":20638:20644   */\n      dup5\n        /* \"#utility.yul\":20631:20635   */\n      dup5\n        /* \"#utility.yul\":20625:20636   */\n      sload\n        /* \"#utility.yul\":20597:20688   */\n      tag_184\n      jump\t// in\n    tag_398:\n        /* \"#utility.yul\":20591:20595   */\n      dup3\n        /* \"#utility.yul\":20584:20689   */\n      sstore\n        /* \"#utility.yul\":20502:20695   */\n      pop\n        /* \"#utility.yul\":20426:20695   */\n      pop\n      pop\n      pop\n      jump\t// out\n        /* \"#utility.yul\":20701:20774   */\n    tag_189:\n        /* \"#utility.yul\":20746:20749   */\n      0x00\n        /* \"#utility.yul\":20767:20768   */\n      0x00\n        /* \"#utility.yul\":20760:20768   */\n      swap1\n      pop\n        /* \"#utility.yul\":20701:20774   */\n      swap1\n      jump\t// out\n        /* \"#utility.yul\":20780:20969   */\n    tag_190:\n        /* \"#utility.yul\":20857:20889   */\n      tag_402\n      tag_189\n      jump\t// in\n    tag_402:\n        /* \"#utility.yul\":20898:20963   */\n      tag_403\n        /* \"#utility.yul\":20956:20962   */\n      dup2\n        /* \"#utility.yul\":20948:20954   */\n      dup5\n        /* \"#utility.yul\":20942:20946   */\n      dup5\n        /* \"#utility.yul\":20898:20963   */\n      tag_188\n      jump\t// in\n    tag_403:\n        /* \"#utility.yul\":20833:20969   */\n      pop\n        /* \"#utility.yul\":20780:20969   */\n      pop\n      pop\n      jump\t// out\n        /* \"#utility.yul\":20975:21161   */\n    tag_191:\n        /* \"#utility.yul\":21035:21155   */\n    tag_405:\n        /* \"#utility.yul\":21052:21055   */\n      dup2\n        /* \"#utility.yul\":21045:21050   */\n      dup2\n        /* \"#utility.yul\":21042:21056   */\n      lt\n        /* \"#utility.yul\":21035:21155   */\n      iszero\n      tag_407\n      jumpi\n        /* \"#utility.yul\":21106:21145   */\n      tag_408\n        /* \"#utility.yul\":21143:21144   */\n      0x00\n        /* \"#utility.yul\":21136:21141   */\n      dup3\n        /* \"#utility.yul\":21106:21145   */\n      tag_190\n      jump\t// in\n    tag_408:\n        /* \"#utility.yul\":21079:21080   */\n      0x01\n        /* \"#utility.yul\":21072:21077   */\n      dup2\n        /* \"#utility.yul\":21068:21081   */\n      add\n        /* \"#utility.yul\":21059:21081   */\n      swap1\n      pop\n        /* \"#utility.yul\":21035:21155   */\n      jump(tag_405)\n    tag_407:\n        /* \"#utility.yul\":20975:21161   */\n      pop\n      pop\n      jump\t// out\n        /* \"#utility.yul\":21167:21710   */\n    tag_192:\n        /* \"#utility.yul\":21268:21270   */\n      0x1f\n        /* \"#utility.yul\":21263:21266   */\n      dup3\n        /* \"#utility.yul\":21260:21271   */\n      gt\n        /* \"#utility.yul\":21257:21703   */\n      iszero\n      tag_410\n      jumpi\n        /* \"#utility.yul\":21302:21340   */\n      tag_411\n        /* \"#utility.yul\":21334:21339   */\n      dup2\n        /* \"#utility.yul\":21302:21340   */\n      tag_181\n      jump\t// in\n    tag_411:\n        /* \"#utility.yul\":21386:21415   */\n      tag_412\n        /* \"#utility.yul\":21404:21414   */\n      dup5\n        /* \"#utility.yul\":21386:21415   */\n      tag_182\n      jump\t// in\n    tag_412:\n        /* \"#utility.yul\":21376:21384   */\n      dup2\n        /* \"#utility.yul\":21372:21416   */\n      add\n        /* \"#utility.yul\":21569:21571   */\n      0x20\n        /* \"#utility.yul\":21557:21567   */\n      dup6\n        /* \"#utility.yul\":21554:21572   */\n      lt\n        /* \"#utility.yul\":21551:21600   */\n      iszero\n      tag_413\n      jumpi\n        /* \"#utility.yul\":21590:21598   */\n      dup2\n        /* \"#utility.yul\":21575:21598   */\n      swap1\n      pop\n        /* \"#utility.yul\":21551:21600   */\n    tag_413:\n        /* \"#utility.yul\":21613:21693   */\n      tag_414\n        /* \"#utility.yul\":21669:21691   */\n      tag_415\n        /* \"#utility.yul\":21687:21690   */\n      dup6\n        /* \"#utility.yul\":21669:21691   */\n      tag_182\n      jump\t// in\n    tag_415:\n        /* \"#utility.yul\":21659:21667   */\n      dup4\n        /* \"#utility.yul\":21655:21692   */\n      add\n        /* \"#utility.yul\":21642:21653   */\n      dup3\n        /* \"#utility.yul\":21613:21693   */\n      tag_191\n      jump\t// in\n    tag_414:\n        /* \"#utility.yul\":21272:21703   */\n      pop\n      pop\n        /* \"#utility.yul\":21257:21703   */\n    tag_410:\n        /* \"#utility.yul\":21167:21710   */\n      pop\n      pop\n      pop\n      jump\t// out\n        /* \"#utility.yul\":21716:21833   */\n    tag_193:\n        /* \"#utility.yul\":21770:21778   */\n      0x00\n        /* \"#utility.yul\":21820:21825   */\n      dup3\n        /* \"#utility.yul\":21814:21818   */\n      dup3\n        /* \"#utility.yul\":21810:21826   */\n      shr\n        /* \"#utility.yul\":21789:21826   */\n      swap1\n      pop\n        /* \"#utility.yul\":21716:21833   */\n      swap3\n      swap2\n      pop\n      pop\n      jump\t// out\n        /* \"#utility.yul\":21839:22008   */\n    tag_194:\n        /* \"#utility.yul\":21883:21889   */\n      0x00\n        /* \"#utility.yul\":21916:21967   */\n      tag_418\n        /* \"#utility.yul\":21964:21965   */\n      0x00\n        /* \"#utility.yul\":21960:21966   */\n      not\n        /* \"#utility.yul\":21952:21957   */\n      dup5\n        /* \"#utility.yul\":21949:21950   */\n      0x08\n        /* \"#utility.yul\":21945:21958   */\n      mul\n        /* \"#utility.yul\":21916:21967   */\n      tag_193\n      jump\t// in\n    tag_418:\n        /* \"#utility.yul\":21912:21968   */\n      not\n        /* \"#utility.yul\":21997:22001   */\n      dup1\n        /* \"#utility.yul\":21991:21995   */\n      dup4\n        /* \"#utility.yul\":21987:22002   */\n      and\n        /* \"#utility.yul\":21977:22002   */\n      swap2\n      pop\n        /* \"#utility.yul\":21890:22008   */\n      pop\n        /* \"#utility.yul\":21839:22008   */\n      swap3\n      swap2\n      pop\n      pop\n      jump\t// out\n        /* \"#utility.yul\":22013:22308   */\n    tag_195:\n        /* \"#utility.yul\":22089:22093   */\n      0x00\n        /* \"#utility.yul\":22235:22264   */\n      tag_420\n        /* \"#utility.yul\":22260:22263   */\n      dup4\n        /* \"#utility.yul\":22254:22258   */\n      dup4\n        /* \"#utility.yul\":22235:22264   */\n      tag_194\n      jump\t// in\n    tag_420:\n        /* \"#utility.yul\":22227:22264   */\n      swap2\n      pop\n        /* \"#utility.yul\":22297:22300   */\n      dup3\n        /* \"#utility.yul\":22294:22295   */\n      0x02\n        /* \"#utility.yul\":22290:22301   */\n      mul\n        /* \"#utility.yul\":22284:22288   */\n      dup3\n        /* \"#utility.yul\":22281:22302   */\n      or\n        /* \"#utility.yul\":22273:22302   */\n      swap1\n      pop\n        /* \"#utility.yul\":22013:22308   */\n      swap3\n      swap2\n      pop\n      pop\n      jump\t// out\n        /* \"#utility.yul\":22313:23708   */\n    tag_93:\n        /* \"#utility.yul\":22430:22467   */\n      tag_422\n        /* \"#utility.yul\":22463:22466   */\n      dup3\n        /* \"#utility.yul\":22430:22467   */\n      tag_142\n      jump\t// in\n    tag_422:\n        /* \"#utility.yul\":22532:22550   */\n      0xffffffffffffffff\n        /* \"#utility.yul\":22524:22530   */\n      dup2\n        /* \"#utility.yul\":22521:22551   */\n      gt\n        /* \"#utility.yul\":22518:22574   */\n      iszero\n      tag_423\n      jumpi\n        /* \"#utility.yul\":22554:22572   */\n      tag_424\n      tag_162\n      jump\t// in\n    tag_424:\n        /* \"#utility.yul\":22518:22574   */\n    tag_423:\n        /* \"#utility.yul\":22598:22636   */\n      tag_425\n        /* \"#utility.yul\":22630:22634   */\n      dup3\n        /* \"#utility.yul\":22624:22635   */\n      sload\n        /* \"#utility.yul\":22598:22636   */\n      tag_69\n      jump\t// in\n    tag_425:\n        /* \"#utility.yul\":22683:22750   */\n      tag_426\n        /* \"#utility.yul\":22743:22749   */\n      dup3\n        /* \"#utility.yul\":22735:22741   */\n      dup3\n        /* \"#utility.yul\":22729:22733   */\n      dup6\n        /* \"#utility.yul\":22683:22750   */\n      tag_192\n      jump\t// in\n    tag_426:\n        /* \"#utility.yul\":22777:22778   */\n      0x00\n        /* \"#utility.yul\":22801:22805   */\n      0x20\n        /* \"#utility.yul\":22788:22805   */\n      swap1\n      pop\n        /* \"#utility.yul\":22833:22835   */\n      0x1f\n        /* \"#utility.yul\":22825:22831   */\n      dup4\n        /* \"#utility.yul\":22822:22836   */\n      gt\n        /* \"#utility.yul\":22850:22851   */\n      0x01\n        /* \"#utility.yul\":22845:23463   */\n      dup2\n      eq\n      tag_428\n      jumpi\n        /* \"#utility.yul\":23507:23508   */\n      0x00\n        /* \"#utility.yul\":23524:23530   */\n      dup5\n        /* \"#utility.yul\":23521:23598   */\n      iszero\n      tag_429\n      jumpi\n        /* \"#utility.yul\":23573:23582   */\n      dup3\n        /* \"#utility.yul\":23568:23571   */\n      dup8\n        /* \"#utility.yul\":23564:23583   */\n      add\n        /* \"#utility.yul\":23558:23584   */\n      mload\n        /* \"#utility.yul\":23549:23584   */\n      swap1\n      pop\n        /* \"#utility.yul\":23521:23598   */\n    tag_429:\n        /* \"#utility.yul\":23624:23691   */\n      tag_430\n        /* \"#utility.yul\":23684:23690   */\n      dup6\n        /* \"#utility.yul\":23677:23682   */\n      dup3\n        /* \"#utility.yul\":23624:23691   */\n      tag_195\n      jump\t// in\n    tag_430:\n        /* \"#utility.yul\":23618:23622   */\n      dup7\n        /* \"#utility.yul\":23611:23692   */\n      sstore\n        /* \"#utility.yul\":23480:23702   */\n      pop\n        /* \"#utility.yul\":22815:23702   */\n      jump(tag_427)\n        /* \"#utility.yul\":22845:23463   */\n    tag_428:\n        /* \"#utility.yul\":22897:22901   */\n      0x1f\n        /* \"#utility.yul\":22893:22902   */\n      not\n        /* \"#utility.yul\":22885:22891   */\n      dup5\n        /* \"#utility.yul\":22881:22903   */\n      and\n        /* \"#utility.yul\":22931:22968   */\n      tag_431\n        /* \"#utility.yul\":22963:22967   */\n      dup7\n        /* \"#utility.yul\":22931:22968   */\n      tag_181\n      jump\t// in\n    tag_431:\n        /* \"#utility.yul\":22990:22991   */\n      0x00\n        /* \"#utility.yul\":23004:23212   */\n    tag_432:\n        /* \"#utility.yul\":23018:23025   */\n      dup3\n        /* \"#utility.yul\":23015:23016   */\n      dup2\n        /* \"#utility.yul\":23012:23026   */\n      lt\n        /* \"#utility.yul\":23004:23212   */\n      iszero\n      tag_434\n      jumpi\n        /* \"#utility.yul\":23097:23106   */\n      dup5\n        /* \"#utility.yul\":23092:23095   */\n      dup10\n        /* \"#utility.yul\":23088:23107   */\n      add\n        /* \"#utility.yul\":23082:23108   */\n      mload\n        /* \"#utility.yul\":23074:23080   */\n      dup3\n        /* \"#utility.yul\":23067:23109   */\n      sstore\n        /* \"#utility.yul\":23148:23149   */\n      0x01\n        /* \"#utility.yul\":23140:23146   */\n      dup3\n        /* \"#utility.yul\":23136:23150   */\n      add\n        /* \"#utility.yul\":23126:23150   */\n      swap2\n      pop\n        /* \"#utility.yul\":23195:23197   */\n      0x20\n        /* \"#utility.yul\":23184:23193   */\n      dup6\n        /* \"#utility.yul\":23180:23198   */\n      add\n        /* \"#utility.yul\":23167:23198   */\n      swap5\n      pop\n        /* \"#utility.yul\":23041:23045   */\n      0x20\n        /* \"#utility.yul\":23038:23039   */\n      dup2\n        /* \"#utility.yul\":23034:23046   */\n      add\n        /* \"#utility.yul\":23029:23046   */\n      swap1\n      pop\n        /* \"#utility.yul\":23004:23212   */\n      jump(tag_432)\n    tag_434:\n        /* \"#utility.yul\":23240:23246   */\n      dup7\n        /* \"#utility.yul\":23231:23238   */\n      dup4\n        /* \"#utility.yul\":23228:23247   */\n      lt\n        /* \"#utility.yul\":23225:23404   */\n      iszero\n      tag_435\n      jumpi\n        /* \"#utility.yul\":23298:23307   */\n      dup5\n        /* \"#utility.yul\":23293:23296   */\n      dup10\n        /* \"#utility.yul\":23289:23308   */\n      add\n        /* \"#utility.yul\":23283:23309   */\n      mload\n        /* \"#utility.yul\":23341:23389   */\n      tag_436\n        /* \"#utility.yul\":23383:23387   */\n      0x1f\n        /* \"#utility.yul\":23375:23381   */\n      dup10\n        /* \"#utility.yul\":23371:23388   */\n      and\n        /* \"#utility.yul\":23360:23369   */\n      dup3\n        /* \"#utility.yul\":23341:23389   */\n      tag_194\n      jump\t// in\n    tag_436:\n        /* \"#utility.yul\":23333:23339   */\n      dup4\n        /* \"#utility.yul\":23326:23390   */\n      sstore\n        /* \"#utility.yul\":23248:23404   */\n      pop\n        /* \"#utility.yul\":23225:23404   */\n    tag_435:\n        /* \"#utility.yul\":23450:23451   */\n      0x01\n        /* \"#utility.yul\":23446:23447   */\n      0x02\n        /* \"#utility.yul\":23438:23444   */\n      dup9\n        /* \"#utility.yul\":23434:23448   */\n      mul\n        /* \"#utility.yul\":23430:23452   */\n      add\n        /* \"#utility.yul\":23424:23428   */\n      dup9\n        /* \"#utility.yul\":23417:23453   */\n      sstore\n        /* \"#utility.yul\":22852:23463   */\n      pop\n      pop\n      pop\n        /* \"#utility.yul\":22815:23702   */\n    tag_427:\n      pop\n        /* \"#utility.yul\":22405:23708   */\n      pop\n      pop\n      pop\n        /* \"#utility.yul\":22313:23708   */\n      pop\n      pop\n      jump\t// out\n        /* \"#utility.yul\":23714:23886   */\n    tag_196:\n        /* \"#utility.yul\":23854:23878   */\n      0x5573657220616c7265616479206c6f6767656420696e00000000000000000000\n        /* \"#utility.yul\":23850:23851   */\n      0x00\n        /* \"#utility.yul\":23842:23848   */\n      dup3\n        /* \"#utility.yul\":23838:23852   */\n      add\n        /* \"#utility.yul\":23831:23879   */\n      mstore\n        /* \"#utility.yul\":23714:23886   */\n      pop\n      jump\t// out\n        /* \"#utility.yul\":23892:24258   */\n    tag_197:\n        /* \"#utility.yul\":24034:24037   */\n      0x00\n        /* \"#utility.yul\":24055:24122   */\n      tag_439\n        /* \"#utility.yul\":24119:24121   */\n      0x16\n        /* \"#utility.yul\":24114:24117   */\n      dup4\n        /* \"#utility.yul\":24055:24122   */\n      tag_170\n      jump\t// in\n    tag_439:\n        /* \"#utility.yul\":24048:24122   */\n      swap2\n      pop\n        /* \"#utility.yul\":24131:24224   */\n      tag_440\n        /* \"#utility.yul\":24220:24223   */\n      dup3\n        /* \"#utility.yul\":24131:24224   */\n      tag_196\n      jump\t// in\n    tag_440:\n        /* \"#utility.yul\":24249:24251   */\n      0x20\n        /* \"#utility.yul\":24244:24247   */\n      dup3\n        /* \"#utility.yul\":24240:24252   */\n      add\n        /* \"#utility.yul\":24233:24252   */\n      swap1\n      pop\n        /* \"#utility.yul\":23892:24258   */\n      swap2\n      swap1\n      pop\n      jump\t// out\n        /* \"#utility.yul\":24264:24683   */\n    tag_100:\n        /* \"#utility.yul\":24430:24434   */\n      0x00\n        /* \"#utility.yul\":24468:24470   */\n      0x20\n        /* \"#utility.yul\":24457:24466   */\n      dup3\n        /* \"#utility.yul\":24453:24471   */\n      add\n        /* \"#utility.yul\":24445:24471   */\n      swap1\n      pop\n        /* \"#utility.yul\":24517:24526   */\n      dup2\n        /* \"#utility.yul\":24511:24515   */\n      dup2\n        /* \"#utility.yul\":24507:24527   */\n      sub\n        /* \"#utility.yul\":24503:24504   */\n      0x00\n        /* \"#utility.yul\":24492:24501   */\n      dup4\n        /* \"#utility.yul\":24488:24505   */\n      add\n        /* \"#utility.yul\":24481:24528   */\n      mstore\n        /* \"#utility.yul\":24545:24676   */\n      tag_442\n        /* \"#utility.yul\":24671:24675   */\n      dup2\n        /* \"#utility.yul\":24545:24676   */\n      tag_197\n      jump\t// in\n    tag_442:\n        /* \"#utility.yul\":24537:24676   */\n      swap1\n      pop\n        /* \"#utility.yul\":24264:24683   */\n      swap2\n      swap1\n      pop\n      jump\t// out\n        /* \"#utility.yul\":24689:24858   */\n    tag_198:\n        /* \"#utility.yul\":24829:24850   */\n      0x4f6e6c79206661726d657220616c6c6f77656400000000000000000000000000\n        /* \"#utility.yul\":24825:24826   */\n      0x00\n        /* \"#utility.yul\":24817:24823   */\n      dup3\n        /* \"#utility.yul\":24813:24827   */\n      add\n        /* \"#utility.yul\":24806:24851   */\n      mstore\n        /* \"#utility.yul\":24689:24858   */\n      pop\n      jump\t// out\n        /* \"#utility.yul\":24864:25230   */\n    tag_199:\n        /* \"#utility.yul\":25006:25009   */\n      0x00\n        /* \"#utility.yul\":25027:25094   */\n      tag_445\n        /* \"#utility.yul\":25091:25093   */\n      0x13\n        /* \"#utility.yul\":25086:25089   */\n      dup4\n        /* \"#utility.yul\":25027:25094   */\n      tag_170\n      jump\t// in\n    tag_445:\n        /* \"#utility.yul\":25020:25094   */\n      swap2\n      pop\n        /* \"#utility.yul\":25103:25196   */\n      tag_446\n        /* \"#utility.yul\":25192:25195   */\n      dup3\n        /* \"#utility.yul\":25103:25196   */\n      tag_198\n      jump\t// in\n    tag_446:\n        /* \"#utility.yul\":25221:25223   */\n      0x20\n        /* \"#utility.yul\":25216:25219   */\n      dup3\n        /* \"#utility.yul\":25212:25224   */\n      add\n        /* \"#utility.yul\":25205:25224   */\n      swap1\n      pop\n        /* \"#utility.yul\":24864:25230   */\n      swap2\n      swap1\n      pop\n      jump\t// out\n        /* \"#utility.yul\":25236:25655   */\n    tag_120:\n        /* \"#utility.yul\":25402:25406   */\n      0x00\n        /* \"#utility.yul\":25440:25442   */\n      0x20\n        /* \"#utility.yul\":25429:25438   */\n      dup3\n        /* \"#utility.yul\":25425:25443   */\n      add\n        /* \"#utility.yul\":25417:25443   */\n      swap1\n      pop\n        /* \"#utility.yul\":25489:25498   */\n      dup2\n        /* \"#utility.yul\":25483:25487   */\n      dup2\n        /* \"#utility.yul\":25479:25499   */\n      sub\n        /* \"#utility.yul\":25475:25476   */\n      0x00\n        /* \"#utility.yul\":25464:25473   */\n      dup4\n        /* \"#utility.yul\":25460:25477   */\n      add\n        /* \"#utility.yul\":25453:25500   */\n      mstore\n        /* \"#utility.yul\":25517:25648   */\n      tag_448\n        /* \"#utility.yul\":25643:25647   */\n      dup2\n        /* \"#utility.yul\":25517:25648   */\n      tag_199\n      jump\t// in\n    tag_448:\n        /* \"#utility.yul\":25509:25648   */\n      swap1\n      pop\n        /* \"#utility.yul\":25236:25655   */\n      swap2\n      swap1\n      pop\n      jump\t// out\n        /* \"#utility.yul\":25661:25841   */\n    tag_200:\n        /* \"#utility.yul\":25709:25786   */\n      0x4e487b7100000000000000000000000000000000000000000000000000000000\n        /* \"#utility.yul\":25706:25707   */\n      0x00\n        /* \"#utility.yul\":25699:25787   */\n      mstore\n        /* \"#utility.yul\":25806:25810   */\n      0x11\n        /* \"#utility.yul\":25803:25804   */\n      0x04\n        /* \"#utility.yul\":25796:25811   */\n      mstore\n        /* \"#utility.yul\":25830:25834   */\n      0x24\n        /* \"#utility.yul\":25827:25828   */\n      0x00\n        /* \"#utility.yul\":25820:25835   */\n      revert\n        /* \"#utility.yul\":25847:26080   */\n    tag_126:\n        /* \"#utility.yul\":25886:25889   */\n      0x00\n        /* \"#utility.yul\":25909:25933   */\n      tag_451\n        /* \"#utility.yul\":25927:25932   */\n      dup3\n        /* \"#utility.yul\":25909:25933   */\n      tag_132\n      jump\t// in\n    tag_451:\n        /* \"#utility.yul\":25900:25933   */\n      swap2\n      pop\n        /* \"#utility.yul\":25955:26021   */\n      0xffffffffffffffffffffffffffffffffffffffffffffffffffffffffffffffff\n        /* \"#utility.yul\":25948:25953   */\n      dup3\n        /* \"#utility.yul\":25945:26022   */\n      sub\n        /* \"#utility.yul\":25942:26045   */\n      tag_452\n      jumpi\n        /* \"#utility.yul\":26025:26043   */\n      tag_453\n      tag_200\n      jump\t// in\n    tag_453:\n        /* \"#utility.yul\":25942:26045   */\n    tag_452:\n        /* \"#utility.yul\":26072:26073   */\n      0x01\n        /* \"#utility.yul\":26065:26070   */\n      dup3\n        /* \"#utility.yul\":26061:26074   */\n      add\n        /* \"#utility.yul\":26054:26074   */\n      swap1\n      pop\n        /* \"#utility.yul\":25847:26080   */\n      swap2\n      swap1\n      pop\n      jump\t// out\n\n    auxdata: 0xa26469706673582212207a55f06059889f1e2b2fe65890d23a7df0dbdba16ca6d9e08a73a949922bafaa64736f6c634300081f0033\n}\n",
				"bytecode": {
					"linkReferences": {},
					"object": "6080604052348015600e575f5ffd5b50611a6f8061001c5f395ff3fe608060405234801561000f575f5ffd5b506004361061009c575f3560e01c8063a87430ba11610064578063a87430ba14610144578063ada00f3b14610176578063b34e97e814610192578063b9cee7d81461019c578063c293aca7146101cf5761009c565b806302b8c8cd146100a057806304aabb5a146100bc5780631f3c99c3146100ec578063a18d8122146100f6578063a78c928b14610114575b5f5ffd5b6100ba60048036038101906100b59190610d98565b6101eb565b005b6100d660048036038101906100d19190610df6565b61038b565b6040516100e39190611001565b60405180910390f35b6100f4610576565b005b6100fe6106e3565b60405161010b9190611030565b60405180910390f35b61012e60048036038101906101299190611073565b6106e9565b60405161013b91906110b8565b60405180910390f35b61015e60048036038101906101599190611073565b61073d565b60405161016d93929190611144565b60405180910390f35b610190600480360381019061018b91906112a5565b610786565b005b61019a6108cb565b005b6101b660048036038101906101b1919061132d565b610a3a565b6040516101c694939291906113c2565b60405180910390f35b6101e960048036038101906101e49190611413565b610bab565b005b5f5f3373ffffffffffffffffffffffffffffffffffffffff1673ffffffffffffffffffffffffffffffffffffffff1681526020019081526020015f205f015f9054906101000a900460ff1615610276576040517f08c379a000000000000000000000000000000000000000000000000000000000815260040161026d906114d3565b60405180910390fd5b60015f5f3373ffffffffffffffffffffffffffffffffffffffff1673ffffffffffffffffffffffffffffffffffffffff1681526020019081526020015f205f015f6101000a81548160ff0219169083151502179055505f5f5f3373ffffffffffffffffffffffffffffffffffffffff1673ffffffffffffffffffffffffffffffffffffffff1681526020019081526020015f205f0160016101000a81548160ff021916908315150217905550805f5f3373ffffffffffffffffffffffffffffffffffffffff1673ffffffffffffffffffffffffffffffffffffffff1681526020019081526020015f205f0160026101000a81548160ff02191690836004811115610383576103826110d1565b5b021790555050565b606060015f8381526020019081526020015f20805480602002602001604051908101604052809291908181526020015f905b8282101561056b578382905f5260205f2090600402016040518060800160405290815f82015f9054906101000a900473ffffffffffffffffffffffffffffffffffffffff1673ffffffffffffffffffffffffffffffffffffffff1673ffffffffffffffffffffffffffffffffffffffff1681526020016001820154815260200160028201805461044c9061151e565b80601f01602080910402602001604051908101604052809291908181526020018280546104789061151e565b80156104c35780601f1061049a576101008083540402835291602001916104c3565b820191905f5260205f20905b8154815290600101906020018083116104a657829003601f168201915b505050505081526020016003820180546104dc9061151e565b80601f01602080910402602001604051908101604052809291908181526020018280546105089061151e565b80156105535780601f1061052a57610100808354040283529160200191610553565b820191905f5260205f20905b81548152906001019060200180831161053657829003601f168201915b505050505081525050815260200190600101906103bd565b505050509050919050565b5f5f3373ffffffffffffffffffffffffffffffffffffffff1673ffffffffffffffffffffffffffffffffffffffff1681526020019081526020015f205f015f9054906101000a900460ff16610600576040517f08c379a00000000000000000000000000000000000000000000000000000000081526004016105f790611598565b60405180910390fd5b5f5f3373ffffffffffffffffffffffffffffffffffffffff1673ffffffffffffffffffffffffffffffffffffffff1681526020019081526020015f205f0160019054906101000a900460ff1661068b576040517f08c379a000000000000000000000000000000000000000000000000000000000815260040161068290611600565b60405180910390fd5b5f5f5f3373ffffffffffffffffffffffffffffffffffffffff1673ffffffffffffffffffffffffffffffffffffffff1681526020019081526020015f205f0160016101000a81548160ff021916908315150217905550565b60025481565b5f5f5f8373ffffffffffffffffffffffffffffffffffffffff1673ffffffffffffffffffffffffffffffffffffffff1681526020019081526020015f205f0160019054906101000a900460ff169050919050565b5f602052805f5260405f205f91509050805f015f9054906101000a900460ff1690805f0160019054906101000a900460ff1690805f0160029054906101000a900460ff16905083565b5f60015f8581526020019081526020015f2080549050116107dc576040517f08c379a00000000000000000000000000000000000000000000000000000000081526004016107d390611668565b60405180910390fd5b60015f8481526020019081526020015f2060405180608001604052803373ffffffffffffffffffffffffffffffffffffffff16815260200142815260200184815260200183815250908060018154018082558091505060019003905f5260205f2090600402015f909190919091505f820151815f015f6101000a81548173ffffffffffffffffffffffffffffffffffffffff021916908373ffffffffffffffffffffffffffffffffffffffff1602179055506020820151816001015560408201518160020190816108ad9190611826565b5060608201518160030190816108c39190611826565b505050505050565b5f5f3373ffffffffffffffffffffffffffffffffffffffff1673ffffffffffffffffffffffffffffffffffffffff1681526020019081526020015f205f015f9054906101000a900460ff16610955576040517f08c379a000000000000000000000000000000000000000000000000000000000815260040161094c90611598565b60405180910390fd5b5f5f3373ffffffffffffffffffffffffffffffffffffffff1673ffffffffffffffffffffffffffffffffffffffff1681526020019081526020015f205f0160019054906101000a900460ff16156109e1576040517f08c379a00000000000000000000000000000000000000000000000000000000081526004016109d89061193f565b60405180910390fd5b60015f5f3373ffffffffffffffffffffffffffffffffffffffff1673ffffffffffffffffffffffffffffffffffffffff1681526020019081526020015f205f0160016101000a81548160ff021916908315150217905550565b6001602052815f5260405f208181548110610a53575f80fd5b905f5260205f2090600402015f9150915050805f015f9054906101000a900473ffffffffffffffffffffffffffffffffffffffff1690806001015490806002018054610a9e9061151e565b80601f0160208091040260200160405190810160405280929190818152602001828054610aca9061151e565b8015610b155780601f10610aec57610100808354040283529160200191610b15565b820191905f5260205f20905b815481529060010190602001808311610af857829003601f168201915b505050505090806003018054610b2a9061151e565b80601f0160208091040260200160405190810160405280929190818152602001828054610b569061151e565b8015610ba15780601f10610b7857610100808354040283529160200191610ba1565b820191905f5260205f20905b815481529060010190602001808311610b8457829003601f168201915b5050505050905084565b60016004811115610bbf57610bbe6110d1565b5b5f5f3373ffffffffffffffffffffffffffffffffffffffff1673ffffffffffffffffffffffffffffffffffffffff1681526020019081526020015f205f0160029054906101000a900460ff166004811115610c1d57610c1c6110d1565b5b14610c5d576040517f08c379a0000000000000000000000000000000000000000000000000000000008152600401610c54906119a7565b60405180910390fd5b60015f60025481526020019081526020015f2060405180608001604052803373ffffffffffffffffffffffffffffffffffffffff16815260200142815260200184815260200183815250908060018154018082558091505060019003905f5260205f2090600402015f909190919091505f820151815f015f6101000a81548173ffffffffffffffffffffffffffffffffffffffff021916908373ffffffffffffffffffffffffffffffffffffffff160217905550602082015181600101556040820151816002019081610d309190611826565b506060820151816003019081610d469190611826565b50505060025f815480929190610d5b906119f2565b91905055505050565b5f604051905090565b5f5ffd5b5f5ffd5b60058110610d81575f5ffd5b50565b5f81359050610d9281610d75565b92915050565b5f60208284031215610dad57610dac610d6d565b5b5f610dba84828501610d84565b91505092915050565b5f819050919050565b610dd581610dc3565b8114610ddf575f5ffd5b50565b5f81359050610df081610dcc565b92915050565b5f60208284031215610e0b57610e0a610d6d565b5b5f610e1884828501610de2565b91505092915050565b5f81519050919050565b5f82825260208201905092915050565b5f819050602082019050919050565b5f73ffffffffffffffffffffffffffffffffffffffff82169050919050565b5f610e7382610e4a565b9050919050565b610e8381610e69565b82525050565b610e9281610dc3565b82525050565b5f81519050919050565b5f82825260208201905092915050565b8281835e5f83830152505050565b5f601f19601f8301169050919050565b5f610eda82610e98565b610ee48185610ea2565b9350610ef4818560208601610eb2565b610efd81610ec0565b840191505092915050565b5f608083015f830151610f1d5f860182610e7a565b506020830151610f306020860182610e89565b5060408301518482036040860152610f488282610ed0565b91505060608301518482036060860152610f628282610ed0565b9150508091505092915050565b5f610f7a8383610f08565b905092915050565b5f602082019050919050565b5f610f9882610e21565b610fa28185610e2b565b935083602082028501610fb485610e3b565b805f5b85811015610fef5784840389528151610fd08582610f6f565b9450610fdb83610f82565b925060208a01995050600181019050610fb7565b50829750879550505050505092915050565b5f6020820190508181035f8301526110198184610f8e565b905092915050565b61102a81610dc3565b82525050565b5f6020820190506110435f830184611021565b92915050565b61105281610e69565b811461105c575f5ffd5b50565b5f8135905061106d81611049565b92915050565b5f6020828403121561108857611087610d6d565b5b5f6110958482850161105f565b91505092915050565b5f8115159050919050565b6110b28161109e565b82525050565b5f6020820190506110cb5f8301846110a9565b92915050565b7f4e487b71000000000000000000000000000000000000000000000000000000005f52602160045260245ffd5b6005811061110f5761110e6110d1565b5b50565b5f81905061111f826110fe565b919050565b5f61112e82611112565b9050919050565b61113e81611124565b82525050565b5f6060820190506111575f8301866110a9565b61116460208301856110a9565b6111716040830184611135565b949350505050565b5f5ffd5b5f5ffd5b7f4e487b71000000000000000000000000000000000000000000000000000000005f52604160045260245ffd5b6111b782610ec0565b810181811067ffffffffffffffff821117156111d6576111d5611181565b5b80604052505050565b5f6111e8610d64565b90506111f482826111ae565b919050565b5f67ffffffffffffffff82111561121357611212611181565b5b61121c82610ec0565b9050602081019050919050565b828183375f83830152505050565b5f611249611244846111f9565b6111df565b9050828152602081018484840111156112655761126461117d565b5b611270848285611229565b509392505050565b5f82601f83011261128c5761128b611179565b5b813561129c848260208601611237565b91505092915050565b5f5f5f606084860312156112bc576112bb610d6d565b5b5f6112c986828701610de2565b935050602084013567ffffffffffffffff8111156112ea576112e9610d71565b5b6112f686828701611278565b925050604084013567ffffffffffffffff81111561131757611316610d71565b5b61132386828701611278565b9150509250925092565b5f5f6040838503121561134357611342610d6d565b5b5f61135085828601610de2565b925050602061136185828601610de2565b9150509250929050565b61137481610e69565b82525050565b5f82825260208201905092915050565b5f61139482610e98565b61139e818561137a565b93506113ae818560208601610eb2565b6113b781610ec0565b840191505092915050565b5f6080820190506113d55f83018761136b565b6113e26020830186611021565b81810360408301526113f4818561138a565b90508181036060830152611408818461138a565b905095945050505050565b5f5f6040838503121561142957611428610d6d565b5b5f83013567ffffffffffffffff81111561144657611445610d71565b5b61145285828601611278565b925050602083013567ffffffffffffffff81111561147357611472610d71565b5b61147f85828601611278565b9150509250929050565b7f5573657220616c726561647920726567697374657265640000000000000000005f82015250565b5f6114bd60178361137a565b91506114c882611489565b602082019050919050565b5f6020820190508181035f8301526114ea816114b1565b9050919050565b7f4e487b71000000000000000000000000000000000000000000000000000000005f52602260045260245ffd5b5f600282049050600182168061153557607f821691505b602082108103611548576115476114f1565b5b50919050565b7f55736572206e6f742072656769737465726564000000000000000000000000005f82015250565b5f61158260138361137a565b915061158d8261154e565b602082019050919050565b5f6020820190508181035f8301526115af81611576565b9050919050565b7f55736572206e6f74206c6f6767656420696e00000000000000000000000000005f82015250565b5f6115ea60128361137a565b91506115f5826115b6565b602082019050919050565b5f6020820190508181035f830152611617816115de565b9050919050565b7f426174636820646f6573206e6f742065786973740000000000000000000000005f82015250565b5f61165260148361137a565b915061165d8261161e565b602082019050919050565b5f6020820190508181035f83015261167f81611646565b9050919050565b5f819050815f5260205f209050919050565b5f6020601f8301049050919050565b5f82821b905092915050565b5f600883026116e27fffffffffffffffffffffffffffffffffffffffffffffffffffffffffffffffff826116a7565b6116ec86836116a7565b95508019841693508086168417925050509392505050565b5f819050919050565b5f61172761172261171d84610dc3565b611704565b610dc3565b9050919050565b5f819050919050565b6117408361170d565b61175461174c8261172e565b8484546116b3565b825550505050565b5f5f905090565b61176b61175c565b611776818484611737565b505050565b5b818110156117995761178e5f82611763565b60018101905061177c565b5050565b601f8211156117de576117af81611686565b6117b884611698565b810160208510156117c7578190505b6117db6117d385611698565b83018261177b565b50505b505050565b5f82821c905092915050565b5f6117fe5f19846008026117e3565b1980831691505092915050565b5f61181683836117ef565b9150826002028217905092915050565b61182f82610e98565b67ffffffffffffffff81111561184857611847611181565b5b611852825461151e565b61185d82828561179d565b5f60209050601f83116001811461188e575f841561187c578287015190505b611886858261180b565b8655506118ed565b601f19841661189c86611686565b5f5b828110156118c35784890151825560018201915060208501945060208101905061189e565b868310156118e057848901516118dc601f8916826117ef565b8355505b6001600288020188555050505b505050505050565b7f5573657220616c7265616479206c6f6767656420696e000000000000000000005f82015250565b5f61192960168361137a565b9150611934826118f5565b602082019050919050565b5f6020820190508181035f8301526119568161191d565b9050919050565b7f4f6e6c79206661726d657220616c6c6f776564000000000000000000000000005f82015250565b5f61199160138361137a565b915061199c8261195d565b602082019050919050565b5f6020820190508181035f8301526119be81611985565b9050919050565b7f4e487b71000000000000000000000000000000000000000000000000000000005f52601160045260245ffd5b5f6119fc82610dc3565b91507fffffffffffffffffffffffffffffffffffffffffffffffffffffffffffffffff8203611a2e57611a2d6119c5565b5b60018201905091905056fea26469706673582212207a55f06059889f1e2b2fe65890d23a7df0dbdba16ca6d9e08a73a949922bafaa64736f6c634300081f0033",
					"opcodes": "PUSH1 0x80 PUSH1 0x40 MSTORE CALLVALUE DUP1 ISZERO PUSH1 0xE JUMPI PUSH0 PUSH0 REVERT JUMPDEST POP PUSH2 0x1A6F DUP1 PUSH2 0x1C PUSH0 CODECOPY PUSH0 RETURN INVALID PUSH1 0x80 PUSH1 0x40 MSTORE CALLVALUE DUP1 ISZERO PUSH2 0xF JUMPI PUSH0 PUSH0 REVERT JUMPDEST POP PUSH1 0x4 CALLDATASIZE LT PUSH2 0x9C JUMPI PUSH0 CALLDATALOAD PUSH1 0xE0 SHR DUP1 PUSH4 0xA87430BA GT PUSH2 0x64 JUMPI DUP1 PUSH4 0xA87430BA EQ PUSH2 0x144 JUMPI DUP1 PUSH4 0xADA00F3B EQ PUSH2 0x176 JUMPI DUP1 PUSH4 0xB34E97E8 EQ PUSH2 0x192 JUMPI DUP1 PUSH4 0xB9CEE7D8 EQ PUSH2 0x19C JUMPI DUP1 PUSH4 0xC293ACA7 EQ PUSH2 0x1CF JUMPI PUSH2 0x9C JUMP JUMPDEST DUP1 PUSH4 0x2B8C8CD EQ PUSH2 0xA0 JUMPI DUP1 PUSH4 0x4AABB5A EQ PUSH2 0xBC JUMPI DUP1 PUSH4 0x1F3C99C3 EQ PUSH2 0xEC JUMPI DUP1 PUSH4 0xA18D8122 EQ PUSH2 0xF6 JUMPI DUP1 PUSH4 0xA78C928B EQ PUSH2 0x114 JUMPI JUMPDEST PUSH0 PUSH0 REVERT JUMPDEST PUSH2 0xBA PUSH1 0x4 DUP1 CALLDATASIZE SUB DUP2 ADD SWAP1 PUSH2 0xB5 SWAP2 SWAP1 PUSH2 0xD98 JUMP JUMPDEST PUSH2 0x1EB JUMP JUMPDEST STOP JUMPDEST PUSH2 0xD6 PUSH1 0x4 DUP1 CALLDATASIZE SUB DUP2 ADD SWAP1 PUSH2 0xD1 SWAP2 SWAP1 PUSH2 0xDF6 JUMP JUMPDEST PUSH2 0x38B JUMP JUMPDEST PUSH1 0x40 MLOAD PUSH2 0xE3 SWAP2 SWAP1 PUSH2 0x1001 JUMP JUMPDEST PUSH1 0x40 MLOAD DUP1 SWAP2 SUB SWAP1 RETURN JUMPDEST PUSH2 0xF4 PUSH2 0x576 JUMP JUMPDEST STOP JUMPDEST PUSH2 0xFE PUSH2 0x6E3 JUMP JUMPDEST PUSH1 0x40 MLOAD PUSH2 0x10B SWAP2 SWAP1 PUSH2 0x1030 JUMP JUMPDEST PUSH1 0x40 MLOAD DUP1 SWAP2 SUB SWAP1 RETURN JUMPDEST PUSH2 0x12E PUSH1 0x4 DUP1 CALLDATASIZE SUB DUP2 ADD SWAP1 PUSH2 0x129 SWAP2 SWAP1 PUSH2 0x1073 JUMP JUMPDEST PUSH2 0x6E9 JUMP JUMPDEST PUSH1 0x40 MLOAD PUSH2 0x13B SWAP2 SWAP1 PUSH2 0x10B8 JUMP JUMPDEST PUSH1 0x40 MLOAD DUP1 SWAP2 SUB SWAP1 RETURN JUMPDEST PUSH2 0x15E PUSH1 0x4 DUP1 CALLDATASIZE SUB DUP2 ADD SWAP1 PUSH2 0x159 SWAP2 SWAP1 PUSH2 0x1073 JUMP JUMPDEST PUSH2 0x73D JUMP JUMPDEST PUSH1 0x40 MLOAD PUSH2 0x16D SWAP4 SWAP3 SWAP2 SWAP1 PUSH2 0x1144 JUMP JUMPDEST PUSH1 0x40 MLOAD DUP1 SWAP2 SUB SWAP1 RETURN JUMPDEST PUSH2 0x190 PUSH1 0x4 DUP1 CALLDATASIZE SUB DUP2 ADD SWAP1 PUSH2 0x18B SWAP2 SWAP1 PUSH2 0x12A5 JUMP JUMPDEST PUSH2 0x786 JUMP JUMPDEST STOP JUMPDEST PUSH2 0x19A PUSH2 0x8CB JUMP JUMPDEST STOP JUMPDEST PUSH2 0x1B6 PUSH1 0x4 DUP1 CALLDATASIZE SUB DUP2 ADD SWAP1 PUSH2 0x1B1 SWAP2 SWAP1 PUSH2 0x132D JUMP JUMPDEST PUSH2 0xA3A JUMP JUMPDEST PUSH1 0x40 MLOAD PUSH2 0x1C6 SWAP5 SWAP4 SWAP3 SWAP2 SWAP1 PUSH2 0x13C2 JUMP JUMPDEST PUSH1 0x40 MLOAD DUP1 SWAP2 SUB SWAP1 RETURN JUMPDEST PUSH2 0x1E9 PUSH1 0x4 DUP1 CALLDATASIZE SUB DUP2 ADD SWAP1 PUSH2 0x1E4 SWAP2 SWAP1 PUSH2 0x1413 JUMP JUMPDEST PUSH2 0xBAB JUMP JUMPDEST STOP JUMPDEST PUSH0 PUSH0 CALLER PUSH20 0xFFFFFFFFFFFFFFFFFFFFFFFFFFFFFFFFFFFFFFFF AND PUSH20 0xFFFFFFFFFFFFFFFFFFFFFFFFFFFFFFFFFFFFFFFF AND DUP2 MSTORE PUSH1 0x20 ADD SWAP1 DUP2 MSTORE PUSH1 0x20 ADD PUSH0 KECCAK256 PUSH0 ADD PUSH0 SWAP1 SLOAD SWAP1 PUSH2 0x100 EXP SWAP1 DIV PUSH1 0xFF AND ISZERO PUSH2 0x276 JUMPI PUSH1 0x40 MLOAD PUSH32 0x8C379A000000000000000000000000000000000000000000000000000000000 DUP2 MSTORE PUSH1 0x4 ADD PUSH2 0x26D SWAP1 PUSH2 0x14D3 JUMP JUMPDEST PUSH1 0x40 MLOAD DUP1 SWAP2 SUB SWAP1 REVERT JUMPDEST PUSH1 0x1 PUSH0 PUSH0 CALLER PUSH20 0xFFFFFFFFFFFFFFFFFFFFFFFFFFFFFFFFFFFFFFFF AND PUSH20 0xFFFFFFFFFFFFFFFFFFFFFFFFFFFFFFFFFFFFFFFF AND DUP2 MSTORE PUSH1 0x20 ADD SWAP1 DUP2 MSTORE PUSH1 0x20 ADD PUSH0 KECCAK256 PUSH0 ADD PUSH0 PUSH2 0x100 EXP DUP2 SLOAD DUP2 PUSH1 0xFF MUL NOT AND SWAP1 DUP4 ISZERO ISZERO MUL OR SWAP1 SSTORE POP PUSH0 PUSH0 PUSH0 CALLER PUSH20 0xFFFFFFFFFFFFFFFFFFFFFFFFFFFFFFFFFFFFFFFF AND PUSH20 0xFFFFFFFFFFFFFFFFFFFFFFFFFFFFFFFFFFFFFFFF AND DUP2 MSTORE PUSH1 0x20 ADD SWAP1 DUP2 MSTORE PUSH1 0x20 ADD PUSH0 KECCAK256 PUSH0 ADD PUSH1 0x1 PUSH2 0x100 EXP DUP2 SLOAD DUP2 PUSH1 0xFF MUL NOT AND SWAP1 DUP4 ISZERO ISZERO MUL OR SWAP1 SSTORE POP DUP1 PUSH0 PUSH0 CALLER PUSH20 0xFFFFFFFFFFFFFFFFFFFFFFFFFFFFFFFFFFFFFFFF AND PUSH20 0xFFFFFFFFFFFFFFFFFFFFFFFFFFFFFFFFFFFFFFFF AND DUP2 MSTORE PUSH1 0x20 ADD SWAP1 DUP2 MSTORE PUSH1 0x20 ADD PUSH0 KECCAK256 PUSH0 ADD PUSH1 0x2 PUSH2 0x100 EXP DUP2 SLOAD DUP2 PUSH1 0xFF MUL NOT AND SWAP1 DUP4 PUSH1 0x4 DUP2 GT ISZERO PUSH2 0x383 JUMPI PUSH2 0x382 PUSH2 0x10D1 JUMP JUMPDEST JUMPDEST MUL OR SWAP1 SSTORE POP POP JUMP JUMPDEST PUSH1 0x60 PUSH1 0x1 PUSH0 DUP4 DUP2 MSTORE PUSH1 0x20 ADD SWAP1 DUP2 MSTORE PUSH1 0x20 ADD PUSH0 KECCAK256 DUP1 SLOAD DUP1 PUSH1 0x20 MUL PUSH1 0x20 ADD PUSH1 0x40 MLOAD SWAP1 DUP2 ADD PUSH1 0x40 MSTORE DUP1 SWAP3 SWAP2 SWAP1 DUP2 DUP2 MSTORE PUSH1 0x20 ADD PUSH0 SWAP1 JUMPDEST DUP3 DUP3 LT ISZERO PUSH2 0x56B JUMPI DUP4 DUP3 SWAP1 PUSH0 MSTORE PUSH1 0x20 PUSH0 KECCAK256 SWAP1 PUSH1 0x4 MUL ADD PUSH1 0x40 MLOAD DUP1 PUSH1 0x80 ADD PUSH1 0x40 MSTORE SWAP1 DUP2 PUSH0 DUP3 ADD PUSH0 SWAP1 SLOAD SWAP1 PUSH2 0x100 EXP SWAP1 DIV PUSH20 0xFFFFFFFFFFFFFFFFFFFFFFFFFFFFFFFFFFFFFFFF AND PUSH20 0xFFFFFFFFFFFFFFFFFFFFFFFFFFFFFFFFFFFFFFFF AND PUSH20 0xFFFFFFFFFFFFFFFFFFFFFFFFFFFFFFFFFFFFFFFF AND DUP2 MSTORE PUSH1 0x20 ADD PUSH1 0x1 DUP3 ADD SLOAD DUP2 MSTORE PUSH1 0x20 ADD PUSH1 0x2 DUP3 ADD DUP1 SLOAD PUSH2 0x44C SWAP1 PUSH2 0x151E JUMP JUMPDEST DUP1 PUSH1 0x1F ADD PUSH1 0x20 DUP1 SWAP2 DIV MUL PUSH1 0x20 ADD PUSH1 0x40 MLOAD SWAP1 DUP2 ADD PUSH1 0x40 MSTORE DUP1 SWAP3 SWAP2 SWAP1 DUP2 DUP2 MSTORE PUSH1 0x20 ADD DUP3 DUP1 SLOAD PUSH2 0x478 SWAP1 PUSH2 0x151E JUMP JUMPDEST DUP1 ISZERO PUSH2 0x4C3 JUMPI DUP1 PUSH1 0x1F LT PUSH2 0x49A JUMPI PUSH2 0x100 DUP1 DUP4 SLOAD DIV MUL DUP4 MSTORE SWAP2 PUSH1 0x20 ADD SWAP2 PUSH2 0x4C3 JUMP JUMPDEST DUP3 ADD SWAP2 SWAP1 PUSH0 MSTORE PUSH1 0x20 PUSH0 KECCAK256 SWAP1 JUMPDEST DUP2 SLOAD DUP2 MSTORE SWAP1 PUSH1 0x1 ADD SWAP1 PUSH1 0x20 ADD DUP1 DUP4 GT PUSH2 0x4A6 JUMPI DUP3 SWAP1 SUB PUSH1 0x1F AND DUP3 ADD SWAP2 JUMPDEST POP POP POP POP POP DUP2 MSTORE PUSH1 0x20 ADD PUSH1 0x3 DUP3 ADD DUP1 SLOAD PUSH2 0x4DC SWAP1 PUSH2 0x151E JUMP JUMPDEST DUP1 PUSH1 0x1F ADD PUSH1 0x20 DUP1 SWAP2 DIV MUL PUSH1 0x20 ADD PUSH1 0x40 MLOAD SWAP1 DUP2 ADD PUSH1 0x40 MSTORE DUP1 SWAP3 SWAP2 SWAP1 DUP2 DUP2 MSTORE PUSH1 0x20 ADD DUP3 DUP1 SLOAD PUSH2 0x508 SWAP1 PUSH2 0x151E JUMP JUMPDEST DUP1 ISZERO PUSH2 0x553 JUMPI DUP1 PUSH1 0x1F LT PUSH2 0x52A JUMPI PUSH2 0x100 DUP1 DUP4 SLOAD DIV MUL DUP4 MSTORE SWAP2 PUSH1 0x20 ADD SWAP2 PUSH2 0x553 JUMP JUMPDEST DUP3 ADD SWAP2 SWAP1 PUSH0 MSTORE PUSH1 0x20 PUSH0 KECCAK256 SWAP1 JUMPDEST DUP2 SLOAD DUP2 MSTORE SWAP1 PUSH1 0x1 ADD SWAP1 PUSH1 0x20 ADD DUP1 DUP4 GT PUSH2 0x536 JUMPI DUP3 SWAP1 SUB PUSH1 0x1F AND DUP3 ADD SWAP2 JUMPDEST POP POP POP POP POP DUP2 MSTORE POP POP DUP2 MSTORE PUSH1 0x20 ADD SWAP1 PUSH1 0x1 ADD SWAP1 PUSH2 0x3BD JUMP JUMPDEST POP POP POP POP SWAP1 POP SWAP2 SWAP1 POP JUMP JUMPDEST PUSH0 PUSH0 CALLER PUSH20 0xFFFFFFFFFFFFFFFFFFFFFFFFFFFFFFFFFFFFFFFF AND PUSH20 0xFFFFFFFFFFFFFFFFFFFFFFFFFFFFFFFFFFFFFFFF AND DUP2 MSTORE PUSH1 0x20 ADD SWAP1 DUP2 MSTORE PUSH1 0x20 ADD PUSH0 KECCAK256 PUSH0 ADD PUSH0 SWAP1 SLOAD SWAP1 PUSH2 0x100 EXP SWAP1 DIV PUSH1 0xFF AND PUSH2 0x600 JUMPI PUSH1 0x40 MLOAD PUSH32 0x8C379A000000000000000000000000000000000000000000000000000000000 DUP2 MSTORE PUSH1 0x4 ADD PUSH2 0x5F7 SWAP1 PUSH2 0x1598 JUMP JUMPDEST PUSH1 0x40 MLOAD DUP1 SWAP2 SUB SWAP1 REVERT JUMPDEST PUSH0 PUSH0 CALLER PUSH20 0xFFFFFFFFFFFFFFFFFFFFFFFFFFFFFFFFFFFFFFFF AND PUSH20 0xFFFFFFFFFFFFFFFFFFFFFFFFFFFFFFFFFFFFFFFF AND DUP2 MSTORE PUSH1 0x20 ADD SWAP1 DUP2 MSTORE PUSH1 0x20 ADD PUSH0 KECCAK256 PUSH0 ADD PUSH1 0x1 SWAP1 SLOAD SWAP1 PUSH2 0x100 EXP SWAP1 DIV PUSH1 0xFF AND PUSH2 0x68B JUMPI PUSH1 0x40 MLOAD PUSH32 0x8C379A000000000000000000000000000000000000000000000000000000000 DUP2 MSTORE PUSH1 0x4 ADD PUSH2 0x682 SWAP1 PUSH2 0x1600 JUMP JUMPDEST PUSH1 0x40 MLOAD DUP1 SWAP2 SUB SWAP1 REVERT JUMPDEST PUSH0 PUSH0 PUSH0 CALLER PUSH20 0xFFFFFFFFFFFFFFFFFFFFFFFFFFFFFFFFFFFFFFFF AND PUSH20 0xFFFFFFFFFFFFFFFFFFFFFFFFFFFFFFFFFFFFFFFF AND DUP2 MSTORE PUSH1 0x20 ADD SWAP1 DUP2 MSTORE PUSH1 0x20 ADD PUSH0 KECCAK256 PUSH0 ADD PUSH1 0x1 PUSH2 0x100 EXP DUP2 SLOAD DUP2 PUSH1 0xFF MUL NOT AND SWAP1 DUP4 ISZERO ISZERO MUL OR SWAP1 SSTORE POP JUMP JUMPDEST PUSH1 0x2 SLOAD DUP2 JUMP JUMPDEST PUSH0 PUSH0 PUSH0 DUP4 PUSH20 0xFFFFFFFFFFFFFFFFFFFFFFFFFFFFFFFFFFFFFFFF AND PUSH20 0xFFFFFFFFFFFFFFFFFFFFFFFFFFFFFFFFFFFFFFFF AND DUP2 MSTORE PUSH1 0x20 ADD SWAP1 DUP2 MSTORE PUSH1 0x20 ADD PUSH0 KECCAK256 PUSH0 ADD PUSH1 0x1 SWAP1 SLOAD SWAP1 PUSH2 0x100 EXP SWAP1 DIV PUSH1 0xFF AND SWAP1 POP SWAP2 SWAP1 POP JUMP JUMPDEST PUSH0 PUSH1 0x20 MSTORE DUP1 PUSH0 MSTORE PUSH1 0x40 PUSH0 KECCAK256 PUSH0 SWAP2 POP SWAP1 POP DUP1 PUSH0 ADD PUSH0 SWAP1 SLOAD SWAP1 PUSH2 0x100 EXP SWAP1 DIV PUSH1 0xFF AND SWAP1 DUP1 PUSH0 ADD PUSH1 0x1 SWAP1 SLOAD SWAP1 PUSH2 0x100 EXP SWAP1 DIV PUSH1 0xFF AND SWAP1 DUP1 PUSH0 ADD PUSH1 0x2 SWAP1 SLOAD SWAP1 PUSH2 0x100 EXP SWAP1 DIV PUSH1 0xFF AND SWAP1 POP DUP4 JUMP JUMPDEST PUSH0 PUSH1 0x1 PUSH0 DUP6 DUP2 MSTORE PUSH1 0x20 ADD SWAP1 DUP2 MSTORE PUSH1 0x20 ADD PUSH0 KECCAK256 DUP1 SLOAD SWAP1 POP GT PUSH2 0x7DC JUMPI PUSH1 0x40 MLOAD PUSH32 0x8C379A000000000000000000000000000000000000000000000000000000000 DUP2 MSTORE PUSH1 0x4 ADD PUSH2 0x7D3 SWAP1 PUSH2 0x1668 JUMP JUMPDEST PUSH1 0x40 MLOAD DUP1 SWAP2 SUB SWAP1 REVERT JUMPDEST PUSH1 0x1 PUSH0 DUP5 DUP2 MSTORE PUSH1 0x20 ADD SWAP1 DUP2 MSTORE PUSH1 0x20 ADD PUSH0 KECCAK256 PUSH1 0x40 MLOAD DUP1 PUSH1 0x80 ADD PUSH1 0x40 MSTORE DUP1 CALLER PUSH20 0xFFFFFFFFFFFFFFFFFFFFFFFFFFFFFFFFFFFFFFFF AND DUP2 MSTORE PUSH1 0x20 ADD TIMESTAMP DUP2 MSTORE PUSH1 0x20 ADD DUP5 DUP2 MSTORE PUSH1 0x20 ADD DUP4 DUP2 MSTORE POP SWAP1 DUP1 PUSH1 0x1 DUP2 SLOAD ADD DUP1 DUP3 SSTORE DUP1 SWAP2 POP POP PUSH1 0x1 SWAP1 SUB SWAP1 PUSH0 MSTORE PUSH1 0x20 PUSH0 KECCAK256 SWAP1 PUSH1 0x4 MUL ADD PUSH0 SWAP1 SWAP2 SWAP1 SWAP2 SWAP1 SWAP2 POP PUSH0 DUP3 ADD MLOAD DUP2 PUSH0 ADD PUSH0 PUSH2 0x100 EXP DUP2 SLOAD DUP2 PUSH20 0xFFFFFFFFFFFFFFFFFFFFFFFFFFFFFFFFFFFFFFFF MUL NOT AND SWAP1 DUP4 PUSH20 0xFFFFFFFFFFFFFFFFFFFFFFFFFFFFFFFFFFFFFFFF AND MUL OR SWAP1 SSTORE POP PUSH1 0x20 DUP3 ADD MLOAD DUP2 PUSH1 0x1 ADD SSTORE PUSH1 0x40 DUP3 ADD MLOAD DUP2 PUSH1 0x2 ADD SWAP1 DUP2 PUSH2 0x8AD SWAP2 SWAP1 PUSH2 0x1826 JUMP JUMPDEST POP PUSH1 0x60 DUP3 ADD MLOAD DUP2 PUSH1 0x3 ADD SWAP1 DUP2 PUSH2 0x8C3 SWAP2 SWAP1 PUSH2 0x1826 JUMP JUMPDEST POP POP POP POP POP POP JUMP JUMPDEST PUSH0 PUSH0 CALLER PUSH20 0xFFFFFFFFFFFFFFFFFFFFFFFFFFFFFFFFFFFFFFFF AND PUSH20 0xFFFFFFFFFFFFFFFFFFFFFFFFFFFFFFFFFFFFFFFF AND DUP2 MSTORE PUSH1 0x20 ADD SWAP1 DUP2 MSTORE PUSH1 0x20 ADD PUSH0 KECCAK256 PUSH0 ADD PUSH0 SWAP1 SLOAD SWAP1 PUSH2 0x100 EXP SWAP1 DIV PUSH1 0xFF AND PUSH2 0x955 JUMPI PUSH1 0x40 MLOAD PUSH32 0x8C379A000000000000000000000000000000000000000000000000000000000 DUP2 MSTORE PUSH1 0x4 ADD PUSH2 0x94C SWAP1 PUSH2 0x1598 JUMP JUMPDEST PUSH1 0x40 MLOAD DUP1 SWAP2 SUB SWAP1 REVERT JUMPDEST PUSH0 PUSH0 CALLER PUSH20 0xFFFFFFFFFFFFFFFFFFFFFFFFFFFFFFFFFFFFFFFF AND PUSH20 0xFFFFFFFFFFFFFFFFFFFFFFFFFFFFFFFFFFFFFFFF AND DUP2 MSTORE PUSH1 0x20 ADD SWAP1 DUP2 MSTORE PUSH1 0x20 ADD PUSH0 KECCAK256 PUSH0 ADD PUSH1 0x1 SWAP1 SLOAD SWAP1 PUSH2 0x100 EXP SWAP1 DIV PUSH1 0xFF AND ISZERO PUSH2 0x9E1 JUMPI PUSH1 0x40 MLOAD PUSH32 0x8C379A000000000000000000000000000000000000000000000000000000000 DUP2 MSTORE PUSH1 0x4 ADD PUSH2 0x9D8 SWAP1 PUSH2 0x193F JUMP JUMPDEST PUSH1 0x40 MLOAD DUP1 SWAP2 SUB SWAP1 REVERT JUMPDEST PUSH1 0x1 PUSH0 PUSH0 CALLER PUSH20 0xFFFFFFFFFFFFFFFFFFFFFFFFFFFFFFFFFFFFFFFF AND PUSH20 0xFFFFFFFFFFFFFFFFFFFFFFFFFFFFFFFFFFFFFFFF AND DUP2 MSTORE PUSH1 0x20 ADD SWAP1 DUP2 MSTORE PUSH1 0x20 ADD PUSH0 KECCAK256 PUSH0 ADD PUSH1 0x1 PUSH2 0x100 EXP DUP2 SLOAD DUP2 PUSH1 0xFF MUL NOT AND SWAP1 DUP4 ISZERO ISZERO MUL OR SWAP1 SSTORE POP JUMP JUMPDEST PUSH1 0x1 PUSH1 0x20 MSTORE DUP2 PUSH0 MSTORE PUSH1 0x40 PUSH0 KECCAK256 DUP2 DUP2 SLOAD DUP2 LT PUSH2 0xA53 JUMPI PUSH0 DUP1 REVERT JUMPDEST SWAP1 PUSH0 MSTORE PUSH1 0x20 PUSH0 KECCAK256 SWAP1 PUSH1 0x4 MUL ADD PUSH0 SWAP2 POP SWAP2 POP POP DUP1 PUSH0 ADD PUSH0 SWAP1 SLOAD SWAP1 PUSH2 0x100 EXP SWAP1 DIV PUSH20 0xFFFFFFFFFFFFFFFFFFFFFFFFFFFFFFFFFFFFFFFF AND SWAP1 DUP1 PUSH1 0x1 ADD SLOAD SWAP1 DUP1 PUSH1 0x2 ADD DUP1 SLOAD PUSH2 0xA9E SWAP1 PUSH2 0x151E JUMP JUMPDEST DUP1 PUSH1 0x1F ADD PUSH1 0x20 DUP1 SWAP2 DIV MUL PUSH1 0x20 ADD PUSH1 0x40 MLOAD SWAP1 DUP2 ADD PUSH1 0x40 MSTORE DUP1 SWAP3 SWAP2 SWAP1 DUP2 DUP2 MSTORE PUSH1 0x20 ADD DUP3 DUP1 SLOAD PUSH2 0xACA SWAP1 PUSH2 0x151E JUMP JUMPDEST DUP1 ISZERO PUSH2 0xB15 JUMPI DUP1 PUSH1 0x1F LT PUSH2 0xAEC JUMPI PUSH2 0x100 DUP1 DUP4 SLOAD DIV MUL DUP4 MSTORE SWAP2 PUSH1 0x20 ADD SWAP2 PUSH2 0xB15 JUMP JUMPDEST DUP3 ADD SWAP2 SWAP1 PUSH0 MSTORE PUSH1 0x20 PUSH0 KECCAK256 SWAP1 JUMPDEST DUP2 SLOAD DUP2 MSTORE SWAP1 PUSH1 0x1 ADD SWAP1 PUSH1 0x20 ADD DUP1 DUP4 GT PUSH2 0xAF8 JUMPI DUP3 SWAP1 SUB PUSH1 0x1F AND DUP3 ADD SWAP2 JUMPDEST POP POP POP POP POP SWAP1 DUP1 PUSH1 0x3 ADD DUP1 SLOAD PUSH2 0xB2A SWAP1 PUSH2 0x151E JUMP JUMPDEST DUP1 PUSH1 0x1F ADD PUSH1 0x20 DUP1 SWAP2 DIV MUL PUSH1 0x20 ADD PUSH1 0x40 MLOAD SWAP1 DUP2 ADD PUSH1 0x40 MSTORE DUP1 SWAP3 SWAP2 SWAP1 DUP2 DUP2 MSTORE PUSH1 0x20 ADD DUP3 DUP1 SLOAD PUSH2 0xB56 SWAP1 PUSH2 0x151E JUMP JUMPDEST DUP1 ISZERO PUSH2 0xBA1 JUMPI DUP1 PUSH1 0x1F LT PUSH2 0xB78 JUMPI PUSH2 0x100 DUP1 DUP4 SLOAD DIV MUL DUP4 MSTORE SWAP2 PUSH1 0x20 ADD SWAP2 PUSH2 0xBA1 JUMP JUMPDEST DUP3 ADD SWAP2 SWAP1 PUSH0 MSTORE PUSH1 0x20 PUSH0 KECCAK256 SWAP1 JUMPDEST DUP2 SLOAD DUP2 MSTORE SWAP1 PUSH1 0x1 ADD SWAP1 PUSH1 0x20 ADD DUP1 DUP4 GT PUSH2 0xB84 JUMPI DUP3 SWAP1 SUB PUSH1 0x1F AND DUP3 ADD SWAP2 JUMPDEST POP POP POP POP POP SWAP1 POP DUP5 JUMP JUMPDEST PUSH1 0x1 PUSH1 0x4 DUP2 GT ISZERO PUSH2 0xBBF JUMPI PUSH2 0xBBE PUSH2 0x10D1 JUMP JUMPDEST JUMPDEST PUSH0 PUSH0 CALLER PUSH20 0xFFFFFFFFFFFFFFFFFFFFFFFFFFFFFFFFFFFFFFFF AND PUSH20 0xFFFFFFFFFFFFFFFFFFFFFFFFFFFFFFFFFFFFFFFF AND DUP2 MSTORE PUSH1 0x20 ADD SWAP1 DUP2 MSTORE PUSH1 0x20 ADD PUSH0 KECCAK256 PUSH0 ADD PUSH1 0x2 SWAP1 SLOAD SWAP1 PUSH2 0x100 EXP SWAP1 DIV PUSH1 0xFF AND PUSH1 0x4 DUP2 GT ISZERO PUSH2 0xC1D JUMPI PUSH2 0xC1C PUSH2 0x10D1 JUMP JUMPDEST JUMPDEST EQ PUSH2 0xC5D JUMPI PUSH1 0x40 MLOAD PUSH32 0x8C379A000000000000000000000000000000000000000000000000000000000 DUP2 MSTORE PUSH1 0x4 ADD PUSH2 0xC54 SWAP1 PUSH2 0x19A7 JUMP JUMPDEST PUSH1 0x40 MLOAD DUP1 SWAP2 SUB SWAP1 REVERT JUMPDEST PUSH1 0x1 PUSH0 PUSH1 0x2 SLOAD DUP2 MSTORE PUSH1 0x20 ADD SWAP1 DUP2 MSTORE PUSH1 0x20 ADD PUSH0 KECCAK256 PUSH1 0x40 MLOAD DUP1 PUSH1 0x80 ADD PUSH1 0x40 MSTORE DUP1 CALLER PUSH20 0xFFFFFFFFFFFFFFFFFFFFFFFFFFFFFFFFFFFFFFFF AND DUP2 MSTORE PUSH1 0x20 ADD TIMESTAMP DUP2 MSTORE PUSH1 0x20 ADD DUP5 DUP2 MSTORE PUSH1 0x20 ADD DUP4 DUP2 MSTORE POP SWAP1 DUP1 PUSH1 0x1 DUP2 SLOAD ADD DUP1 DUP3 SSTORE DUP1 SWAP2 POP POP PUSH1 0x1 SWAP1 SUB SWAP1 PUSH0 MSTORE PUSH1 0x20 PUSH0 KECCAK256 SWAP1 PUSH1 0x4 MUL ADD PUSH0 SWAP1 SWAP2 SWAP1 SWAP2 SWAP1 SWAP2 POP PUSH0 DUP3 ADD MLOAD DUP2 PUSH0 ADD PUSH0 PUSH2 0x100 EXP DUP2 SLOAD DUP2 PUSH20 0xFFFFFFFFFFFFFFFFFFFFFFFFFFFFFFFFFFFFFFFF MUL NOT AND SWAP1 DUP4 PUSH20 0xFFFFFFFFFFFFFFFFFFFFFFFFFFFFFFFFFFFFFFFF AND MUL OR SWAP1 SSTORE POP PUSH1 0x20 DUP3 ADD MLOAD DUP2 PUSH1 0x1 ADD SSTORE PUSH1 0x40 DUP3 ADD MLOAD DUP2 PUSH1 0x2 ADD SWAP1 DUP2 PUSH2 0xD30 SWAP2 SWAP1 PUSH2 0x1826 JUMP JUMPDEST POP PUSH1 0x60 DUP3 ADD MLOAD DUP2 PUSH1 0x3 ADD SWAP1 DUP2 PUSH2 0xD46 SWAP2 SWAP1 PUSH2 0x1826 JUMP JUMPDEST POP POP POP PUSH1 0x2 PUSH0 DUP2 SLOAD DUP1 SWAP3 SWAP2 SWAP1 PUSH2 0xD5B SWAP1 PUSH2 0x19F2 JUMP JUMPDEST SWAP2 SWAP1 POP SSTORE POP POP POP JUMP JUMPDEST PUSH0 PUSH1 0x40 MLOAD SWAP1 POP SWAP1 JUMP JUMPDEST PUSH0 PUSH0 REVERT JUMPDEST PUSH0 PUSH0 REVERT JUMPDEST PUSH1 0x5 DUP2 LT PUSH2 0xD81 JUMPI PUSH0 PUSH0 REVERT JUMPDEST POP JUMP JUMPDEST PUSH0 DUP2 CALLDATALOAD SWAP1 POP PUSH2 0xD92 DUP2 PUSH2 0xD75 JUMP JUMPDEST SWAP3 SWAP2 POP POP JUMP JUMPDEST PUSH0 PUSH1 0x20 DUP3 DUP5 SUB SLT ISZERO PUSH2 0xDAD JUMPI PUSH2 0xDAC PUSH2 0xD6D JUMP JUMPDEST JUMPDEST PUSH0 PUSH2 0xDBA DUP5 DUP3 DUP6 ADD PUSH2 0xD84 JUMP JUMPDEST SWAP2 POP POP SWAP3 SWAP2 POP POP JUMP JUMPDEST PUSH0 DUP2 SWAP1 POP SWAP2 SWAP1 POP JUMP JUMPDEST PUSH2 0xDD5 DUP2 PUSH2 0xDC3 JUMP JUMPDEST DUP2 EQ PUSH2 0xDDF JUMPI PUSH0 PUSH0 REVERT JUMPDEST POP JUMP JUMPDEST PUSH0 DUP2 CALLDATALOAD SWAP1 POP PUSH2 0xDF0 DUP2 PUSH2 0xDCC JUMP JUMPDEST SWAP3 SWAP2 POP POP JUMP JUMPDEST PUSH0 PUSH1 0x20 DUP3 DUP5 SUB SLT ISZERO PUSH2 0xE0B JUMPI PUSH2 0xE0A PUSH2 0xD6D JUMP JUMPDEST JUMPDEST PUSH0 PUSH2 0xE18 DUP5 DUP3 DUP6 ADD PUSH2 0xDE2 JUMP JUMPDEST SWAP2 POP POP SWAP3 SWAP2 POP POP JUMP JUMPDEST PUSH0 DUP2 MLOAD SWAP1 POP SWAP2 SWAP1 POP JUMP JUMPDEST PUSH0 DUP3 DUP3 MSTORE PUSH1 0x20 DUP3 ADD SWAP1 POP SWAP3 SWAP2 POP POP JUMP JUMPDEST PUSH0 DUP2 SWAP1 POP PUSH1 0x20 DUP3 ADD SWAP1 POP SWAP2 SWAP1 POP JUMP JUMPDEST PUSH0 PUSH20 0xFFFFFFFFFFFFFFFFFFFFFFFFFFFFFFFFFFFFFFFF DUP3 AND SWAP1 POP SWAP2 SWAP1 POP JUMP JUMPDEST PUSH0 PUSH2 0xE73 DUP3 PUSH2 0xE4A JUMP JUMPDEST SWAP1 POP SWAP2 SWAP1 POP JUMP JUMPDEST PUSH2 0xE83 DUP2 PUSH2 0xE69 JUMP JUMPDEST DUP3 MSTORE POP POP JUMP JUMPDEST PUSH2 0xE92 DUP2 PUSH2 0xDC3 JUMP JUMPDEST DUP3 MSTORE POP POP JUMP JUMPDEST PUSH0 DUP2 MLOAD SWAP1 POP SWAP2 SWAP1 POP JUMP JUMPDEST PUSH0 DUP3 DUP3 MSTORE PUSH1 0x20 DUP3 ADD SWAP1 POP SWAP3 SWAP2 POP POP JUMP JUMPDEST DUP3 DUP2 DUP4 MCOPY PUSH0 DUP4 DUP4 ADD MSTORE POP POP POP JUMP JUMPDEST PUSH0 PUSH1 0x1F NOT PUSH1 0x1F DUP4 ADD AND SWAP1 POP SWAP2 SWAP1 POP JUMP JUMPDEST PUSH0 PUSH2 0xEDA DUP3 PUSH2 0xE98 JUMP JUMPDEST PUSH2 0xEE4 DUP2 DUP6 PUSH2 0xEA2 JUMP JUMPDEST SWAP4 POP PUSH2 0xEF4 DUP2 DUP6 PUSH1 0x20 DUP7 ADD PUSH2 0xEB2 JUMP JUMPDEST PUSH2 0xEFD DUP2 PUSH2 0xEC0 JUMP JUMPDEST DUP5 ADD SWAP2 POP POP SWAP3 SWAP2 POP POP JUMP JUMPDEST PUSH0 PUSH1 0x80 DUP4 ADD PUSH0 DUP4 ADD MLOAD PUSH2 0xF1D PUSH0 DUP7 ADD DUP3 PUSH2 0xE7A JUMP JUMPDEST POP PUSH1 0x20 DUP4 ADD MLOAD PUSH2 0xF30 PUSH1 0x20 DUP7 ADD DUP3 PUSH2 0xE89 JUMP JUMPDEST POP PUSH1 0x40 DUP4 ADD MLOAD DUP5 DUP3 SUB PUSH1 0x40 DUP7 ADD MSTORE PUSH2 0xF48 DUP3 DUP3 PUSH2 0xED0 JUMP JUMPDEST SWAP2 POP POP PUSH1 0x60 DUP4 ADD MLOAD DUP5 DUP3 SUB PUSH1 0x60 DUP7 ADD MSTORE PUSH2 0xF62 DUP3 DUP3 PUSH2 0xED0 JUMP JUMPDEST SWAP2 POP POP DUP1 SWAP2 POP POP SWAP3 SWAP2 POP POP JUMP JUMPDEST PUSH0 PUSH2 0xF7A DUP4 DUP4 PUSH2 0xF08 JUMP JUMPDEST SWAP1 POP SWAP3 SWAP2 POP POP JUMP JUMPDEST PUSH0 PUSH1 0x20 DUP3 ADD SWAP1 POP SWAP2 SWAP1 POP JUMP JUMPDEST PUSH0 PUSH2 0xF98 DUP3 PUSH2 0xE21 JUMP JUMPDEST PUSH2 0xFA2 DUP2 DUP6 PUSH2 0xE2B JUMP JUMPDEST SWAP4 POP DUP4 PUSH1 0x20 DUP3 MUL DUP6 ADD PUSH2 0xFB4 DUP6 PUSH2 0xE3B JUMP JUMPDEST DUP1 PUSH0 JUMPDEST DUP6 DUP2 LT ISZERO PUSH2 0xFEF JUMPI DUP5 DUP5 SUB DUP10 MSTORE DUP2 MLOAD PUSH2 0xFD0 DUP6 DUP3 PUSH2 0xF6F JUMP JUMPDEST SWAP5 POP PUSH2 0xFDB DUP4 PUSH2 0xF82 JUMP JUMPDEST SWAP3 POP PUSH1 0x20 DUP11 ADD SWAP10 POP POP PUSH1 0x1 DUP2 ADD SWAP1 POP PUSH2 0xFB7 JUMP JUMPDEST POP DUP3 SWAP8 POP DUP8 SWAP6 POP POP POP POP POP POP SWAP3 SWAP2 POP POP JUMP JUMPDEST PUSH0 PUSH1 0x20 DUP3 ADD SWAP1 POP DUP2 DUP2 SUB PUSH0 DUP4 ADD MSTORE PUSH2 0x1019 DUP2 DUP5 PUSH2 0xF8E JUMP JUMPDEST SWAP1 POP SWAP3 SWAP2 POP POP JUMP JUMPDEST PUSH2 0x102A DUP2 PUSH2 0xDC3 JUMP JUMPDEST DUP3 MSTORE POP POP JUMP JUMPDEST PUSH0 PUSH1 0x20 DUP3 ADD SWAP1 POP PUSH2 0x1043 PUSH0 DUP4 ADD DUP5 PUSH2 0x1021 JUMP JUMPDEST SWAP3 SWAP2 POP POP JUMP JUMPDEST PUSH2 0x1052 DUP2 PUSH2 0xE69 JUMP JUMPDEST DUP2 EQ PUSH2 0x105C JUMPI PUSH0 PUSH0 REVERT JUMPDEST POP JUMP JUMPDEST PUSH0 DUP2 CALLDATALOAD SWAP1 POP PUSH2 0x106D DUP2 PUSH2 0x1049 JUMP JUMPDEST SWAP3 SWAP2 POP POP JUMP JUMPDEST PUSH0 PUSH1 0x20 DUP3 DUP5 SUB SLT ISZERO PUSH2 0x1088 JUMPI PUSH2 0x1087 PUSH2 0xD6D JUMP JUMPDEST JUMPDEST PUSH0 PUSH2 0x1095 DUP5 DUP3 DUP6 ADD PUSH2 0x105F JUMP JUMPDEST SWAP2 POP POP SWAP3 SWAP2 POP POP JUMP JUMPDEST PUSH0 DUP2 ISZERO ISZERO SWAP1 POP SWAP2 SWAP1 POP JUMP JUMPDEST PUSH2 0x10B2 DUP2 PUSH2 0x109E JUMP JUMPDEST DUP3 MSTORE POP POP JUMP JUMPDEST PUSH0 PUSH1 0x20 DUP3 ADD SWAP1 POP PUSH2 0x10CB PUSH0 DUP4 ADD DUP5 PUSH2 0x10A9 JUMP JUMPDEST SWAP3 SWAP2 POP POP JUMP JUMPDEST PUSH32 0x4E487B7100000000000000000000000000000000000000000000000000000000 PUSH0 MSTORE PUSH1 0x21 PUSH1 0x4 MSTORE PUSH1 0x24 PUSH0 REVERT JUMPDEST PUSH1 0x5 DUP2 LT PUSH2 0x110F JUMPI PUSH2 0x110E PUSH2 0x10D1 JUMP JUMPDEST JUMPDEST POP JUMP JUMPDEST PUSH0 DUP2 SWAP1 POP PUSH2 0x111F DUP3 PUSH2 0x10FE JUMP JUMPDEST SWAP2 SWAP1 POP JUMP JUMPDEST PUSH0 PUSH2 0x112E DUP3 PUSH2 0x1112 JUMP JUMPDEST SWAP1 POP SWAP2 SWAP1 POP JUMP JUMPDEST PUSH2 0x113E DUP2 PUSH2 0x1124 JUMP JUMPDEST DUP3 MSTORE POP POP JUMP JUMPDEST PUSH0 PUSH1 0x60 DUP3 ADD SWAP1 POP PUSH2 0x1157 PUSH0 DUP4 ADD DUP7 PUSH2 0x10A9 JUMP JUMPDEST PUSH2 0x1164 PUSH1 0x20 DUP4 ADD DUP6 PUSH2 0x10A9 JUMP JUMPDEST PUSH2 0x1171 PUSH1 0x40 DUP4 ADD DUP5 PUSH2 0x1135 JUMP JUMPDEST SWAP5 SWAP4 POP POP POP POP JUMP JUMPDEST PUSH0 PUSH0 REVERT JUMPDEST PUSH0 PUSH0 REVERT JUMPDEST PUSH32 0x4E487B7100000000000000000000000000000000000000000000000000000000 PUSH0 MSTORE PUSH1 0x41 PUSH1 0x4 MSTORE PUSH1 0x24 PUSH0 REVERT JUMPDEST PUSH2 0x11B7 DUP3 PUSH2 0xEC0 JUMP JUMPDEST DUP2 ADD DUP2 DUP2 LT PUSH8 0xFFFFFFFFFFFFFFFF DUP3 GT OR ISZERO PUSH2 0x11D6 JUMPI PUSH2 0x11D5 PUSH2 0x1181 JUMP JUMPDEST JUMPDEST DUP1 PUSH1 0x40 MSTORE POP POP POP JUMP JUMPDEST PUSH0 PUSH2 0x11E8 PUSH2 0xD64 JUMP JUMPDEST SWAP1 POP PUSH2 0x11F4 DUP3 DUP3 PUSH2 0x11AE JUMP JUMPDEST SWAP2 SWAP1 POP JUMP JUMPDEST PUSH0 PUSH8 0xFFFFFFFFFFFFFFFF DUP3 GT ISZERO PUSH2 0x1213 JUMPI PUSH2 0x1212 PUSH2 0x1181 JUMP JUMPDEST JUMPDEST PUSH2 0x121C DUP3 PUSH2 0xEC0 JUMP JUMPDEST SWAP1 POP PUSH1 0x20 DUP2 ADD SWAP1 POP SWAP2 SWAP1 POP JUMP JUMPDEST DUP3 DUP2 DUP4 CALLDATACOPY PUSH0 DUP4 DUP4 ADD MSTORE POP POP POP JUMP JUMPDEST PUSH0 PUSH2 0x1249 PUSH2 0x1244 DUP5 PUSH2 0x11F9 JUMP JUMPDEST PUSH2 0x11DF JUMP JUMPDEST SWAP1 POP DUP3 DUP2 MSTORE PUSH1 0x20 DUP2 ADD DUP5 DUP5 DUP5 ADD GT ISZERO PUSH2 0x1265 JUMPI PUSH2 0x1264 PUSH2 0x117D JUMP JUMPDEST JUMPDEST PUSH2 0x1270 DUP5 DUP3 DUP6 PUSH2 0x1229 JUMP JUMPDEST POP SWAP4 SWAP3 POP POP POP JUMP JUMPDEST PUSH0 DUP3 PUSH1 0x1F DUP4 ADD SLT PUSH2 0x128C JUMPI PUSH2 0x128B PUSH2 0x1179 JUMP JUMPDEST JUMPDEST DUP2 CALLDATALOAD PUSH2 0x129C DUP5 DUP3 PUSH1 0x20 DUP7 ADD PUSH2 0x1237 JUMP JUMPDEST SWAP2 POP POP SWAP3 SWAP2 POP POP JUMP JUMPDEST PUSH0 PUSH0 PUSH0 PUSH1 0x60 DUP5 DUP7 SUB SLT ISZERO PUSH2 0x12BC JUMPI PUSH2 0x12BB PUSH2 0xD6D JUMP JUMPDEST JUMPDEST PUSH0 PUSH2 0x12C9 DUP7 DUP3 DUP8 ADD PUSH2 0xDE2 JUMP JUMPDEST SWAP4 POP POP PUSH1 0x20 DUP5 ADD CALLDATALOAD PUSH8 0xFFFFFFFFFFFFFFFF DUP2 GT ISZERO PUSH2 0x12EA JUMPI PUSH2 0x12E9 PUSH2 0xD71 JUMP JUMPDEST JUMPDEST PUSH2 0x12F6 DUP7 DUP3 DUP8 ADD PUSH2 0x1278 JUMP JUMPDEST SWAP3 POP POP PUSH1 0x40 DUP5 ADD CALLDATALOAD PUSH8 0xFFFFFFFFFFFFFFFF DUP2 GT ISZERO PUSH2 0x1317 JUMPI PUSH2 0x1316 PUSH2 0xD71 JUMP JUMPDEST JUMPDEST PUSH2 0x1323 DUP7 DUP3 DUP8 ADD PUSH2 0x1278 JUMP JUMPDEST SWAP2 POP POP SWAP3 POP SWAP3 POP SWAP3 JUMP JUMPDEST PUSH0 PUSH0 PUSH1 0x40 DUP4 DUP6 SUB SLT ISZERO PUSH2 0x1343 JUMPI PUSH2 0x1342 PUSH2 0xD6D JUMP JUMPDEST JUMPDEST PUSH0 PUSH2 0x1350 DUP6 DUP3 DUP7 ADD PUSH2 0xDE2 JUMP JUMPDEST SWAP3 POP POP PUSH1 0x20 PUSH2 0x1361 DUP6 DUP3 DUP7 ADD PUSH2 0xDE2 JUMP JUMPDEST SWAP2 POP POP SWAP3 POP SWAP3 SWAP1 POP JUMP JUMPDEST PUSH2 0x1374 DUP2 PUSH2 0xE69 JUMP JUMPDEST DUP3 MSTORE POP POP JUMP JUMPDEST PUSH0 DUP3 DUP3 MSTORE PUSH1 0x20 DUP3 ADD SWAP1 POP SWAP3 SWAP2 POP POP JUMP JUMPDEST PUSH0 PUSH2 0x1394 DUP3 PUSH2 0xE98 JUMP JUMPDEST PUSH2 0x139E DUP2 DUP6 PUSH2 0x137A JUMP JUMPDEST SWAP4 POP PUSH2 0x13AE DUP2 DUP6 PUSH1 0x20 DUP7 ADD PUSH2 0xEB2 JUMP JUMPDEST PUSH2 0x13B7 DUP2 PUSH2 0xEC0 JUMP JUMPDEST DUP5 ADD SWAP2 POP POP SWAP3 SWAP2 POP POP JUMP JUMPDEST PUSH0 PUSH1 0x80 DUP3 ADD SWAP1 POP PUSH2 0x13D5 PUSH0 DUP4 ADD DUP8 PUSH2 0x136B JUMP JUMPDEST PUSH2 0x13E2 PUSH1 0x20 DUP4 ADD DUP7 PUSH2 0x1021 JUMP JUMPDEST DUP2 DUP2 SUB PUSH1 0x40 DUP4 ADD MSTORE PUSH2 0x13F4 DUP2 DUP6 PUSH2 0x138A JUMP JUMPDEST SWAP1 POP DUP2 DUP2 SUB PUSH1 0x60 DUP4 ADD MSTORE PUSH2 0x1408 DUP2 DUP5 PUSH2 0x138A JUMP JUMPDEST SWAP1 POP SWAP6 SWAP5 POP POP POP POP POP JUMP JUMPDEST PUSH0 PUSH0 PUSH1 0x40 DUP4 DUP6 SUB SLT ISZERO PUSH2 0x1429 JUMPI PUSH2 0x1428 PUSH2 0xD6D JUMP JUMPDEST JUMPDEST PUSH0 DUP4 ADD CALLDATALOAD PUSH8 0xFFFFFFFFFFFFFFFF DUP2 GT ISZERO PUSH2 0x1446 JUMPI PUSH2 0x1445 PUSH2 0xD71 JUMP JUMPDEST JUMPDEST PUSH2 0x1452 DUP6 DUP3 DUP7 ADD PUSH2 0x1278 JUMP JUMPDEST SWAP3 POP POP PUSH1 0x20 DUP4 ADD CALLDATALOAD PUSH8 0xFFFFFFFFFFFFFFFF DUP2 GT ISZERO PUSH2 0x1473 JUMPI PUSH2 0x1472 PUSH2 0xD71 JUMP JUMPDEST JUMPDEST PUSH2 0x147F DUP6 DUP3 DUP7 ADD PUSH2 0x1278 JUMP JUMPDEST SWAP2 POP POP SWAP3 POP SWAP3 SWAP1 POP JUMP JUMPDEST PUSH32 0x5573657220616C72656164792072656769737465726564000000000000000000 PUSH0 DUP3 ADD MSTORE POP JUMP JUMPDEST PUSH0 PUSH2 0x14BD PUSH1 0x17 DUP4 PUSH2 0x137A JUMP JUMPDEST SWAP2 POP PUSH2 0x14C8 DUP3 PUSH2 0x1489 JUMP JUMPDEST PUSH1 0x20 DUP3 ADD SWAP1 POP SWAP2 SWAP1 POP JUMP JUMPDEST PUSH0 PUSH1 0x20 DUP3 ADD SWAP1 POP DUP2 DUP2 SUB PUSH0 DUP4 ADD MSTORE PUSH2 0x14EA DUP2 PUSH2 0x14B1 JUMP JUMPDEST SWAP1 POP SWAP2 SWAP1 POP JUMP JUMPDEST PUSH32 0x4E487B7100000000000000000000000000000000000000000000000000000000 PUSH0 MSTORE PUSH1 0x22 PUSH1 0x4 MSTORE PUSH1 0x24 PUSH0 REVERT JUMPDEST PUSH0 PUSH1 0x2 DUP3 DIV SWAP1 POP PUSH1 0x1 DUP3 AND DUP1 PUSH2 0x1535 JUMPI PUSH1 0x7F DUP3 AND SWAP2 POP JUMPDEST PUSH1 0x20 DUP3 LT DUP2 SUB PUSH2 0x1548 JUMPI PUSH2 0x1547 PUSH2 0x14F1 JUMP JUMPDEST JUMPDEST POP SWAP2 SWAP1 POP JUMP JUMPDEST PUSH32 0x55736572206E6F74207265676973746572656400000000000000000000000000 PUSH0 DUP3 ADD MSTORE POP JUMP JUMPDEST PUSH0 PUSH2 0x1582 PUSH1 0x13 DUP4 PUSH2 0x137A JUMP JUMPDEST SWAP2 POP PUSH2 0x158D DUP3 PUSH2 0x154E JUMP JUMPDEST PUSH1 0x20 DUP3 ADD SWAP1 POP SWAP2 SWAP1 POP JUMP JUMPDEST PUSH0 PUSH1 0x20 DUP3 ADD SWAP1 POP DUP2 DUP2 SUB PUSH0 DUP4 ADD MSTORE PUSH2 0x15AF DUP2 PUSH2 0x1576 JUMP JUMPDEST SWAP1 POP SWAP2 SWAP1 POP JUMP JUMPDEST PUSH32 0x55736572206E6F74206C6F6767656420696E0000000000000000000000000000 PUSH0 DUP3 ADD MSTORE POP JUMP JUMPDEST PUSH0 PUSH2 0x15EA PUSH1 0x12 DUP4 PUSH2 0x137A JUMP JUMPDEST SWAP2 POP PUSH2 0x15F5 DUP3 PUSH2 0x15B6 JUMP JUMPDEST PUSH1 0x20 DUP3 ADD SWAP1 POP SWAP2 SWAP1 POP JUMP JUMPDEST PUSH0 PUSH1 0x20 DUP3 ADD SWAP1 POP DUP2 DUP2 SUB PUSH0 DUP4 ADD MSTORE PUSH2 0x1617 DUP2 PUSH2 0x15DE JUMP JUMPDEST SWAP1 POP SWAP2 SWAP1 POP JUMP JUMPDEST PUSH32 0x426174636820646F6573206E6F74206578697374000000000000000000000000 PUSH0 DUP3 ADD MSTORE POP JUMP JUMPDEST PUSH0 PUSH2 0x1652 PUSH1 0x14 DUP4 PUSH2 0x137A JUMP JUMPDEST SWAP2 POP PUSH2 0x165D DUP3 PUSH2 0x161E JUMP JUMPDEST PUSH1 0x20 DUP3 ADD SWAP1 POP SWAP2 SWAP1 POP JUMP JUMPDEST PUSH0 PUSH1 0x20 DUP3 ADD SWAP1 POP DUP2 DUP2 SUB PUSH0 DUP4 ADD MSTORE PUSH2 0x167F DUP2 PUSH2 0x1646 JUMP JUMPDEST SWAP1 POP SWAP2 SWAP1 POP JUMP JUMPDEST PUSH0 DUP2 SWAP1 POP DUP2 PUSH0 MSTORE PUSH1 0x20 PUSH0 KECCAK256 SWAP1 POP SWAP2 SWAP1 POP JUMP JUMPDEST PUSH0 PUSH1 0x20 PUSH1 0x1F DUP4 ADD DIV SWAP1 POP SWAP2 SWAP1 POP JUMP JUMPDEST PUSH0 DUP3 DUP3 SHL SWAP1 POP SWAP3 SWAP2 POP POP JUMP JUMPDEST PUSH0 PUSH1 0x8 DUP4 MUL PUSH2 0x16E2 PUSH32 0xFFFFFFFFFFFFFFFFFFFFFFFFFFFFFFFFFFFFFFFFFFFFFFFFFFFFFFFFFFFFFFFF DUP3 PUSH2 0x16A7 JUMP JUMPDEST PUSH2 0x16EC DUP7 DUP4 PUSH2 0x16A7 JUMP JUMPDEST SWAP6 POP DUP1 NOT DUP5 AND SWAP4 POP DUP1 DUP7 AND DUP5 OR SWAP3 POP POP POP SWAP4 SWAP3 POP POP POP JUMP JUMPDEST PUSH0 DUP2 SWAP1 POP SWAP2 SWAP1 POP JUMP JUMPDEST PUSH0 PUSH2 0x1727 PUSH2 0x1722 PUSH2 0x171D DUP5 PUSH2 0xDC3 JUMP JUMPDEST PUSH2 0x1704 JUMP JUMPDEST PUSH2 0xDC3 JUMP JUMPDEST SWAP1 POP SWAP2 SWAP1 POP JUMP JUMPDEST PUSH0 DUP2 SWAP1 POP SWAP2 SWAP1 POP JUMP JUMPDEST PUSH2 0x1740 DUP4 PUSH2 0x170D JUMP JUMPDEST PUSH2 0x1754 PUSH2 0x174C DUP3 PUSH2 0x172E JUMP JUMPDEST DUP5 DUP5 SLOAD PUSH2 0x16B3 JUMP JUMPDEST DUP3 SSTORE POP POP POP POP JUMP JUMPDEST PUSH0 PUSH0 SWAP1 POP SWAP1 JUMP JUMPDEST PUSH2 0x176B PUSH2 0x175C JUMP JUMPDEST PUSH2 0x1776 DUP2 DUP5 DUP5 PUSH2 0x1737 JUMP JUMPDEST POP POP POP JUMP JUMPDEST JUMPDEST DUP2 DUP2 LT ISZERO PUSH2 0x1799 JUMPI PUSH2 0x178E PUSH0 DUP3 PUSH2 0x1763 JUMP JUMPDEST PUSH1 0x1 DUP2 ADD SWAP1 POP PUSH2 0x177C JUMP JUMPDEST POP POP JUMP JUMPDEST PUSH1 0x1F DUP3 GT ISZERO PUSH2 0x17DE JUMPI PUSH2 0x17AF DUP2 PUSH2 0x1686 JUMP JUMPDEST PUSH2 0x17B8 DUP5 PUSH2 0x1698 JUMP JUMPDEST DUP2 ADD PUSH1 0x20 DUP6 LT ISZERO PUSH2 0x17C7 JUMPI DUP2 SWAP1 POP JUMPDEST PUSH2 0x17DB PUSH2 0x17D3 DUP6 PUSH2 0x1698 JUMP JUMPDEST DUP4 ADD DUP3 PUSH2 0x177B JUMP JUMPDEST POP POP JUMPDEST POP POP POP JUMP JUMPDEST PUSH0 DUP3 DUP3 SHR SWAP1 POP SWAP3 SWAP2 POP POP JUMP JUMPDEST PUSH0 PUSH2 0x17FE PUSH0 NOT DUP5 PUSH1 0x8 MUL PUSH2 0x17E3 JUMP JUMPDEST NOT DUP1 DUP4 AND SWAP2 POP POP SWAP3 SWAP2 POP POP JUMP JUMPDEST PUSH0 PUSH2 0x1816 DUP4 DUP4 PUSH2 0x17EF JUMP JUMPDEST SWAP2 POP DUP3 PUSH1 0x2 MUL DUP3 OR SWAP1 POP SWAP3 SWAP2 POP POP JUMP JUMPDEST PUSH2 0x182F DUP3 PUSH2 0xE98 JUMP JUMPDEST PUSH8 0xFFFFFFFFFFFFFFFF DUP2 GT ISZERO PUSH2 0x1848 JUMPI PUSH2 0x1847 PUSH2 0x1181 JUMP JUMPDEST JUMPDEST PUSH2 0x1852 DUP3 SLOAD PUSH2 0x151E JUMP JUMPDEST PUSH2 0x185D DUP3 DUP3 DUP6 PUSH2 0x179D JUMP JUMPDEST PUSH0 PUSH1 0x20 SWAP1 POP PUSH1 0x1F DUP4 GT PUSH1 0x1 DUP2 EQ PUSH2 0x188E JUMPI PUSH0 DUP5 ISZERO PUSH2 0x187C JUMPI DUP3 DUP8 ADD MLOAD SWAP1 POP JUMPDEST PUSH2 0x1886 DUP6 DUP3 PUSH2 0x180B JUMP JUMPDEST DUP7 SSTORE POP PUSH2 0x18ED JUMP JUMPDEST PUSH1 0x1F NOT DUP5 AND PUSH2 0x189C DUP7 PUSH2 0x1686 JUMP JUMPDEST PUSH0 JUMPDEST DUP3 DUP2 LT ISZERO PUSH2 0x18C3 JUMPI DUP5 DUP10 ADD MLOAD DUP3 SSTORE PUSH1 0x1 DUP3 ADD SWAP2 POP PUSH1 0x20 DUP6 ADD SWAP5 POP PUSH1 0x20 DUP2 ADD SWAP1 POP PUSH2 0x189E JUMP JUMPDEST DUP7 DUP4 LT ISZERO PUSH2 0x18E0 JUMPI DUP5 DUP10 ADD MLOAD PUSH2 0x18DC PUSH1 0x1F DUP10 AND DUP3 PUSH2 0x17EF JUMP JUMPDEST DUP4 SSTORE POP JUMPDEST PUSH1 0x1 PUSH1 0x2 DUP9 MUL ADD DUP9 SSTORE POP POP POP JUMPDEST POP POP POP POP POP POP JUMP JUMPDEST PUSH32 0x5573657220616C7265616479206C6F6767656420696E00000000000000000000 PUSH0 DUP3 ADD MSTORE POP JUMP JUMPDEST PUSH0 PUSH2 0x1929 PUSH1 0x16 DUP4 PUSH2 0x137A JUMP JUMPDEST SWAP2 POP PUSH2 0x1934 DUP3 PUSH2 0x18F5 JUMP JUMPDEST PUSH1 0x20 DUP3 ADD SWAP1 POP SWAP2 SWAP1 POP JUMP JUMPDEST PUSH0 PUSH1 0x20 DUP3 ADD SWAP1 POP DUP2 DUP2 SUB PUSH0 DUP4 ADD MSTORE PUSH2 0x1956 DUP2 PUSH2 0x191D JUMP JUMPDEST SWAP1 POP SWAP2 SWAP1 POP JUMP JUMPDEST PUSH32 0x4F6E6C79206661726D657220616C6C6F77656400000000000000000000000000 PUSH0 DUP3 ADD MSTORE POP JUMP JUMPDEST PUSH0 PUSH2 0x1991 PUSH1 0x13 DUP4 PUSH2 0x137A JUMP JUMPDEST SWAP2 POP PUSH2 0x199C DUP3 PUSH2 0x195D JUMP JUMPDEST PUSH1 0x20 DUP3 ADD SWAP1 POP SWAP2 SWAP1 POP JUMP JUMPDEST PUSH0 PUSH1 0x20 DUP3 ADD SWAP1 POP DUP2 DUP2 SUB PUSH0 DUP4 ADD MSTORE PUSH2 0x19BE DUP2 PUSH2 0x1985 JUMP JUMPDEST SWAP1 POP SWAP2 SWAP1 POP JUMP JUMPDEST PUSH32 0x4E487B7100000000000000000000000000000000000000000000000000000000 PUSH0 MSTORE PUSH1 0x11 PUSH1 0x4 MSTORE PUSH1 0x24 PUSH0 REVERT JUMPDEST PUSH0 PUSH2 0x19FC DUP3 PUSH2 0xDC3 JUMP JUMPDEST SWAP2 POP PUSH32 0xFFFFFFFFFFFFFFFFFFFFFFFFFFFFFFFFFFFFFFFFFFFFFFFFFFFFFFFFFFFFFFFF DUP3 SUB PUSH2 0x1A2E JUMPI PUSH2 0x1A2D PUSH2 0x19C5 JUMP JUMPDEST JUMPDEST PUSH1 0x1 DUP3 ADD SWAP1 POP SWAP2 SWAP1 POP JUMP INVALID LOG2 PUSH5 0x6970667358 0x22 SLT KECCAK256 PUSH27 0x55F06059889F1E2B2FE65890D23A7DF0DBDBA16CA6D9E08A73A949 SWAP3 0x2B 0xAF 0xAA PUSH5 0x736F6C6343 STOP ADDMOD 0x1F STOP CALLER "
				},
				"gasEstimates": {
					"creation": {
						"codeDepositCost": "1353400",
						"executionCost": "1408",
						"totalCost": "1354808"
					},
					"external": {
						"addFlow(uint256,string,string)": "infinite",
						"batchID()": "2492",
						"checkLoginStatus(address)": "3014",
						"flows(uint256,uint256)": "infinite",
						"getAllFlows(uint256)": "infinite",
						"initialiseBatch(string,string)": "infinite",
						"login()": "29135",
						"logout()": "29132",
						"registerUser(uint8)": "75798",
						"users(address)": "infinite"
					}
				},
				"methodIdentifiers": {
					"addFlow(uint256,string,string)": "ada00f3b",
					"batchID()": "a18d8122",
					"checkLoginStatus(address)": "a78c928b",
					"flows(uint256,uint256)": "b9cee7d8",
					"getAllFlows(uint256)": "04aabb5a",
					"initialiseBatch(string,string)": "c293aca7",
					"login()": "b34e97e8",
					"logout()": "1f3c99c3",
					"registerUser(uint8)": "02b8c8cd",
					"users(address)": "a87430ba"
				}
			},
			"storageLayout": {
				"storage": [
					{
						"astId": 20,
						"contract": "contracts/Halal_Supply_Chain.sol:HalalSupplyChain",
						"label": "users",
						"offset": 0,
						"slot": "0",
						"type": "t_mapping(t_address,t_struct(UserDetail)15_storage)"
					},
					{
						"astId": 150,
						"contract": "contracts/Halal_Supply_Chain.sol:HalalSupplyChain",
						"label": "flows",
						"offset": 0,
						"slot": "1",
						"type": "t_mapping(t_uint256,t_array(t_struct(Flow)144_storage)dyn_storage)"
					},
					{
						"astId": 152,
						"contract": "contracts/Halal_Supply_Chain.sol:HalalSupplyChain",
						"label": "batchID",
						"offset": 0,
						"slot": "2",
						"type": "t_uint256"
					}
				],
				"types": {
					"t_address": {
						"encoding": "inplace",
						"label": "address",
						"numberOfBytes": "20"
					},
					"t_array(t_struct(Flow)144_storage)dyn_storage": {
						"base": "t_struct(Flow)144_storage",
						"encoding": "dynamic_array",
						"label": "struct HalalSupplyChain.Flow[]",
						"numberOfBytes": "32"
					},
					"t_bool": {
						"encoding": "inplace",
						"label": "bool",
						"numberOfBytes": "1"
					},
					"t_enum(Role)7": {
						"encoding": "inplace",
						"label": "enum HalalSupplyChain.Role",
						"numberOfBytes": "1"
					},
					"t_mapping(t_address,t_struct(UserDetail)15_storage)": {
						"encoding": "mapping",
						"key": "t_address",
						"label": "mapping(address => struct HalalSupplyChain.UserDetail)",
						"numberOfBytes": "32",
						"value": "t_struct(UserDetail)15_storage"
					},
					"t_mapping(t_uint256,t_array(t_struct(Flow)144_storage)dyn_storage)": {
						"encoding": "mapping",
						"key": "t_uint256",
						"label": "mapping(uint256 => struct HalalSupplyChain.Flow[])",
						"numberOfBytes": "32",
						"value": "t_array(t_struct(Flow)144_storage)dyn_storage"
					},
					"t_string_storage": {
						"encoding": "bytes",
						"label": "string",
						"numberOfBytes": "32"
					},
					"t_struct(Flow)144_storage": {
						"encoding": "inplace",
						"label": "struct HalalSupplyChain.Flow",
						"members": [
							{
								"astId": 137,
								"contract": "contracts/Halal_Supply_Chain.sol:HalalSupplyChain",
								"label": "updatedBy",
								"offset": 0,
								"slot": "0",
								"type": "t_address"
							},
							{
								"astId": 139,
								"contract": "contracts/Halal_Supply_Chain.sol:HalalSupplyChain",
								"label": "timestamp",
								"offset": 0,
								"slot": "1",
								"type": "t_uint256"
							},
							{
								"astId": 141,
								"contract": "contracts/Halal_Supply_Chain.sol:HalalSupplyChain",
								"label": "location",
								"offset": 0,
								"slot": "2",
								"type": "t_string_storage"
							},
							{
								"astId": 143,
								"contract": "contracts/Halal_Supply_Chain.sol:HalalSupplyChain",
								"label": "content",
								"offset": 0,
								"slot": "3",
								"type": "t_string_storage"
							}
						],
						"numberOfBytes": "128"
					},
					"t_struct(UserDetail)15_storage": {
						"encoding": "inplace",
						"label": "struct HalalSupplyChain.UserDetail",
						"members": [
							{
								"astId": 9,
								"contract": "contracts/Halal_Supply_Chain.sol:HalalSupplyChain",
								"label": "isRegistered",
								"offset": 0,
								"slot": "0",
								"type": "t_bool"
							},
							{
								"astId": 11,
								"contract": "contracts/Halal_Supply_Chain.sol:HalalSupplyChain",
								"label": "isLoggedIn",
								"offset": 1,
								"slot": "0",
								"type": "t_bool"
							},
							{
								"astId": 14,
								"contract": "contracts/Halal_Supply_Chain.sol:HalalSupplyChain",
								"label": "role",
								"offset": 2,
								"slot": "0",
								"type": "t_enum(Role)7"
							}
						],
						"numberOfBytes": "32"
					},
					"t_uint256": {
						"encoding": "inplace",
						"label": "uint256",
						"numberOfBytes": "32"
					}
				}
			},
			"userdoc": {
				"kind": "user",
				"methods": {},
				"version": 1
			}
		}
	}
}